:100000000C945C000C946E000C946E000C946E00CA
:100010000C946E000C946E000C946E000C946E00A8
:100020000C946E000C946E000C946E000C946E0098
:100030000C946E000C946E000C946E000C946E0088
:100040000C9413010C946E000C946E000C946E00D2
:100050000C946E000C946E000C946E000C946E0068
:100060000C946E000C946E00000000002400270029
:100070002A0000000000250028002B0004040404CE
:100080000404040402020202020203030303030342
:10009000010204081020408001020408102001021F
:1000A00004081020000000080002010000030407FB
:1000B000000000000000000011241FBECFEFD8E0B8
:1000C000DEBFCDBF21E0A0E0B1E001C01D92A930AC
:1000D000B207E1F70E945D010C94CC010C94000082
:1000E000E1EBF0E02491EDE9F0E09491E9E8F0E053
:1000F000E491EE23C9F0222339F0233001F1A8F472
:10010000213019F1223029F1F0E0EE0FFF1FEE58F7
:10011000FF4FA591B4912FB7F894EC91811126C0AF
:1001200090959E239C932FBF08952730A9F02830E7
:10013000C9F0243049F7209180002F7D03C0209121
:1001400080002F7720938000DFCF24B52F7724BD48
:10015000DBCF24B52F7DFBCF2091B0002F772093EC
:10016000B000D2CF2091B0002F7DF9CF9E2BDACFF7
:100170003FB7F8948091050190910601A091070185
:10018000B091080126B5A89B05C02F3F19F0019634
:10019000A11DB11D3FBFBA2FA92F982F8827BC01E1
:1001A000CD01620F711D811D911D42E0660F771F09
:1001B000881F991F4A95D1F708958F929F92AF9209
:1001C000BF92CF92DF92EF92FF920E94B8004B0154
:1001D0005C0188EEC82E83E0D82EE12CF12C0E9421
:1001E000B800681979098A099B09683E734081053E
:1001F0009105A8F321E0C21AD108E108F10888EEC0
:10020000880E83E0981EA11CB11CC114D104E10426
:10021000F10429F7FF90EF90DF90CF90BF90AF905F
:100220009F908F9008951F920F920FB60F921124F6
:100230002F933F938F939F93AF93BF93809101012F
:1002400090910201A0910301B0910401309100014D
:1002500023E0230F2D3758F50196A11DB11D2093E2
:1002600000018093010190930201A0930301B093D8
:1002700004018091050190910601A0910701B091C0
:1002800008010196A11DB11D8093050190930601FF
:10029000A0930701B0930801BF91AF919F918F91F7
:1002A0003F912F910F900FBE0F901F90189526E849
:1002B000230F0296A11DB11DD2CF789484B5826020
:1002C00084BD84B5816084BD85B5826085BD85B5FA
:1002D000816085BD80916E00816080936E00109278
:1002E00081008091810082608093810080918100F3
:1002F0008160809381008091800081608093800084
:100300008091B10084608093B1008091B0008160E1
:100310008093B00080917A00846080937A0080910D
:100320007A00826080937A0080917A008160809365
:100330007A0080917A00806880937A001092C100E0
:10034000EDE9F0E02491E9E8F0E08491882399F068
:1003500090E0880F991FFC01E859FF4FA591B491D7
:10036000FC01EE58FF4F859194918FB7F894EC9172
:10037000E22BEC938FBFC0E0D0E081E00E947000E0
:100380000E94DD0080E00E9470000E94DD00209746
:10039000A1F30E940000F1CFF894FFCFFFFFFFFF11
:1003A000FFFFFFFFFFFFFFFFFFFFFFFFFFFFFFFF5D
:1003B000FFFFFFFFFFFFFFFFFFFFFFFFFFFFFFFF4D
:1003C000FFFFFFFFFFFFFFFFFFFFFFFFFFFFFFFF3D
:1003D000FFFFFFFFFFFFFFFFFFFFFFFFFFFFFFFF2D
:1003E000FFFFFFFFFFFFFFFFFFFFFFFFFFFFFFFF1D
:1003F000FFFFFFFFFFFFFFFFFFFFFFFFFFFFFFFF0D
:100400002C91848D90E001968F739927848FA68913
:10041000B7892C93A089B1898C91837080648C9367
:10042000938D848D981306C00288F389E02D808116
:100430008F7D80830895EF92FF920F931F93CF9348
:10044000DF93EC0181E0888F9B8D8C8D98131AC00F
:10045000E889F989808185FF15C09FB7F894EE89F6
:10046000FF896083E889F989808183708064808353
:100470009FBF81E090E0DF91CF911F910F91FF909E
:10048000EF900895F62E0B8D10E00F5F1F4F0F7346
:100490001127E02E8C8D8E110CC00FB607FCFACF01
:1004A000E889F989808185FFF5CFCE010E94F901A5
:1004B000F1CFEB8DEC0FFD2FF11DE35AFF4FF082D2
:1004C0009FB7F8940B8FEA89FB8980818062CFCF38
:1004D000682F85E492E00C941B02CF93DF93EC012C
:1004E000888D8823B9F0AA89BB89E889F9898C911C
:1004F00085FD03C0808186FD0DC00FB607FCF7CFD8
:100500008C9185FFF2CF808185FFEDCFCE010E94D7
:10051000F901E9CFDF91CF91089580913802909150
:1005200039020196909339028093380285E10C9448
:10053000680220912B0130912C018091360290911C
:1005400037022032310511F4807F089520343105BF
:1005500011F4807E08952038310511F4807C0895CF
:100560002115314009F48078089585E492E00E94D5
:10057000D901892BD1F385E492E00E94B701089557
:10058000CF93C82F0E94B502803251F484E10E94BB
:1005900068028C2F0E94680280E1CF910C9468025F
:1005A000809138029091390201969093390280939C
:1005B000380285E1F2CF0E94B502803231F484E145
:1005C0000E94680280E10C94680280913802909148
:1005D00039020196909339028093380285E1F3CF76
:1005E0000F931F93CF93DF938C01C3E3D1E0CE0130
:1005F000835391408017910724F40E94B502899398
:10060000F6CFDF91CF911F910F9108958EBD00001D
:100610000DB407FEFDCF8EB508951F93CF93DF93E2
:10062000162FD42FC22F0E940603812F0E9406038B
:100630008D2F0E9406038C2FDF91CF911F910C9478
:100640000603EF92FF920F931F93CF93DF93EC017A
:100650008B01CB010E94F00260E087E00E948700DE
:1006600083E3E82E81E0F82E0C0F1D1FC017D10781
:1006700081F0F70121917F014C2F6D2F80EC0E94BA
:100680000D036DE270E080E090E00E942901219668
:10069000EDCF61E087E00E94870080E1DF91CF919C
:1006A0001F910F91FF90EF900895CF93DF93D82F74
:1006B000C92F60E087E00E94870020E04D2F6C2F5B
:1006C0008CE40E940D036EE170E080E090E00E94F7
:1006D000290161E087E0DF91CF910C9487001F92A0
:1006E0000F920FB60F9211242F933F938F939F93E6
:1006F000AF93BF9380913D0290913E02A0913F0243
:10070000B091400230913C0223E0230F2D3758F581
:100710000196A11DB11D20933C0280933D02909350
:100720003E02A0933F02B09340028091410290911B
:100730004202A0914302B09144020196A11DB11D55
:100740008093410290934202A0934302B0934402EB
:10075000BF91AF919F918F913F912F910F900FBEBD
:100760000F901F90189526E8230F0296A11DB11D2A
:10077000D2CF1F920F920FB60F9211242F933F9357
:100780004F935F936F937F938F939F93AF93BF9399
:10079000EF93FF9385E492E00E94F901FF91EF91BE
:1007A000BF91AF919F918F917F916F915F914F9189
:1007B0003F912F910F900FBE0F901F9018951F9291
:1007C0000F920FB60F9211242F938F939F93EF9355
:1007D000FF93E0915502F09156028081E0915B0217
:1007E000F0915C0282FD1BC0908180915E028F5F60
:1007F0008F7320915F02821741F0E0915E02F0E07A
:10080000EB5BFD4F958F80935E02FF91EF919F917F
:100810008F912F910F900FBE0F901F901895808190
:10082000F4CF789484B5826084BD84B5816084BD42
:1008300085B5826085BD85B5816085BD80916E007E
:10084000816080936E0010928100809181008260AF
:1008500080938100809181008160809381008091EC
:1008600080008160809380008091B10084608093DB
:10087000B1008091B00081608093B00080917A00D7
:10088000846080937A0080917A00826080937A00FD
:1008900080917A00816080937A0080917A008068EC
:1008A00080937A001092C100E0915502F0915602B7
:1008B00082E08083E0915102F09152021082E09137
:1008C0005302F091540287E6808310925D02E0911A
:1008D0005902F0915A0286E08083E0915702F0912C
:1008E0005802808180618083E0915702F091580224
:1008F000808188608083E0915702F0915802808166
:1009000080688083E0915702F091580280818F7D4A
:10091000808361E087E00E94D30087E090E00E943E
:100920005B0161E088E00E94D30088E090E00E94D3
:100930005B0161E089E00E94D30089E090E00E94C1
:100940005B010BE8A02EBB24B39486E8282E80E040
:10095000382E9AE9492E90E0592E20E0622E20E0B0
:10096000722E88248394912C80913A0290913B02BC
:1009700061E0892B09F460E087E00E9487008091A4
:1009800038029091390261E0892B09F460E088E037
:100990000E9487002FB7F89480913D0290913E020B
:1009A000A0913F02B09140022FBF40911C01509195
:1009B0001D0160911E0170911F018C019D01041B9E
:1009C000150B260B370BB901A801483251056105FB
:1009D000710518F180931C0190931D01A0931E01D5
:1009E000B0931F01C091010180910001C13C20F032
:1009F00081958093000102C0C032D0F38091000144
:100A0000C80FC093010161E089E00E94D300C111C9
:100A10002BC060E089E00E94870085E492E00E949C
:100A2000D901892B09F458C20E94B502813509F415
:100A3000C5C208F0ECC0813409F476C108F05BC08F
:100A4000803309F458C1813309F45CC1803209F064
:100A500005C3809138029091390201969093390232
:100A60008093380285E12DC2CF3F11F461E0D2CFEF
:100A7000EDEAF0E08491833019F138F48130B1F07F
:100A80008230C9F0C7FDF2CFC4CF873021F1883062
:100A900051F18430B9F780918000806280938000AA
:100AA000D0E0D0938B00C0938A00B7CF84B5806824
:100AB00084BDC7BDB2CF84B5806284BDC8BDADCF93
:100AC00080918000806880938000D0E0D09389007E
:100AD000C0938800A2CF8091B00080688093B0005E
:100AE000C093B3009ACF8091B00080628093B00031
:100AF000C093B40092CF853409F42DC1803509F438
:100B00002FC1823409F0AAC284E190E00E94F00271
:100B100020913301209320018091340180932101A1
:100B200080913501809322018091360180932301C9
:100B300080913701809324018091380180932501B1
:100B4000809139018093260180913A018093270199
:100B500080913B018093280180913D0190E0982F86
:100B6000882730913E01830F911D90932A01809335
:100B7000290180913F0190E0982F88273091400112
:100B8000830F911D90932C0180932B018091410143
:100B900090E0982F882730914201830F911D909308
:100BA0002E0180932D018091430190E0B0E0A0E000
:100BB000BA2FA92F982F882730914401830F911DB8
:100BC000A11DB11DDC01992788274091450150E006
:100BD000542F4427052E000C660B770B840F951FAE
:100BE000A61FB71F30914601830F911DA11DB11D96
:100BF00080932F0190933001A0933101B093320183
:100C000081E0203E08F480E08093350278C0813690
:100C100009F422C1C0F4863509F4C1C1803609F453
:100C200019C1853509F01AC20E94B502C82F0E9469
:100C3000B50290E0982F88278C0F911D9093370272
:100C4000809336025CC0843709F452C1853709F4B9
:100C5000E4C1843609F002C20E94B502C82FD0E078
:100C6000DC2FCC270E94B502C80FD11D0E94B5020F
:100C7000863409F0F8C0CE010E94F0020E94B5024D
:100C8000803209F0E6CE84E10E9468020E94990257
:100C90006C0133E3E32E31E0F32EC701835391401F
:100CA0008C179D070CF0DBC00E9499028C159D05E6
:100CB00031F0C6010E9455030E9499026C01009117
:100CC000360210913702F7012081402F612F80E416
:100CD0000E940D03F7012181402F612F88E40E94BB
:100CE0000D030F5F1F4F1093370200933602F2E09F
:100CF000EF0EF11CD2CF10923902109238020E94EE
:100D0000DB02EAC00E94B502803209F0A2CE84E183
:100D10000E94680247E050E064E171E085E492E0FF
:100D20000E947B0180E1CDC00E94B502813879F03C
:100D300020F4803841F080E007C0823851F08339D8
:100D4000D1F783E501C082E00E94C002C5C081E006
:100D5000FBCF82E1F9CF85E090E00E94F002CFCF97
:100D600080913A0290913B02892B49F660913502BD
:100D70008AE00E94870061E08AE00E94D300CFB73A
:100D8000F89480913402811125C0F1018491F2011F
:100D90009491E82FF0E0EE0FFF1FE859FF4FA59167
:100DA000B4918C91982321F461E08AE00E9487003D
:100DB00061E08AE00E94D3008CB580618CBD8CB567
:100DC00080648CBD61E08DE00E94D30061E08BE027
:100DD0000E94D300809134028F5F80933402CFBF92
:100DE00080913302882351F08FB7F89490913302A9
:100DF000913021F49DB39DB39DBB8FBF83E58CBD26
:100E00001DBC60E08DE00E94870064E170E080E03E
:100E100090E00E942901C091350261E06C278AE0D0
:100E20000E948700C5010197F1F76C2F8AE00E94AC
:100E3000870062E370E080E090E00E94290120E0FA
:100E400040E063E58CEA0E940D0390923B028092A1
:100E50003A0255CF0E94B5020E94B50250CFC6019A
:100E60000E9455035FCF853409F097C080912D0112
:100E700090912E018C179D0790F0009136021091F1
:100E80003702000F111FC132D105F0F060E270E0AF
:100E9000C8010E942103005E1F4FA097F4CF8091EC
:100EA000380290913902019690933902809338026A
:100EB000C1E10E94B502803269F484E10E946802B7
:100EC0008C2F0E94680208C0BE01C8010E94210345
:100ED000C0E1EFCF0E948D026114710409F444CD8A
:100EE0000E94E501882309F43FCD0E9400003CCD1B
:100EF0000E94B502082F0E94B502D82F0E94B502A9
:100F0000C82F0E94B502803219F00E948D02E4CFF2
:100F100010E0102F00270D0F111D84E10E946802C0
:100F2000C63419F5F12CE12CE016F1060CF0FACEDE
:100F3000C0913602D091370220E04C2F6D2F80E215
:100F40000E940D030E94680220E04C2F6D2F88E262
:100F50000E940D030E9468022196D0933702C0932D
:100F6000360222E0E20EF11CDFCFC534B1F4C091AD
:100F70003602D0913702CC0FDD1F0C0F1D1F0C174E
:100F80001D0709F4CFCE2FEF4C2F6D2F80EA0E9462
:100F90000D030E9468022196F2CF81E192CF84E096
:100FA00090E00E94F002209136014091350160915D
:100FB0003401809133010E940D03C6CE1092390294
:100FC000109238029FB7F89480913402882319F068
:100FD00081508093340280913402811105C08CB518
:100FE0008F7B8CBD109233029FBF60E08BE00E942C
:100FF000D30060E08DE00E94D3006091350281E073
:1010000068278AE00E94870060E08AE00E94D3009F
:1010100010923B0210923A0272CE0E94B5028032C8
:1010200009F017CD84E10E94680220E040E060E012
:1010300080E30E940D030E94680220E041E060E02E
:1010400080E30E940D030E94680220E042E060E01D
:1010500080E30E940D030E94680264CE80913802F2
:1010600090913902019690933902809338020E9440
:10107000B502803209F0F6CC82E123CFE5E4F2E05C
:101080001382128288EE93E0A0E0B0E0848395831F
:10109000A683B78386E091E09183808385EC90E01E
:1010A0009587848784EC90E09787868780EC90E032
:1010B000918B808B81EC90E0938B828B82EC90E023
:1010C000958B848B86EC90E0978B868B118E128E9D
:1010D000138E148E0895EE0FFF1F0590F491E02DEE
:1010E0000994F894FFCF0880000000001B027B01E8
:1010F000A8016D02D901B701CB01415652204953D5
:101100005000FFFFFFFFFFFFFFFFFFFFFFFFFFFF9D
:10111000FFFFFFFFFFFFFFFFFFFFFFFFFFFFFFFFDF
:10112000FFFFFFFFFFFFFFFFFFFFFFFFFFFFFFFFCF
:10113000FFFFFFFFFFFFFFFFFFFFFFFFFFFFFFFFBF
:10114000FFFFFFFFFFFFFFFFFFFFFFFFFFFFFFFFAF
:107800000C94343C0C94513C0C94513C0C94513CE1
:107810000C94513C0C94513C0C94513C0C94513CB4
:107820000C94513C0C94513C0C94513C0C94513CA4
:107830000C94513C0C94513C0C94513C0C94513C94
:107840000C94513C0C94513C0C94513C0C94513C84
:107850000C94513C0C94513C0C94513C0C94513C74
:107860000C94513C0C94513C11241FBECFEFD8E036
:10787000DEBFCDBF11E0A0E0B1E0ECE9FFE702C060
:1078800005900D92A230B107D9F712E0A2E0B1E065
:1078900001C01D92AD30B107E1F70E942D3D0C945F
:1078A000CC3F0C94003C982F959595959595959582
:1078B000905D8F708A307CF0282F295A8091C0000B
:1078C00085FFFCCF9093C6008091C00085FFFCCF60
:1078D0002093C6000895282F205DF0CF982F809127
:1078E000C00085FFFCCF9093C6000895EF92FF92F1
:1078F0000F931F93EE24FF2487018091C00087FD22
:1079000017C00894E11CF11C011D111D81E4E8164B
:1079100082E4F8068FE0080780E0180770F3E09132
:107920000401F091050109958091C00087FFE9CF1E
:107930008091C6001F910F91FF90EF9008950E94D3
:10794000763C982F8091C00085FFFCCF9093C600B5
:1079500091362CF490330CF09053892F089597555D
:10796000892F08951F930E949F3C182F0E949F3CCF
:107970001295107F810F1F9108951F93182F882350
:1079800021F00E94763C1150E1F71F9108951F935A
:10799000182F0E94763C803249F0809103018F5F5E
:1079A000809303018530C1F01F9108958091C0003C
:1079B00085FFFCCF84E18093C6008091C00085FFE5
:1079C000FCCF1093C6008091C00085FFFCCF80E102
:1079D0008093C6001F910895E0910401F091050184
:1079E00009951F9108950E94763C803241F0809164
:1079F00003018F5F80930301853081F008958091AA
:107A0000C00085FFFCCF84E18093C6008091C00058
:107A100085FFFCCF80E18093C6000895E0910401CA
:107A2000F09105010995089540E951E08823A1F0FE
:107A30002D9A28EE33E0FA013197F1F721503040CA
:107A4000D1F72D9828EE33E0FA013197F1F7215064
:107A50003040D1F7815061F708953F924F925F9285
:107A60006F927F928F929F92AF92BF92CF92DF924E
:107A7000EF92FF920F931F93CF93DF93000080E16B
:107A80008093C4001092C50088E18093C10086E015
:107A90008093C2005098589A259A81E00E94143D24
:107AA00024E1F22E9EE1E92E85E9D82E0FE0C02ECA
:107AB00010E1B12EAA24A394B1E49B2EA6E58A2E50
:107AC000F2E57F2EE0E26E2E79E4572E63E5462E36
:107AD00050E5352E0E94763C8033B1F18133B9F107
:107AE000803409F46FC0813409F476C0823409F41B
:107AF00085C0853409F488C0803531F1823521F1A3
:107B0000813511F1853509F485C0863509F48DC0BC
:107B1000843609F496C0843709F403C1853709F423
:107B200072C1863709F466C0809103018F5F80932C
:107B30000301853079F6E0910401F0910501099582
:107B40000E94763C803351F60E94F33CC3CF0E94E2
:107B5000763C803249F78091C00085FFFCCFF092DF
:107B6000C6008091C00085FFFCCF9092C600809136
:107B7000C00085FFFCCF8092C6008091C00085FFC9
:107B8000FCCF7092C6008091C00085FFFCCF609250
:107B9000C6008091C00085FFFCCF5092C600809146
:107BA000C00085FFFCCF4092C6008091C00085FFD9
:107BB000FCCF3092C6008091C00085FFFCCFB09210
:107BC000C60088CF0E94763C863808F4BDCF0E945C
:107BD000763C0E94F33C7ECF0E94763C803809F4CC
:107BE0009CC0813809F40BC1823809F43CC1883942
:107BF00009F48FC080E00E94C73C6CCF84E10E94F2
:107C0000BD3C0E94F33C66CF85E00E94BD3C0E94D3
:107C1000F33C60CF0E94763C809306010E94763C44
:107C2000809307010E94F33C55CF0E94763C80333D
:107C300009F41DC183E00E94BD3C80E00E94C73C66
:107C400049CF0E94763C809309020E94763C809343
:107C5000080280910C028E7F80930C020E94763C79
:107C6000853409F415C18091080290910902892B8D
:107C700089F000E010E00E94763CF801E85FFE4FDA
:107C800080830F5F1F4F80910802909109020817AF
:107C9000190788F30E94763C803209F045CF809125
:107CA0000C0280FF01C16091060170910701660F0F
:107CB000771F7093070160930601A0910802B091AD
:107CC00009021097C9F0E8E0F1E09B01AD014E0F09
:107CD0005F1FF999FECF32BD21BD819180BDFA9A17
:107CE000F99A2F5F3F4FE417F50799F76A0F7B1F4B
:107CF00070930701609306018091C00085FFFCCF5F
:107D0000F092C6008091C00085FFFCCFB092C60003
:107D1000E1CE83E00E94C73CDDCE82E00E94C73CFA
:107D2000D9CE0E94763C809309020E94763C8093D3
:107D300008028091060190910701880F991F909386
:107D40000701809306010E94763C853409F4A6C0A1
:107D500080910C028E7F80930C020E94763C8032D0
:107D600009F0B8CE8091C00085FFFCCFF092C6002C
:107D7000609108027091090261157105B9F140E046
:107D800050E080910C02A82FA170B82FB27011C0E2
:107D9000BB2309F45CC0E0910601F0910701319624
:107DA000F0930701E09306014F5F5F4F46175707B7
:107DB000E8F4AA2369F3F999FECF209106013091E6
:107DC000070132BD21BDF89A90B58091C00085FFB2
:107DD000FCCF9093C6002F5F3F4F30930701209355
:107DE00006014F5F5F4F4617570718F38091C00099
:107DF00085FDE5CE8091C00085FFF8CFE0CE81E023
:107E00000E94C73C67CE0E94763C803209F08CCE3F
:107E10008091C00085FFFCCFF092C6008091C00029
:107E200085FFFCCFE092C6008091C00085FFFCCFAB
:107E3000D092C6008091C00085FFFCCFC092C600E2
:107E40008091C00085FFFCCFB092C60043CEE09188
:107E50000601F091070194918091C00085FFFCCF4D
:107E60009093C6009CCF80E10E94C73C33CE0E9415
:107E7000763C0E94763C182F0E94763C112309F430
:107E800083C0113009F484C08FE00E94C73C22CE29
:107E900080910C02816080930C02E5CE80910C02EF
:107EA000816080930C0259CF809107018823880F4D
:107EB000880B8A2180930B02809106019091070123
:107EC000880F991F90930701809306018091080203
:107ED00080FF09C080910802909109020196909359
:107EE000090280930802F894F999FECF1127E091D6
:107EF0000601F0910701C8E0D1E08091080290915D
:107F00000902103091F40091570001700130D9F34B
:107F100003E000935700E89500915700017001308D
:107F2000D9F301E100935700E89509901990009169
:107F3000570001700130D9F301E000935700E89534
:107F40001395103498F011270091570001700130FB
:107F5000D9F305E000935700E895009157000170B0
:107F60000130D9F301E100935700E895329602976A
:107F700009F0C7CF103011F00296E5CF112480919F
:107F8000C00085FFB9CEBCCE8EE10E94C73CA2CD19
:107F900085E90E94C73C9ECDF894FFCF8000FFFF8B
:00000001FF
