:100000000C945D000C9485000C9485000C94850084
:100010000C9485000C9485000C9485000C9485004C
:100020000C9485000C9485000C9485000C9485003C
:100030000C9485000C9485000C9485000C9485002C
:100040000C94A6020C9485000C9416030C94F002F8
:100050000C9485000C9485000C9485000C9485000C
:100060000C9485000C9485000000000024002700FB
:100070002A0000000000250028002B0004040404CE
:100080000404040402020202020203030303030342
:10009000010204081020408001020408102001021F
:1000A00004081020000000080002010000030407FB
:1000B00000000000000000005B0411241FBECFEF11
:1000C000D8E0DEBFCDBF21E0A2E2B1E001C01D92C9
:1000D000AC3CB207E1F711E0A0E0B1E0E2E7FDE0FF
:1000E00002C005900D92A232B107D9F710E0CDE51C
:1000F000D0E004C02197FE010E94BF04CC35D10797
:10010000C9F70E9448030C94B7060C940000E1EB79
:10011000F0E02491EDE9F0E09491E9E8F0E0E49179
:10012000EE23C9F0222339F0233001F1A8F4213065
:1001300019F1223029F1F0E0EE0FFF1FEE58FF4FCA
:10014000A591B4912FB7F894EC91811126C09095A8
:100150009E239C932FBF08952730A9F02830C9F023
:10016000243049F7209180002F7D03C0209180002A
:100170002F7720938000DFCF24B52F7724BDDBCFEE
:1001800024B52F7DFBCF2091B0002F772093B000B6
:10019000D2CF2091B0002F7DF9CF9E2BDACF3FB781
:1001A000F8948091230190912401A0912501B091B0
:1001B000260126B5A89B05C02F3F19F00196A11D69
:1001C000B11D3FBFBA2FA92F982F8827BC01CD01A1
:1001D000620F711D811D911D42E0660F771F881F00
:1001E000991F4A95D1F708958F929F92AF92BF922F
:1001F000CF92DF92EF92FF920E94CF004B015C0101
:1002000084E6C82ED12CE12CF12C0E94CF00681975
:1002100079098A099B09683E734081059105A8F315
:1002200021E0C21AD108E108F10888EE880E83E0C7
:10023000981EA11CB11CC114D104E104F10429F7DA
:10024000FF90EF90DF90CF90BF90AF909F908F90F6
:100250000895AF92BF92CF92DF92EF92FF920F93E9
:100260001F93CF93DF936C017B018B01040F151F4C
:10027000EB015E01AE18BF08C017D10759F06991B4
:10028000D601ED91FC910190F081E02DC601099518
:10029000892B79F7C501DF91CF911F910F91FF90C5
:1002A000EF90DF90CF90BF90AF900895FC01538DF9
:1002B000448D252F30E0842F90E0821B930B541740
:1002C00010F0CF96089501970895FC01918D828DCD
:1002D000981761F0A28DAE0FBF2FB11D5D968C9166
:1002E000928D9F5F9F73928F90E008958FEF9FEFA5
:1002F00008952FB7F8948091270190912801A0913B
:100300002901B0912A012FBF8093330190933401CA
:10031000A0933501B09336018BE291E00E94650114
:1003200097FF26C02FB7F89480912701909128015C
:10033000A0912901B0912A012FBF40913301509122
:1003400034016091350170913601841B950BA60B29
:10035000B70B40912F0150913001609131017091A4
:10036000320184179507A607B707B0F28FEF9FEF0A
:100370000895FC01918D828D981731F0828DE80FE0
:10038000F11D858D90E008958FEF9FEF0895FC019A
:10039000918D228D892F90E0805C9F4F821B910967
:1003A0008F73992708958BE291E00E94C70121E0A5
:1003B000892B09F420E0822F089580E090E0892BBA
:1003C00029F00E94D30181110C9400000895FC01D2
:1003D000A48DA80FB92FB11DA35ABF4F2C91848DA6
:1003E00090E001968F739927848FA689B7892C9303
:1003F000A089B1898C91837080648C93938D848D56
:10040000981306C00288F389E02D80818F7D808358
:100410000895EF92FF920F931F93CF93DF93EC0118
:1004200081E0888F9B8D8C8D98131AC0E889F9899B
:10043000808185FF15C09FB7F894EE89FF8960839E
:10044000E889F98980818370806480839FBF81E01F
:1004500090E0DF91CF911F910F91FF90EF90089561
:10046000F62E0B8D10E00F5F1F4F0F731127E02E3C
:100470008C8D8E110CC00FB607FCFACFE889F98974
:10048000808185FFF5CFCE010E94E701F1CFEB8D92
:10049000EC0FFD2FF11DE35AFF4FF0829FB7F89448
:1004A0000B8FEA89FB8980818062CFCFCF93DF9366
:1004B000EC01888D8823B9F0AA89BB89E889F9897C
:1004C0008C9185FD03C0808186FD0DC00FB607FCB1
:1004D000F7CF8C9185FFF2CF808185FFEDCFCE01E4
:1004E0000E94E701E9CFDF91CF91089542E050E00B
:1004F00068E171E08BE291E00C9429010F931F9366
:10050000CF93DF93EC0188819981009759F02A817C
:100510003B812617370730F081E0DF91CF911F91A3
:100520000F9108958B016F5F7F4F0E94EA0500973E
:1005300059F0998388831B830A832C813D81232B67
:1005400059F7FC011082E8CF80E0E7CF1F920F92AD
:100550000FB60F9211242F933F938F939F93AF93D6
:10056000BF938091270190912801A0912901B0911A
:100570002A013091220123E0230F2D3758F50196EF
:10058000A11DB11D20932201809327019093280182
:10059000A0932901B0932A01809123019091240115
:1005A000A0912501B09126010196A11DB11D809356
:1005B000230190932401A0932501B0932601BF91BC
:1005C000AF919F918F913F912F910F900FBE0F9000
:1005D0001F90189526E8230F0296A11DB11DD2CFBA
:1005E0001F920F920FB60F9211242F933F934F93A8
:1005F0005F936F937F938F939F93AF93BF93EF938B
:10060000FF938BE291E00E94E701FF91EF91BF9190
:10061000AF919F918F917F916F915F914F913F919A
:100620002F910F900FBE0F901F9018951F920F9251
:100630000FB60F9211242F938F939F93EF93FF93F5
:10064000E0913B01F0913C018081E0914101F0910A
:10065000420182FD1BC09081809144018F5F8F73A6
:1006600020914501821741F0E0914401F0E0E55D01
:10067000FE4F958F80934401FF91EF919F918F9151
:100680002F910F900FBE0F901F9018958081F4CF7F
:10069000CF93DF93CDB7DEB728970FB6F894DEBFC0
:1006A0000FBECDBF789484B5826084BD84B581606F
:1006B00084BD85B5826085BD85B5816085BD80912D
:1006C0006E00816080936E001092810080918100A5
:1006D000826080938100809181008160809381009D
:1006E000809180008160809380008091B10084605F
:1006F0008093B1008091B00081608093B0008091C0
:100700007A00846080937A0080917A00826080937E
:100710007A0080917A00816080937A0080917A00DB
:10072000806880937A001092C100EDE9F0E0249196
:10073000E9E8F0E08491882399F090E0880F991F10
:10074000FC01E859FF4FA591B491FC01EE58FF4F11
:10075000859194918FB7F894EC91E22BEC938FBF35
:10076000E0913B01F0913C0182E08083E091370110
:10077000F09138011082E0913901F0913A0180E165
:10078000808310924301E0913F01F091400186E0A7
:100790008083E0913D01F0913E0180818061808302
:1007A000E0913D01F0913E01808188608083E0917D
:1007B0003D01F0913E01808180688083E0913D01A0
:1007C000F0913E0180818F7D808345E050E06BE1B8
:1007D00071E08BE291E00E9429010E94760280E0A4
:1007E000E82E80E0F82E81E00E9487000E94F4004D
:1007F00080E00E9487000E94F4001A8219821C8205
:100800001B821E821D8270E060E0CE0101960E9474
:100810007E0229813A8181112CC02115310519F000
:10082000C9010E9461051A8219821E821D821C82E2
:100830001B820E9479014D815E8197FD22C08F83CA
:1008400018868A010F5F1F4FB801CE0101960E94E2
:100850007E02882371F329813A818D819E81BE01B8
:10086000695F7F4F820F931F0E94B0061E830D8326
:10087000E0CF1E821D826AE171E0C9010E94B006CC
:10088000D8CF69817A818BE291E00E9429010E9490
:10089000760289819A81009711F00E946105E11426
:1008A000F10409F4A0CF0E94D301882309F49BCF5F
:1008B0000E94000098CFEBE2F1E01382128288EEF2
:1008C00093E0A0E0B0E084839583A683B7838AE0B9
:1008D00091E09183808385EC90E09587848784EC18
:1008E00090E09787868780EC90E0918B808B81ECFD
:1008F00090E0938B828B82EC90E0958B848B86ECDE
:1009000090E0978B868B118E128E138E148E089525
:100910002F923F924F925F926F927F928F929F920F
:10092000AF92BF92CF92DF92EF92FF920F931F93FD
:10093000CF93DF93CDB7DEB7CA1BDB0B0FB6F894AE
:10094000DEBF0FBECDBF09942A88398848885F84EE
:100950006E847D848C849B84AA84B984C884DF805F
:10096000EE80FD800C811B81AA81B981CE0FD11D43
:100970000FB6F894DEBF0FBECDBFED010895EE0FA8
:10098000FF1F0590F491E02D09940F931F93CF93CF
:10099000DF938230910510F482E090E0E091CA018B
:1009A000F091CB0130E020E0B0E0A0E0309799F486
:1009B0002115310509F44AC0281B390B24303105B3
:1009C000D8F58A819B816115710589F1FB019383BB
:1009D0008283FE0111C04081518102811381481739
:1009E0005907E0F04817590799F4109761F01296EB
:1009F0000C93129713961C933296CF01DF91CF91EF
:100A00001F910F9108950093CA011093CB01F4CF69
:100A10002115310551F04217530738F0A901DB01C8
:100A20009A01BD01DF01F801C1CFEF01F9CF909329
:100A3000CB018093CA01CDCFFE01E20FF31F81935A
:100A400091932250310939832883D7CF2091C8014F
:100A50003091C901232B41F420910201309103010F
:100A60003093C9012093C801209100013091010108
:100A70002115310541F42DB73EB740910401509145
:100A80000501241B350BE091C801F091C901E21763
:100A9000F307A0F42E1B3F0B2817390778F0AC01A1
:100AA0004E5F5F4F2417350748F04E0F5F1F50937E
:100AB000C9014093C801819391939FCFF0E0E0E09A
:100AC0009CCFCF93DF930097E9F0FC01329713821C
:100AD0001282A091CA01B091CB01ED0130E020E07B
:100AE0001097A1F420813181820F931F2091C801BA
:100AF0003091C9012817390709F061C0F093C90185
:100B0000E093C801DF91CF910895EA01CE17DF0786
:100B1000E8F54A815B819E0141155105B1F7E90174
:100B2000FB83EA8349915991C40FD51FEC17FD0748
:100B300061F4808191810296840F951FE901998368
:100B40008883828193819B838A83F0E0E0E0129620
:100B50008D919C9113970097B9F52D913C91119728
:100B6000CD010296820F931F2091C8013091C901D7
:100B70002817390739F6309751F51092CB011092AA
:100B8000CA01B093C901A093C801BCCFD383C2836B
:100B900040815181840F951FC817D90761F44E5FBA
:100BA0005F4F88819981480F591F518340838A8103
:100BB0009B81938382832115310509F0B0CFF09397
:100BC000CB01E093CA019ECFFD01DC01C0CF1382AF
:100BD0001282D7CFB0E0A0E0E0EFF5E00C948A04F9
:100BE0008C01009751F4CB010E94C5048C01C8010F
:100BF000CDB7DEB7E0E10C94A604FC01E60FF71FC9
:100C00009C0122503109E217F30708F49DC0D90175
:100C1000CD91DC911197C617D70798F0C530D10553
:100C200030F3CE0104978617970708F3C61BD70B3E
:100C30002297C193D1936D937C93CF010E9461055C
:100C4000D6CF5B01AC1ABD0A4C018C0E9D1EA09143
:100C5000CA01B091CB01512C412CF12CE12C109701
:100C600031F58091C8019091C9018815990509F065
:100C70005CC04616570608F058C08091000190915C
:100C80000101009741F48DB79EB740910401509146
:100C90000501841B950BE817F90708F055C0F09380
:100CA000C901E093C801F90171836083A0CF8D91E0
:100CB0009C91119712966C90129713967C901397B3
:100CC000A815B90559F56C0142E0C40ED11CCA142F
:100CD000DB0420F1AC014A195B09DA011296159781
:100CE00080F06282738251834083D9016D937C933B
:100CF000E114F10471F0D7011396FC93EE9312976F
:100D000076CF22968C0F9D1FF90191838083F3018A
:100D1000EFCFF093CB01E093CA0169CF4816590693
:100D200008F42C017D01D3019ACFCB010E94C504A8
:100D30007C01009749F0AE01B8010E94A706C801E6
:100D40000E946105870153CF10E000E050CFFB0106
:100D5000DC0102C001900D9241505040D8F7089537
:100D6000FB01DC0101900D920020E1F70895F89459
:020D7000FFCFB3
:100D72000000CC0180000000000009022901560198
:100D82005602C7016501B9010D0A005374617274FC
:020D920000005F
:00000001FF
