:100000000C943E020C9466020C9466020C946602F8
:100010000C9466020C9466020C9466020C94CD0457
:100020000C9466020C9466020C9466020C946602B0
:100030000C9466020C9466020C9466020C946602A0
:100040000C94B0050C9466020C9440040C941A04B1
:100050000C9466020C9466020C9466020C94660280
:100060000C9466020C946602A10BD60FA70BF30D3D
:10007000030CD60FD60FD70DD60FB70ED60FB70E6F
:1000800030313233343536373839414243444546CE
:100090004748494A4B4C4D4E4F5051525354555678
:1000A0005758595A6162636465666768696A6B6C20
:1000B0006D6E6F707172737475767778797A2021AE
:1000C0003F232425262A2B2D2F7E5E5F403C3E3D7C
:1000D00028295B5D7B7D2C2E3A3B27605C7C0000F1
:1000E000000000240027002A00000000002500284E
:1000F000002B000200000000230026002900040459
:1001000004040404040402020202020203030303BF
:10011000030301020408102040800102040810209B
:100120000102040810200000000800020100000382
:100130000407000000000000000038444C546444F0
:100140003800103010101010380038440408102007
:100150007C007C08100804443800081828487C08F3
:1001600008007C4078040444380018204078444457
:1001700038007C44040810101000384444384444CB
:1001800038003844443C04083000384444447C443B
:100190004400784444784444780038444040404423
:1001A000380070484444444870007C4040784040E7
:1001B0007C007C404078404040003844405C4444EF
:1001C0003C004444447C4444440038101010101057
:1001D00038001C080808084830004448506050485F
:1001E00044004040404040407C00446C54544444EF
:1001F0004400444464544C4444003844444444441B
:1002000038007844447840404000384444445448DE
:10021000340078444478504844003C40403804045A
:1002200078007C10101010101000444444444444E2
:100230003800444444444428100044444454545432
:100240002800444428102844440044444428101002
:1002500010007C04081020407C00000038043C445E
:100260003C00404058644444780000003844404416
:1002700038000404344C44443C00000038447C40C2
:1002800038001824207020202000003C44443C0406
:1002900038004040586444444400100010101010CE
:1002A000380004000C0404241800202024283028DE
:1002B000240030101010101038000000685454440E
:1002C000440000005864444444000000384444445E
:1002D000380000007844784040000000344C3C0472
:1002E00004000000586440404000000038403804DA
:1002F0007800202070202024180000004444444C42
:100300003400000044444428100000004454545475
:1003100028000000442810284400000044443C0405
:10032000380000007C0810207C0000000000000065
:1003300000001018181800001800384404081000B5
:10034000100028287C287C282800103C503814787D
:10035000100060640810204C0C00304850205448B5
:10036000340000105438541000000010107C10109D
:1003700000000000007C0000000000040810204085
:100380000000000000344800000010284400000075
:1003900000000000000000007C0038440434545485
:1003A00038000810204020100800402010081020BD
:1003B000400000007C007C000000204080808040E5
:1003C000200004020101010204007040404040404E
:1003D00070000E02020202020E00102020402020B7
:1003E00010000402020102020400000000001808CC
:1003F000100000000000001818000018180018185D
:10040000000000181800180810001808100000005C
:100410000000003008040000000000402010080424
:10042000020010101010101010000044EEFE7C3876
:1004300010000044AA9244281000001038541010F4
:10044000100000101010543810000010207E2010F2
:1004500000000008047E0408000000003C3C3C3C16
:1004600000000010387C3810000000387C7C7C389C
:10047000000000104428922844104E0A11241FBE88
:10048000CFEFD8E0DEBFCDBF22E0A2E3B1E001C0F4
:100490001D92AB3AB207E1F711E0A0E0B1E0E4E36E
:1004A000F9E202C005900D92A233B107D9F712E02C
:1004B000CEE3D2E004C02197FE010E941B13CD338E
:1004C000D107C9F70E947B0A0C9498140C94000081
:1004D000CF92DF92EF92FF920F931F93CF93DF9310
:1004E0006C017A018B01C0E0D0E0CE15DF0589F008
:1004F000D8016D918D01D601ED91FC910190F081B3
:10050000E02DC6010995892B11F47E0102C02196C8
:10051000ECCFC701DF91CF911F910F91FF90EF902A
:10052000DF90CF900895089580E090E00895FC0159
:10053000538D448D252F30E0842F90E0821B930B48
:10054000541710F0CF96089501970895FC01918DEE
:10055000828D981761F0828DDF01A80FB11D5D9625
:100560008C91928D9F5F9F73928F90E008958FEF93
:100570009FEF0895FC01918D828D981731F0828D47
:10058000E80FF11D858D90E008958FEF9FEF08959E
:10059000FC01918D228D892F90E0805C9F4F821B02
:1005A00091098F73992708958EEB91E00E94C802FC
:1005B00021E0892B09F420E0822F0895FC01848D2D
:1005C000DF01A80FB11DA35ABF4F2C91848D90E07D
:1005D00001968F739927848FA689B7892C93A08958
:1005E000B1898C9180648C93938D848D981306C00F
:1005F0000288F389E02D80818F7D80830895EF92BA
:10060000FF920F931F93CF93DF93EC0181E0888FCC
:100610009B8D8C8D981305C0E889F989808185FDB3
:1006200024C0F62E0B8D10E00F5F1F4F0F731127A4
:10063000E02E8C8DE8120CC00FB607FCFACFE889CB
:10064000F989808185FFF5CFCE010E94DE02F1CFCE
:100650008B8DFE01E80FF11DE35AFF4FF0820B8FE7
:10066000EA89FB898081806207C0EE89FF89608307
:10067000E889F98980818064808381E090E0DF915E
:10068000CF911F910F91FF90EF900895CF93DF933B
:10069000EC01888D8823C9F0EA89FB89808185FD7A
:1006A00005C0A889B9898C9186FD0FC00FB607FCDB
:1006B000F5CF808185FFF2CFA889B9898C9185FF1C
:1006C000EDCFCE010E94DE02E7CFDF91CF910895FA
:1006D00080E090E0892B29F00E94D40281110C94D3
:1006E00000000895833081F028F4813099F0823041
:1006F000A1F008958730A9F08830B9F08430D1F4A2
:10070000809180008F7D03C0809180008F778093DF
:100710008000089584B58F7702C084B58F7D84BD35
:1007200008958091B0008F7703C08091B0008F7DD5
:100730008093B00008953FB7F8948091470190915D
:100740004801A0914901B0914A0126B5A89B05C076
:100750002F3F19F00196A11DB11D3FBFBA2FA92F40
:10076000982F8827820F911DA11DB11DBC01CD01BD
:1007700042E0660F771F881F991F4A95D1F70895A9
:10078000E4E6F1E0DC01A659BE4F8C91808311961E
:100790008C91818380916401909165010895682F07
:1007A0008EEB91E00C94FF028FEF0E94CF0385E562
:1007B0000E94CF0342E050E065E271E08EEB91E0F1
:1007C0000C946802CF92DF92FF920F931F93CF9306
:1007D000DF931F92CDB7DEB7162FF72E082F82E0DA
:1007E00099830E94CF0382E4C82E81E0D82E412F46
:1007F0005F2D602F9981792FF601408351836283A9
:100800007383812F0E94CF03F60181810E94CF0361
:10081000F60182810E94CF03F60183810F90DF9160
:10082000CF911F910F91FF90DF90CF900C94CF0349
:100830000E9471141F920F920FB60F9211242F93E2
:100840003F934F935F936F937F938F939F93AF9358
:10085000BF93EF93FF938EEB91E00E94DE02FF9136
:10086000EF91BF91AF919F918F917F916F915F9128
:100870004F913F912F910F900FBE0F901F901895A1
:100880001F920F920FB60F9211242F938F939F9365
:10089000EF93FF93E091CE01F091CF018081E09141
:1008A000D401F091D50182FD12C090818091D701D1
:1008B0008F5F8F732091D801821751F0E091D7019B
:1008C000F0E0E254FE4F958F8093D70101C0808104
:1008D000FF91EF919F918F912F910F900FBE0F90ED
:1008E0001F9018951F93CF93DF93282F30E0F901C5
:1008F000EA5DFE4F8491F901EE5EFE4FD491F9015D
:10090000E250FF4FC491CC23C9F0162F81110E94F1
:100910007203EC2FF0E0EE0FFF1FE751FF4FA591A0
:10092000B4918FB7F894111105C09C91ED2FE0950B
:10093000E92302C0EC91ED2BEC938FBFDF91CF91B7
:100940001F91089590910001981324C0E3EFF0E007
:10095000E4919FEF90930001E130B9F098F0E2301C
:10096000C9F4909170009D7F9093700091E09093F6
:10097000B0009091B100987F94609093B100109274
:10098000B30008C010926E0005C090916F009D7F6B
:1009900090936F0060E00C9472041F920F920FB658
:1009A0000F9211242F933F934F935F936F937F93F5
:1009B0008F939F93AF93BF93EF93FF9380915401D5
:1009C00090915501A0915601B0915701892B8A2B26
:1009D0008B2B51F180914B01E0914C01F0914D0135
:1009E0009081892780838091540190915501A09135
:1009F0005601B0915701181619061A061B06C4F4C1
:100A00008091540190915501A0915601B0915701E8
:100A10000197A109B1098093540190935501A093C6
:100A20005601B093570104C0809100010E94A204B6
:100A3000FF91EF91BF91AF919F918F917F916F91B6
:100A40005F914F913F912F910F900FBE0F901F908C
:100A50001895CF93DF9390E0FC01EE5EFE4F24915A
:100A6000FC01E250FF4F8491882361F190E0880FF0
:100A7000991FFC01E152FF4FC591D491FC01E75150
:100A8000FF4FA591B491611109C09FB7F894888177
:100A9000209582238883EC912E230BC0623061F471
:100AA0009FB7F8943881822F809583238883EC91B7
:100AB0002E2B2C939FBF06C08FB7F894E8812E2B66
:100AC00028838FBFDF91CF910895FC01EE0FFF1FA8
:100AD000EE55FE4F20813181232B39F421E030E0A7
:100AE0003183208361E00C94290508958F929F92B1
:100AF000AF92BF92CF92DF92EF92FF926B017C0197
:100B00000E949B034B015C01C114D104E104F10478
:100B1000F1F00E949B03DC01CB0188199909AA0915
:100B2000BB09883E9340A105B10570F321E0C21ACC
:100B3000D108E108F10888EE880E83E0981EA11C18
:100B4000B11CC114D104E104F10419F7DDCFFF9009
:100B5000EF90DF90CF90BF90AF909F908F900895CF
:100B60001F920F920FB60F9211242F933F938F93E2
:100B70009F93AF93BF938091600190916101A09189
:100B80006201B09163013091460123E0230F2D37BC
:100B900020F40196A11DB11D05C026E8230F029681
:100BA000A11DB11D209346018093600190936101C6
:100BB000A0936201B0936301809147019091480135
:100BC000A0914901B0914A010196A11DB11D8093E8
:100BD000470190934801A0934901B0934A01BF9106
:100BE000AF919F918F913F912F910F900FBE0F90DA
:100BF0001F90189590ED980F9A3028F4082E000C4D
:100C0000990BC09708959FEB980F9A3128F4082EFE
:100C1000000C990BC79708959FE9980F9A3180F0BF
:100C20002EE330E0F901E058FF4FE4918E1769F0B0
:100C30002F5F3F4F2E353105A9F78FEF9FEF0895B6
:100C4000082E000C990BCD970895C9010895AF9215
:100C5000BF92CF92DF92EF92FF920F931F93CF93A9
:100C6000DF9300D0CDB7DEB769834A83880F991F21
:100C70000091A5021091A602000F111FE2E3F1E01E
:100C80009F01225331402017310714F41192F8CFFD
:100C90002981FC01EE5CFE4F21838A81808360E024
:100CA00080919F020E9472040E5C1E4FC801825305
:100CB00091401816190624F5F801C2908F01B090E2
:100CC000A102A090A30287E0E82EF12CD12CB6015E
:100CD0000E2C02C0759567950A94E2F7617077272C
:100CE0008A2D0E94720461E08B2D0E94720460E0E4
:100CF0008B2D0E947204F1E0EF1AF10840F7D6CF75
:100D000061E080919F020F900F90DF91CF911F9132
:100D10000F91FF90EF90DF90CF90BF90AF900C9429
:100D20007204EF92FF920F931F93CF93DF9397FD7F
:100D300021C02091A5023091A60282179307D4F416
:100D4000EC017C0183E0EE0CFF1C8A95E1F700E0EA
:100D500010E0F801EE0DFF1DE15AFD4F108261E039
:100D6000600F40E0CE010E9427060F5F1F4F083042
:100D7000110579F7DF91CF911F910F91FF90EF90BF
:100D8000089597FD0EC02091A5023091A60282170A
:100D900093073CF46031710520F4462F6AE00C940F
:100DA0002706089597FD0BC02091A5023091A60259
:100DB0008217930724F441E06CE00C942706089511
:100DC00083E090E09093A4028093A30284E090E0FB
:100DD0009093A2028093A10282E090E09093A002FF
:100DE00080939F0281E090E09093A6028093A502F9
:100DF00061E083E00E94290561E084E00E9429050A
:100E000061E082E00E94290561E082E00E947204B4
:100E1000EFE5F2E0119282E0EF39F807D9F740E010
:100E20006FE080E090E00E94270647E06BE080E002
:100E300090E00E94270640E069E080E090E00E9498
:100E4000270680E090E00E94910680E090E00E94FA
:100E5000D2066AE070E080E090E00E94C10686E47D
:100E600090E090935E0280935D0281E090E0909329
:100E70005C0280935B026AE070E080E090E00C949A
:100E8000C1062091A5023091A6021216130604F5A0
:100E900088309105E8F468307105D0F420E830E03E
:100EA00002C0359527956A95E2F7FC01E15AFD4F9E
:100EB000442319F03081232B03C020953081232354
:100EC000208361E0680F408180E090E00C94270669
:100ED0000895CF92DF92EF92FF920F931F93CF93DB
:100EE000DF932091A5023091A60212161306ECF4AE
:100EF00088309105D0F4062F7C01C0E0D0E010E0EE
:100F000087E0C82ED12CC6018C1B9D0BA80102C006
:100F1000559547958A95E2F74170B701CE010E9439
:100F200041072196C830D10571F7DF91CF911F910C
:100F30000F91FF90EF90DF90CF900895462F209172
:100F4000A5023091A602121613066CF488309105A2
:100F500050F4FC01E15AFD4F608361E0680F80E0CE
:100F600090E00C94270608950F931F93CF93DF937F
:100F70008C0183E0000F111F8A95E1F7C0E0D0E0FB
:100F8000FE01E00FF11FE65CFE4F6491CE010E946E
:100F90009E072196C830D10599F7DF91CF911F9117
:100FA0000F910895CF93DF93EC018991882369F025
:100FB0000E94FA0597FDF9CF0E94B4076CE870E033
:100FC00080E090E00E947605F0CFDF91CF91089508
:100FD0002F923F924F925F926F927F928F929F9249
:100FE000AF92BF92CF92DF92EF92FF920F931F9337
:100FF000CF93DF93CDB7DEB7CC54D1090FB6F894B9
:10100000DEBF0FBECDBF7B0129965FAF4EAF2997E4
:101010006530710520F0E0905B02F0905C02E11415
:10102000F10419F40E94D20717C2BC01AE014F5F50
:101030005F4F4A01CA010E9491146FE271E0C4013E
:101040000E948614F40101900020E9F73197E81915
:10105000F9099F012150310921963FAF2EAF219709
:10106000121613060CF0F8C1AF0133E0440F551F00
:101070003A95E1F723965FAF4EAF239761E070E0BA
:10108000CA010E9428138C011C015C019EAE8DAE2A
:1010900047E0C42ED12C3E0153E3650E711CBE0106
:1010A000655C7F4F7CAF6BAFEDADFEAD8191FEAF68
:1010B000EDAF0E94FA0597FF02C08EE390E02C018D
:1010C00023E0440C551C2A95E1F7F1E0EF16F104FA
:1010D00009F056C0F30128E011922A95E9F780E063
:1010E00090E0FC01E40DF51DE65CFE4FE491D301B8
:1010F000A30120E030E06E2F70E02D967FAF6EAF41
:101100002D97F601E81BF90B2B96FFAFEEAF2B974F
:10111000F601E21BF30B2D966EAD7FAD2D9702C04D
:1011200075956795EA95E2F7762F717024967FAFF3
:10113000249725961FAE259725966EAD7FAD2597F2
:101140002A960FAC2A9702C0660F771F0A94E2F71F
:10115000FA017081672B6193AF012F5F3F4F2830F9
:101160003105B1F601968830910509F0BACFF50145
:101170008D9181932BAD3CADA217B307C9F771C018
:1011800033E0E316F10409F04EC0F30128E01192B8
:101190002A95E9F780E090E0FC01E40DF51DE65C9E
:1011A000FE4FE491D30120E030E0F0E0B601681B8F
:1011B000790BA601421B530B2B965FAF4EAF2B97BB
:1011C000AF012A960FAC2A9702C0559547950A940D
:1011D000E2F72B965FAF4EAF2B97417026964FAF3D
:1011E000269727961FAE279727964EAD5FAD279778
:1011F000062E01C0440F0A94EAF75C91452B4D93EB
:101200002F5F3F4F28303105A1F6019688309105B8
:1012100009F0C2CFFE01FB96D50182918D93E615B0
:10122000F705D9F71EC0D50152E0E516F10471F4B7
:1012300080E090E0FC01E40DF51DE65CFE4FE491DA
:10124000ED93019688309105A9F70BC087E090E0F7
:10125000FC01E40DF51DE65CFE4FE491ED93019772
:10126000B8F778E0A70EB11C8DAD9EAD881999092D
:1012700021962EAD3FAD2197821793070CF414CF22
:1012800023964EAD5FAD2397485051096A012996C8
:101290002EAD3FAD2997232B41F431E0E316F10445
:1012A00009F075C0A12CB12C53C0A12CB12C40E089
:1012B00050E0AC14BD0489F3B1018FEF281A380A4D
:1012C000FB018081811103C04F5F5F4F22C0493015
:1012D000510514F04850510942305105C4F04A01FB
:1012E00081E0881A9108C50188199909A6014A194F
:1012F0005B09800F911F0E947614C6018819990915
:10130000A40160E070E0800F911F0E947F1440E014
:1013100050E0FFEFAF1ABF0ACCCF48018A0C9B1CEC
:10132000E12CF12CF40161914F01C7010E94690782
:10133000FFEFEF1AFF0A28E0E216F10499F766E4DE
:1013400070E080E090E00E9476053FEFA31AB30AB8
:10135000AC14BD0411F7C801C45BDF4F0FB6F8949D
:10136000DEBF0FBECDBFDF91CF911F910F91FF90D8
:10137000EF90DF90CF90BF90AF909F908F907F9035
:101380006F905F904F903F902F900C94D913A12CA9
:10139000B12C43E0E416F104E9F4AC14BD04D9F235
:1013A00048018A0C9B1C97E0E92EF12CF401619115
:1013B0004F01C7010E946907F1E0EF1AF108B0F789
:1013C00066E470E080E090E00E9476053FEFA31AAB
:1013D000B30AE3CF42E0E416F10499F5AC14BD047E
:1013E00009F4B9CF48018A0C9B1CE12CF12CF401C3
:1013F00061914F01C7010E949E07FFEFEF1AFF0A9C
:1014000028E0E216F10499F766E470E080E090E0ED
:101410000E9476053FEFA31AB30AE0CFF401619171
:101420004F01C7010E949E07F1E0EF1AF108B0F7E3
:1014300066E470E080E090E00E9476053FEFA31A3A
:10144000B30ACA14DB040CF486CF48018A0C9B1C37
:1014500087E0E82EF12CE2CFC45BDF4F0FB6F894A3
:10146000DEBF0FBECDBFDF91CF911F910F91FF90D7
:10147000EF90DF90CF90BF90AF909F908F907F9034
:101480006F905F904F903F902F90089542E050E012
:1014900065E271E08EEB91E00C946802EEEBF1E016
:1014A0001382128288EE93E0A0E0B0E084839583FB
:1014B000A683B7838BE091E09183808385EC90E0F5
:1014C0009587848784EC90E09787868780EC90E00E
:1014D000918B808B81EC90E0938B828B82EC90E0FF
:1014E000958B848B86EC90E0978B868B118E128E79
:1014F000138E148E0895CF93DF93CDB7DEB7AC97DC
:101500000FB6F894DEBF0FBECDBF789484B582606D
:1015100084BD84B5816084BD85B5826085BD85B597
:10152000816085BD80916E00816080936E00109215
:101530008100809181008260809381008091810090
:101540008160809381008091800081608093800021
:101550008091B10084608093B1008091B00081607F
:101560008093B00080917A00846080937A008091AB
:101570007A00826080937A0080917A008160809303
:101580007A0080917A00806880937A001092C1007E
:10159000E091CE01F091CF0182E08083E091CA0119
:1015A000F091CB011082E091CC01F091CD0180E16E
:1015B00080831092D601E091D201F091D30186E0B0
:1015C0008083E091D001F091D1018081806180839E
:1015D000E091D001F091D101808188608083E09119
:1015E000D001F091D101808180688083E091D001A9
:1015F000F091D10180818F7D808314E061E0812FA3
:101600000E94290560E0812F0E9472041F5F1E3036
:10161000A9F70E94E00680E090E00E94D2066AE00E
:1016200070E080E090E00E94C10680E090E00E94BF
:10163000910661E082E00E94720441E050E061E0C6
:1016400070E088E291E00E94E8071E0121E2220E8C
:10165000311C8EEB91E00E94C802892B09F4ABC4C7
:101660008EEB91E00E94C8021816190694F78EEBD3
:1016700091E00E94A6029091A101853561F491113B
:101680000AC08091A0018F3FE1F481E080939F0127
:101690008093A10116C08093A001992391F0E0915D
:1016A0009F01E23019F480939E0107C0E33028F0D7
:1016B00090919E01915090939E01F0E0E659FE4F6B
:1016C000808380919F018F5F843318F480939F0102
:1016D00004C010929F011092A1018091A101882362
:1016E00009F4B7CF80919E018111B3CF80919F0102
:1016F000843008F4AECF1092A101E0916F01D09038
:1017000070010D2D10E080916E01823071F08330F8
:1017100009F424C4813009F04BC4F801EE0FFF1F17
:10172000EE55FE4F1182108243C48E2F90E0FC01D3
:101730003197EC30F10508F039C4EC5CFF4F0C94A4
:101740001B13C8010E9465056091710156C0C80154
:101750000E946505C0907101EC2CF12C61E08D2D8B
:101760000E942905CC2009F447C04FEFC41609F4A4
:1017700048C0F801EA5DFE4FE491E330F9F048F427
:10178000E130B9F0E230A1F584B5806284BDC8BC17
:101790000DC4E730E9F0E83019F1E43049F5809103
:1017A0008000806280938000F0928B00E0928A003B
:1017B000FDC384B5806884BDC7BCF8C38091800038
:1017C000806880938000F0928900E0928800EEC3E8
:1017D0008091B00080688093B000C092B300E6C3EF
:1017E0008091B00080628093B000C092B400DEC3EC
:1017F00080E8E816F1042CF460E08D2D0E9472045C
:10180000D5C361E0FACFC8010E94650587E090E08A
:101810000E94C0039AA789A789E090E00E94C003B4
:101820009CA78BA7181619060CF0BDC1809100016A
:101830008D1104C0E3EFF0E014917CC08F3F09F0FC
:10184000B5C3D0920001E3EFF0E0E491EF3F09F47B
:10185000ADC3E13021F1E23009F446C0E11169C0C5
:1018600014BC15BC84B5826084BD85B5816085BD1E
:10187000F801E250FF4FE491F0E0EE0FFF1FE75157
:10188000FF4F859194919093530180935201F801F9
:10189000EE5EFE4FE491E093510110E04DC01092D6
:1018A0008000109281008091810088608093810087
:1018B00080918100816080938100F801E250FF4FA8
:1018C000E491F0E0EE0FFF1FE751FF4F85919491F7
:1018D0009093500180934F01F801EE5EFE4FE4912A
:1018E000E0934E0111E028C01092B0001092B100B8
:1018F0008091B00082608093B0008091B1008160DF
:101900008093B100F801E250FF4FE491F0E0EE0F58
:10191000FF1FE751FF4F8591949190934D01809364
:101920004C01F801EE5EFE4FE491E0934B0112E0B2
:1019300003C01E2F17FD3AC361E08D2D0E942905BB
:10194000E9A5FAA52F01612C712C812F8D7F09F05B
:10195000B6C060E072E18AE790E0A30192010E94C4
:10196000FC1249015A0169017A01F1E0CF1AD1084C
:10197000E108F1082FEFC216D104E104F10409F0E7
:1019800008F44BC060E472E48FE090E0A3019201A0
:101990000E94FC1269017A0181E0C81AD108E108AD
:1019A000F108123001F59FEFC916D104E104F104EA
:1019B00009F008F4F3C360E970ED83E090E0A3015F
:1019C00092010E94FC1269017A01E1E0CE1AD1086D
:1019D000E108F108FFEFCF16D104E104F10409F0AA
:1019E000C0F583E065C02FEFC216D104E104F10415
:1019F000B1F0A8F068E478EE81E090E0A3019201F4
:101A00000E94FC1269017A0181E0C81AD108E1083C
:101A1000F108112309F46AC3B8C381E001C082E070
:101A2000111146C011C0D501C4012AE0B595A79592
:101A3000979587952A95D1F76C017D01F1E0CF1A32
:101A4000D108E108F10885E095B5987F892B85BD1F
:101A500065C068E478EE81E090E0A30192010E9405
:101A6000FC1269017A0181E0C81AD108E108F10885
:101A70009FEFC916D104E104F10409F008F434C35E
:101A800064E274EF80E090E0A30192010E94FC12F6
:101A900069017A0191E0C91AD108E108F108EFEF74
:101AA000CE16D104E104F10411F008F041C385E041
:101AB0009091B100987F892B8093B1002FC060E096
:101AC00072E18AE790E0A30192010E94FC12690191
:101AD0007A0181E0C81AD108E108F108C114D104E3
:101AE00091E0E906F10488F068E478EE81E090E0A6
:101AF000A30192010E94FC1269017A01E1E0CE1A71
:101B0000D108E108F10893E001C091E0113031F40F
:101B100080918100887F892B8093810029A53AA537
:101B2000220F331FABA5BCA50E94211328EE33E082
:101B300040E050E00E94DA12113099F0123019F1B1
:101B4000111134C2C7BC20935C0130935D014093F6
:101B50005E0150935F0180916E00826080936E0001
:101B600025C2D0928900C0928800209358013093FA
:101B7000590140935A0150935B0180916F0082603C
:101B800080936F0013C2C092B3002093540130932E
:101B90005501409356015093570180917000826027
:101BA0008093700003C28D2D0E94A204FFC12FB745
:101BB000F89460916001709161018091620190914F
:101BC00063012FBF0E94D01020E030E04AE754E4C8
:101BD0000E94F11160936601709367018093680120
:101BE00090936901E3C180917101E82EF12C882363
:101BF00009F4DCC1F1E0DF120CC089E090E00E9442
:101C0000650561E089E00E94720460E070E0CB014C
:101C1000A2C122E0D21207C089E090E00E946505CF
:101C200060E089E0EBCD61E083E00E94290561E09E
:101C300084E00E94290561E082E00E94290561E0BC
:101C400082E00E9472040330110509F4ABC1043034
:101C5000110561F400E010E06FEFC8010E949E07DB
:101C60000F5F1F4F08301105B9F7A0C105301105EE
:101C700011F5B70161507109072E000C880B990B03
:101C80000E94D21020E030E048EC52E40E94F111B2
:101C900020E030E040E751E40E940D110E94DA118B
:101CA0000E9463126031710508F080C180E090E00D
:101CB0000E94C1067BC106301105A9F441E0E41A77
:101CC000F1088091A5029091A602181619060CF051
:101CD0006DC185E0E816F1040CF068C1F0925C0279
:101CE000E0925B0263C10730110591F5B7016150C5
:101CF00071098091A5029091A602181619060CF0A0
:101D000055C16536710514F064E670E077FF02C0D6
:101D100060E070E0072E000C880B990B0E94D21037
:101D200020E030E048EC52E40E94F11120E030E085
:101D300040E752E40E940D110E94631228E730E050
:101D4000C901861B970B90935E0280935D022EC1A2
:101D50000830110509F02AC19BE0E916F1040CF0E6
:101D600025C1C701835A9F4F0E94B4071FC1FE01BE
:101D7000319687E090E0DC01A659BE4F2C9121936B
:101D8000029689329105B9F78981882309F40EC139
:101D900061E083E00E94290561E084E00E9429055A
:101DA00061E082E00E94290561E082E00E94720405
:101DB000E3E0DE1216C08981882309F4F7C041E010
:101DC0009B81911101C040E06A81062E000C770BC7
:101DD00061507109082E000C990B01970E94410770
:101DE000E5C0F4E0DF122AC08981882309F4DEC04F
:101DF000082E000C990B01978830910508F0D6C089
:101E0000FE01329627E030E060E04191C12CD12CF8
:101E10007601C394022E04C0CC0CDD1CEE1CFF1C0A
:101E20000A94D2F7403319F4C0946C2101C06C2994
:101E30002150310950F70E949E072CC00530110532
:101E400071F58981882309F4B1C0082E000C990B23
:101E500001978830910508F0A9C0FE01329627E06D
:101E600030E060E04191C12CD12C7601C394022E68
:101E700004C0CC0CDD1CEE1CFF1C0A94D2F74033CE
:101E800019F4C0946C2101C06C292150310950F71C
:101E90000E94690761E070E080E090E05CC0C801EA
:101EA000069786309105C0F42981222309F47EC06B
:101EB000BC01853091053CF4892B39F4CE010196A3
:101EC0000E94D20744C06FEF7FEF40E050E0CE01A8
:101ED00001960E94E8073BC00C30110549F4898146
:101EE000882309F463C00E94FA050E94B4072FC03A
:101EF0000D30110509F05AC087E090E00E94C00340
:101F0000181619060CF052C088E0F10111928A955A
:101F1000E9F77101610109E010E0C8010E94C00306
:101F20000E5F1F4F80916401F60181936F010931AB
:101F3000110599F700E010E0F70161917F01C801F8
:101F40000E949E070F5F1F4F08301105A9F76AE036
:101F500070E080E090E00E94760528C080917101D9
:101F6000882331F160E089E00E94720460E08AE039
:101F70000E94720460E08BE00E94720460E08CE0DA
:101F80000E94720460E08DE00E9472040E94E006EC
:101F900080E090E00E94D2066AE070E080E090E08D
:101FA0000E94C10680E090E00E9491060E94D40346
:101FB00010929F014ECB6FE070E080E090E00E94B5
:101FC00076054CEAC42E41E0D42E05E010E0F6017F
:101FD000E190F1906F01E114F10409F03EC0B02EE0
:101FE00060E0802F0E9429058FEF0E94CF0385E5D6
:101FF0000E94CF03F801EA5DFE4F8491F801EE5E86
:10200000FE4F9490F801E250FF4FA490AA2099F05F
:1020100081110E947203EA2DF0E0EE0FFF1FEC50D9
:10202000FF4FA591B491EC919E2291E080E009F4DC
:1020300090E0E92EF82EB701FF0C880B990B0E9457
:10204000D2100E94E2038B2D0E94CF0381E00E94F8
:10205000CF030E94460A0E94D4030F5F1F4F0E3029
:10206000110509F0B4CF09E111E0F12CF8018191DB
:1020700091918F01892B59F58FEF0E94CF0385E550
:102080000E94CF038F2D806480937C0080917A0022
:10209000806480937A0080917A0086FDFCCF609105
:1020A00078008091790070E0782B072E000C880B67
:1020B000990B0E94D2100E94E2038F2D0E94CF0341
:1020C00082E00E94CF030E94460A0E94D403F39448
:1020D000F6E0FF12CBCF6AE070E080E090E00E9473
:1020E00076050E946803B5CA84E0E2CC2FEFC216E1
:1020F000D104E104F104D1F0C8F062E17AE780E0B4
:1021000090E0A30192010E94FC1269017A01E1E0D2
:10211000CE1AD108E108F108FFEFCF16D104E1048F
:10212000F10411F008F07FCC84E08ECC83E08CCCFD
:1021300062E17AE780E090E0A30192010E94FC1244
:1021400069017A0181E0C81AD108E108F1089FEF1E
:10215000C916D104E104F104B1F0A8F0D501C4011D
:10216000FAE0B595A79597958795FA95D1F76C0103
:102170007D01F1E0CF1AD108E108F108112309F43B
:1021800062CC87E095CC86E04BCCEFEFCE16D10445
:10219000E104F10409F060F684E042CC82E088CCEE
:1021A000E89409C097FB3EF49095809570956195F1
:1021B0007F4F8F4F9F4F9923A9F0F92F96E9BB27A7
:1021C0009395F695879577956795B795F111F8CF23
:1021D000FAF4BB0F11F460FF1BC06F5F7F4F8F4F8E
:1021E0009F4F16C0882311F096E911C0772321F084
:1021F0009EE8872F762F05C0662371F096E8862F1C
:1022000070E060E02AF09A95660F771F881FDAF772
:10221000880F9695879597F908950E9420110C9440
:1022200091110E94831138F00E948A1120F09523A9
:1022300011F00C947A110C94801111240C94C51196
:102240000E94A21170F3959FC1F3950F50E0551FA6
:10225000629FF001729FBB27F00DB11D639FAA27FB
:10226000F00DB11DAA1F649F6627B00DA11D661F4A
:10227000829F2227B00DA11D621F739FB00DA11D6B
:10228000621F839FA00D611D221F749F3327A00D25
:10229000611D231F849F600D211D822F762F6A2FC1
:1022A00011249F5750409AF0F1F088234AF0EE0F26
:1022B000FF1FBB1F661F771F881F91505040A9F753
:1022C0009E3F510580F00C947A110C94C5115F3F2C
:1022D000E4F3983ED4F3869577956795B795F7958F
:1022E000E7959F5FC1F7FE2B880F911D9695879507
:1022F00097F9089597F99F6780E870E060E0089586
:102300009FEF80EC089500240A941616170618060D
:102310000906089500240A941216130614060506E9
:102320000895092E0394000C11F4882352F0BB0F7A
:1023300040F4BF2B11F460FF04C06F5F7F4F8F4FDD
:102340009F4F089557FD9058440F551F59F05F3F18
:1023500071F04795880F97FB991F61F09F3F79F0C7
:1023600087950895121613061406551FF2CF469549
:10237000F1DF08C0161617061806991FF1CF8695CB
:102380007105610508940895E894BB2766277727AF
:10239000CB0197F90895A29FB001B39FC001A39FFD
:1023A000700D811D1124911DB29F700D811D11248E
:1023B000911D08950E94C21290F09F3748F4911128
:1023C00016F40C94C51160E070E080E89FE3089576
:1023D00026F01B16611D711D811D0C9499120C9421
:1023E000B4120E9405120C9491110E948A1158F0A7
:1023F0000E94831140F029F45F3F29F00C947A1178
:1024000051110C94C5110C9480110E94A21168F313
:102410009923B1F3552391F3951B550BBB27AA279D
:1024200062177307840738F09F5F5F4F220F331FD7
:10243000441FAA1FA9F335D00E2E3AF0E0E832D09F
:1024400091505040E695001CCAF72BD0FE2F29D0A2
:10245000660F771F881FBB1F261737074807AB0774
:10246000B0E809F0BB0B802DBF01FF2793585F4FE9
:102470003AF09E3F510578F00C947A110C94C511F6
:102480005F3FE4F3983ED4F3869577956795B795CB
:10249000F7959F5FC9F7880F911D9695879597F9D6
:1024A0000895E1E0660F771F881FBB1F621773074F
:1024B0008407BA0720F0621B730B840BBA0BEE1F64
:1024C00088F7E09508950E946A126894B1110C94FF
:1024D000C51108950E94AA1188F09F5798F0B92F4E
:1024E0009927B751B0F0E1F0660F771F881F991F49
:1024F0001AF0BA95C9F714C0B13091F00E94C41116
:10250000B1E008950C94C411672F782F8827B85F25
:1025100039F0B93FCCF3869577956795B395D9F7A0
:102520003EF490958095709561957F4F8F4F9F4FAA
:102530000895882371F4772321F09850872B762F04
:1025400007C0662311F499270DC09051862B70E0C7
:1025500060E02AF09A95660F771F881FDAF7880FD8
:102560009695879597F908959F3F31F0915020F403
:10257000879577956795B795880F911D969587955F
:1025800097F908950E94AA11A0F0BEE7B91788F440
:10259000BB279F3860F41616B11D672F782F882748
:1025A000985FF7CF869577956795B11D9395963986
:1025B000C8F30895A1E21A2EAA1BBB1BFD010DC092
:1025C000AA1FBB1FEE1FFF1FA217B307E407F507E3
:1025D00020F0A21BB30BE40BF50B661F771F881FBF
:1025E000991F1A9469F760957095809590959B0155
:1025F000AC01BD01CF010895052E97FB1EF4009498
:102600000E94131357FD07D00E94DA1207FC03D073
:102610004EF40C94131350954095309521953F4FEF
:102620004F4F5F4F089590958095709561957F4FBE
:102630008F4F9F4F0895EE0FFF1F0590F491E02DEF
:1026400009940E94CB11B7FF0895821B930B089544
:102650000F931F93CF93DF93869F8001879F100D69
:10266000969F100D1124C8010E944413EC0100979D
:1026700029F0A80160E070E00E947F14CE01DF9194
:10268000CF911F910F910895CF93DF9382309105E1
:1026900010F482E090E0E091A902F091AA0220E01B
:1026A00030E0C0E0D0E0309711F14081518148170F
:1026B0005907C0F04817590761F482819381209728
:1026C00019F09B838A832BC09093AA028093A9025E
:1026D00026C02115310519F04217530718F49A0145
:1026E000BE01DF01EF010280F381E02DDCCF211577
:1026F000310509F1281B390B2430310590F412966D
:102700008D919C9113976115710521F0FB019383C5
:10271000828304C09093AA028093A902FD0132969D
:1027200044C0FD01E20FF31F8193919322503109C0
:102730002D933C933AC02091A7023091A802232BFD
:1027400041F420910301309104013093A8022093B9
:10275000A70220910101309102012115310541F4B8
:102760002DB73EB74091050150910601241B350B52
:10277000E091A702F091A802E217F307A0F42E1B44
:102780003F0B2817390778F0AC014E5F5F4F2417D5
:10279000350748F04E0F5F1F5093A8024093A702E1
:1027A0008193919302C0E0E0F0E0CF01DF91CF91FF
:1027B00008950F931F93CF93DF93009709F48CC074
:1027C000FC013297138212820091A9021091AA0291
:1027D0000115110581F420813181820F931F209111
:1027E000A7023091A8022817390779F5F093A802BB
:1027F000E093A70271C0D80140E050E0AE17BF07D8
:1028000050F412962D913C911397AD01211531058D
:1028100009F1D901F3CF9D01DA013383228360816D
:102820007181860F971F8217930769F4EC01288145
:102830003981260F371F2E5F3F4F318320838A81D6
:102840009B8193838283452B29F4F093AA02E09322
:10285000A90242C01396FC93EE931297ED014991A1
:1028600059919E01240F351FE217F30771F48081FF
:102870009181840F951F029611969C938E9382816D
:10288000938113969C938E931297E0E0F0E0D80129
:1028900012968D919C911397009719F0F8018C0175
:1028A000F6CF8D919C9198012E5F3F4F820F931F21
:1028B0002091A7023091A8022817390769F43097B0
:1028C00029F41092AA021092A90202C01382128265
:1028D0001093A8020093A702DF91CF911F910F914F
:1028E000089581E090E0F8940C949814FB01DC01C9
:1028F00002C001900D9241505040D8F70895DC017C
:1029000001C06D9341505040E0F70895FB01DC0198
:102910000D900020E9F7119701900D920020E1F74A
:102920000895FB01DC0101900D920020E1F708956C
:10293000F894FFCFFF0000AB02800000000000FF12
:1029400002680297024603C802A602BA020000000B
:102950000000000000000000000D0A0046756E46F1
:10296000756E00200000FFFFFFFFFFFFFFFFFFFF6E
:10297000FFFFFFFFFFFFFFFFFFFFFFFFFFFFFFFF67
:10298000FFFFFFFFFFFFFFFFFFFFFFFFFFFFFFFF57
:10299000FFFFFFFFFFFFFFFFFFFFFFFFFFFFFFFF47
:1029A000FFFFFFFFFFFFFFFFFFFFFFFFFFFFFFFF37
:107E0000112484B714BE81FFF0D085E080938100F7
:107E100082E08093C00088E18093C10086E0809377
:107E2000C20080E18093C4008EE0C9D0259A86E02C
:107E300020E33CEF91E0309385002093840096BBD3
:107E4000B09BFECF1D9AA8958150A9F7CC24DD24C4
:107E500088248394B5E0AB2EA1E19A2EF3E0BF2EE7
:107E6000A2D0813461F49FD0082FAFD0023811F036
:107E7000013811F484E001C083E08DD089C08234E0
:107E800011F484E103C0853419F485E0A6D080C0E4
:107E9000853579F488D0E82EFF2485D0082F10E0AE
:107EA000102F00270E291F29000F111F8ED06801E7
:107EB0006FC0863521F484E090D080E0DECF843638
:107EC00009F040C070D06FD0082F6DD080E0C81688
:107ED00080E7D80618F4F601B7BEE895C0E0D1E017
:107EE00062D089930C17E1F7F0E0CF16F0E7DF06D8
:107EF00018F0F601B7BEE89568D007B600FCFDCFD4
:107F0000A601A0E0B1E02C9130E011968C91119780
:107F100090E0982F8827822B932B1296FA010C0160
:107F200087BEE89511244E5F5F4FF1E0A038BF0790
:107F300051F7F601A7BEE89507B600FCFDCF97BE46
:107F4000E89526C08437B1F42ED02DD0F82E2BD052
:107F50003CD0F601EF2C8F010F5F1F4F84911BD097
:107F6000EA94F801C1F70894C11CD11CFA94CF0C13
:107F7000D11C0EC0853739F428D08EE10CD085E9AC
:107F80000AD08FE07ACF813511F488E018D01DD067
:107F900080E101D065CF982F8091C00085FFFCCF94
:107FA0009093C60008958091C00087FFFCCF809118
:107FB000C00084FD01C0A8958091C6000895E0E648
:107FC000F0E098E1908380830895EDDF803219F02E
:107FD00088E0F5DFFFCF84E1DECF1F93182FE3DFCA
:107FE0001150E9F7F2DF1F91089580E0E8DFEE27F6
:107FF000FF270994FFFFFFFFFFFFFFFFFFFF0404C0
:00000001FF
