:020000040000FA
:100000000C9448080C9470080C9470080C947008B8
:100010000C9470080C9470080C9470080C94700880
:100020000C9470080C9470080C9470080C94700870
:100030000C9470080C9470080C9470080C94700860
:100040000C94A71F0C9470080C9417200C94F11FAB
:100050000C9470080C9470080C9470080C94700840
:100060000C9449200C94700873686F756C6420625E
:10007000652061626F757420333030206F686D7356
:1000800000636865636B2059502C20594D207069BE
:100090006E7320776974682061206D756C74696D6A
:1000A0006574657200636865636B2058502C205836
:1000B0004D2070696E7320776974682061206D75BA
:1000C0006C74696D6574657200626520636F72722D
:1000D000656374656420696E20736F6674776172FE
:1000E000652E00686172647761726520697373754B
:1000F0006520616E642063616E206E6F74006F66B0
:10010000207468652070726573732E20546869735B
:10011000206973206100556E61626C6520746F20E8
:10012000726561642074686520706F736974696FAB
:100130006E0000000000003E5B4F5B3E3E6B4F6B6D
:100140003E1C3E7C3E1C183C7E3C181C577D571CB8
:100150001C5E7F5E1C00183C1800FFE7C3E7FF0031
:1001600018241800FFE7DBE7FF30483A060E26297F
:10017000792926407F050507407F05253F5A3CE742
:100180003C5A7F3E1C1C08081C1C3E7F14227F2208
:10019000145F5F005F5F06097F017F006689956AD3
:1001A000606060606094A2FFA29408047E0408105E
:1001B000207E201008082A1C08081C2A08081E1087
:1001C0001010100C1E0C1E0C30383E3830060E3E3F
:1001D0000E06000000000000005F0000000700079E
:1001E00000147F147F14242A7F2A122313086462C8
:1001F00036495620500008070300001C2241000029
:1002000041221C002A1C7F1C2A08083E0808008086
:10021000703000080808080800006060002010081E
:1002200004023E5149453E00427F4000724949491F
:10023000462141494D331814127F10274545453951
:100240003C4A494931412111090736494949364655
:100250004949291E00001400000040340000000835
:1002600014224114141414140041221408020159D8
:1002700009063E415D594E7C1211127C7F49494965
:10028000363E414141227F4141413E7F49494941FA
:100290007F090909013E414151737F0808087F0029
:1002A000417F41002040413F017F081422417F40AF
:1002B0004040407F021C027F7F0408107F3E414186
:1002C000413E7F090909063E4151215E7F091929F6
:1002D00046264949493203017F01033F4040403FE0
:1002E0001F2040201F3F4038403F63140814630321
:1002F000047804036159494D43007F4141410204A0
:10030000081020004141417F0402010204404040A6
:100310004040000307080020545478407F2844449C
:10032000383844444428384444287F3854545418B6
:1003300000087E090218A4A49C787F0804047800B1
:10034000447D40002040403D007F10284400004193
:100350007F40007C047804787C08040478384444A6
:100360004438FC1824241818242418FC7C0804049D
:1003700008485454542404043F44243C4040207C06
:100380001C2040201C3C4030403C44281028444C59
:100390009090907C4464544C440008364100000026
:1003A000770000004136080002010204023C2623C7
:1003B000263C1EA1A161123A4040207A385454557F
:1003C0005921555579412254547842215554784049
:1003D00020545579400C1E527212395555555939D1
:1003E0005454545939555454580000457C41000226
:1003F000457D420001457C407D1211127DF028258B
:1004000028F07C545545002054547C547C0A097FC4
:100410004932494949323A4444443A324A484830D8
:100420003A4141217A3A42402078009DA0A07D3D8A
:100430004242423D3D4040403D3C24FF2424487E12
:100440004943662B2FFC2F2BFF0929F620C0887EFD
:10045000090320545479410000447D413048484A02
:1004600032384040227A007A0A0A727D0D19317DB5
:100470002629292F28262929292630484D40203889
:100480000808080808080808382F10C8ACBA2F1048
:100490002834FA00007B000008142A142222142AAF
:1004A00014085500550055AA55AA55AAFF55FF55E1
:1004B000FF000000FF00101010FF00141414FF00D4
:1004C0001010FF00FF1010F010F0141414FC0014B2
:1004D00014F700FF0000FF00FF1414F404FC1414D0
:1004E00017101F10101F101F1414141F00101010CD
:1004F000F0000000001F101010101F10101010F05E
:1005000010000000FF101010101010101010FF103D
:10051000000000FF140000FF00FF00001F10170084
:1005200000FC04F414141710171414F404F400005D
:10053000FF00F714141414141414F700F71414140F
:10054000171410101F101F141414F4141010F010AE
:10055000F000001F101F0000001F14000000FC141A
:100560000000F010F01010FF10FF141414FF14100E
:1005700010101F00000000F010FFFFFFFFFFF0F061
:10058000F0F0F0FFFFFF0000000000FFFF0F0F0F73
:100590000F0F3844443844FC4A4A4A347E0202066B
:1005A00006027E027E0263554941633844443C049E
:1005B000407E201E2006027E020299A5E7A5991C16
:1005C0002A492A1C4C7201724C304A4D4D30304839
:1005D000784830BC625A463D3E494949007E010197
:1005E000017E2A2A2A2A2A44445F444440514A442C
:1005F0004040444A51400000FF0103E080FF0000FA
:1006000008086B6B083612362436060F090F0600F1
:100610000018180000001010003040FF0101001FFA
:1006200001011E00191D1712003C3C3C3C0000005B
:1006300000004D495353494E4720544F55434853AA
:10064000435245454E0000652E672E207265616459
:1006500073207E333020666F72203530305220593F
:1006600020646972656374696F6E00652E672E2061
:100670007265616473207E323520666F722033307C
:100680003052205820646972656374696F6E007718
:100690006F756C642072656164206C6F7720776879
:1006A000656E206469676974616C20697320777274
:1006B000697474656E204C4F57005479706963619A
:1006C0006C2033306B20416E616C6F672070756CED
:1006D0006C7570207769746820636F7272657370CF
:1006E0006F6E64696E672070696E004D616B696E34
:1006F0006720616C6C20636F6E74726F6C20616E2A
:1007000064206275732070696E7320494E50555491
:100710005F50554C4C555000546F7563682073639F
:100720007265656E20746F20636F6E74696E756597
:10073000005265706F72742063616E206265207074
:1007400061737465642066726F6D205365726961B0
:100750006C0A0052657065617420666F7220616C6E
:100760006C2063726F737368616972732E0A00750F
:100770006E74696C2063726F737368616972207440
:1007800075726E73205245442E0063726F737368E6
:100790006169722E20204B65657020686F6C6469FA
:1007A0006E6700746F207468652063656E7465728F
:1007B000206F662074686520574849544500736966
:1007C0006D696C617220746F20746F75636820614D
:1007D0007320636C6F7365005573652061207374BB
:1007E000796C7573206F7220736F6D657468696EB4
:1007F000670023646566696E65204E554D53414D13
:10080000504C4553203320696E204C6962726172EE
:10081000790A007377617020702E7820616E6420F1
:10082000702E792069662064696666204F524945BA
:100830004E544154494F4E0079203D206D6170283F
:10084000702E792C20544F502C20424F542C2030A5
:100850002C207466742E6865696768742829293BA2
:100860000078203D206D617028702E782C204C453A
:1008700046542C2052542C20302C207466742E7731
:10088000696474682829293B0066726F6D20506F77
:10089000696E742070203D2074732E676574506FEC
:1008A000696E74282920652E672E20007365747484
:1008B000696E677320796F75206D757374206D6133
:1008C00070207468652076616C75657300546F20C4
:1008D00075736520746865206E65772063616C6947
:1008E00062726174696F6E0020582C20592C205060
:1008F00072657373757265000000000024002700A4
:100900002A0000000000250028002B000404040435
:1009100004040404020202020202030303030303A9
:100920000102040810204080010204081020010286
:100930000408102000000008000201000003040762
:10094000000000000000000011007F962900010057
:100950007F9628003A0155C0021010C10141C5041C
:1009600000228040360168B00100B102B011B4012C
:1009700002B60302023BB701C63A0155F704A9517A
:100980002C82B701C6E808408A00002919A533C0A7
:10099000020D0DC1024300C20100C5040048004819
:1009A000B40100B60302023BE00F0F211C0B0E083E
:1009B000499838091103141000E10F0F2F2B0C0E6A
:1009C00006477637071104231E00B00100B3040266
:1009D000000000B40100D003074218D10300071043
:1009E000D2020102D3020102D4020102C005123B6D
:1009F000000211C103101088C50103C60102C80C12
:100A0000003236450616377577540C00CC0100F6D7
:100A100003010100CF03008130ED0464031281E87B
:100A200003851078CB05392C003402F70120EA0247
:100A30000000B00100B102001BB40100C00121C1DF
:100A40000111C5023F3CC701B5360148F20100263D
:100A50000101E00F0F26240B0E0954A8460C1709BC
:100A60000F0700E10F00191B0410072A473903067E
:100A70000630380F360100B80101C0010EB0010088
:100A8000C10410100202C006003500000102C501B9
:100A900004D2020104CA0100EA0180B903FF8357AE
:100AA0007F967F96B60125C0065050013C1E08B4C3
:100AB000070240002A2A0D787F01F20B1616030860
:100AC00008080810041616FD03110235B2050C0CB7
:100AD000003333B70135BB012BC00104C20201FF53
:100AE000C30111C40120C6010FD002A4A1E00ED0A1
:100AF00000050E150D3743470915121619E10ED0E2
:100B000000050D0C062D44400E1C1816193A01550F
:100B10007F0A06000700B1020012B40102B6040009
:100B2000202700CA0101CB0103C001137F14C501B6
:100B3000CCC60100C70104C80103CC0106CD011CCD
:100B4000F9021515F3030A020AF603011000FA0070
:100B5000FB00E2031E0254E001017F0AE001037F73
:100B60000A01007F64E60303FFFFB0072400031FB0
:100B700001DF00B40803A0002E30000F00B607020A
:100B80000D0010100008BA010FB8020701F00100B3
:100B90007F01280011007F642900BE0606F001F0E5
:100BA0000000D0010DB00103E2013FC00122E201CB
:100BB00000B00100C0010AB0010000000000000008
:100BC00000000000000000000000FFFF0F00000414
:100BD0000062080008080003000C01030B5A02031E
:100BE0000609030317100403002305030017060377
:100BF00009630703090C08030C10090332221000D3
:100C00001600110001011200000013000100000194
:100C10003003010137020301000D8002006102016F
:100C2000B0C1FFFF3200010000010200000103001B
:100C30003010090001000C000000900000800F003F
:100C40000000100200001102EF0012020000130267
:100C50008F01000500000105000002055F0001048E
:100C6000010004040000FFFF320007000001FFFF45
:100C7000320000020000010200000000000000003D
:100C800000000000000000000100A4000100FFFFC0
:100C90000A00600000270800080830001402310034
:100CA0001537320004063300160E340011223500C9
:100CB0000015360007853700071438000314390083
:100CC00020009000150010001004110037022900C8
:100CD00046002A00460007000000120089011300A8
:100CE0000011FFFF96001200B9010100000102008F
:100CF000000203003010090001000A0000000D008E
:100D000000000E003000610001006A000000800059
:100D100000008100000082005F009200000193004B
:100D20000107FFFF500007000001E500F078010017
:100D30000001020000020300301004000000050062
:100D4000000008000702090000000A0000000C0073
:100D500000000D0000000F00000010000000110056
:100D60000700120000001300000007000100FFFF51
:100D7000C8001000901611002702FFFF3200120079
:100D80000D00FFFF32001300001229000A002B00A3
:100D90000D00FFFF320020000000210000003000A5
:100DA0000000310004043200030035000504360061
:100DB00008083700070438000303390007073C0020
:100DC00004053D00080860000027610001006A007A
:100DD000000080000000810000008200000083000D
:100DE00000008400000085000000900010009200C8
:100DF000000007003301E500008000000100010051
:100E00000001020000070300301004000000080089
:100E10000202090000000A0000000C0000000D00A2
:100E200000000F0000001000000011000700120079
:100E3000000013000000FFFF32001000B017110087
:100E40000700FFFF0A0012003A01FFFF0A0013002B
:100E5000001A29000C00FFFF0A00300000003100DA
:100E6000050532000400350006003600070737008C
:100E7000050138000200390007073C0004073D0067
:100E80000708600000A7610001006A00000021005F
:100E900000002000000080000000810000008200AF
:100EA0000000830000008400000085000000900026
:100EB00010009200000093000300950010019700BD
:100EC00000009800000007007301FFFF32000100DE
:100ED00000010200000703003010080002030900AF
:100EE00000000A00080010000000110005001200B8
:100EF000000013000000FFFF64001000B012FFFFAD
:100F0000320011000700FFFF320012008C001300B6
:100F1000001729002000FFFF3200300000003100E0
:100F200006013200010135000601360003023700D8
:100F3000000038000707390004023C0006013D00AC
:100F40000301600000A7610001009000300007006D
:100F50003301FFFF3200150030009A00100011002D
:100F60002000100028341200020013003810FFFF88
:100F7000280012001200FFFF280010002034130088
:100F80004530FFFF4600300000003100020432000F
:100F90000703330004033400040035000104360065
:100FA0000707370005033800100639001006010056
:100FB00000010200000303003010080008080A00C6
:100FC0000800600000276100010090003E019200CF
:100FD000000193000001A0000030A30010000700F2
:100FE000010007002100070023000700330007006D
:100FF000330111001A001200213113006C0014009B
:10100000494210000008FFFF0A0011001A01FFFF0B
:101010000A0011001A03FFFF0A0011001A07FFFF60
:101020000A0011001A0FFFFF0A0011003A0FFFFF1C
:101030001E0001002801020000010300301007001B
:101040001210080003030B0000110C0000000F0039
:101050000118150020005000010151000306520044
:10106000080453000000540005065500060456000D
:101070000303570003035800100059000010070035
:101080001200FFFF2800070013000700170064216B
:1010900011241FBECFEFD8E0DEBFCDBF25E0A0E812
:1010A000B3E001C01D92A636B207E1F713E0A0E05D
:1010B000B1E0E6E8F4E602C005900D92A038B10771
:1010C000D9F718E0C8E4D8E004C02197FE010E94D7
:1010D000A32DC734D107C9F70E94D3210C94413204
:1010E0000C940000FC018281938120813181A1E078
:1010F000821793071CF433832283A0E0B0E0AA0F89
:10110000BB1FAE0FBF1F8D939C934481558182E01E
:10111000282F30E021503048220F331FDF01A20F6B
:10112000B31F6D917C912E5F3F4FDF01A20FB31F64
:10113000461757072CF46D937C93813049F480E077
:1011400090E0880F991FE80FF91F5183408308959D
:1011500081E0DECF90E0FC01EC5CF64F2491FC01D5
:10116000E05EF64F3491FC01E45FF64FE491EE232C
:10117000C9F0222339F0233001F1A8F4213019F10C
:10118000223029F1F0E0EE0FFF1FEE5FF64FA59140
:10119000B4918FB7F894EC91611126C030953E233D
:1011A0003C938FBF08952730A9F02830C9F0243030
:1011B00049F7809180008F7D03C0809180008F77F8
:1011C00080938000DFCF84B58F7784BDDBCF84B57B
:1011D0008F7DFBCF8091B0008F778093B000D2CF0E
:1011E0008091B0008F7DF9CF3E2BDACFCF93DF9384
:1011F00090E0FC01E05EF64F2491845F964FFC0185
:1012000084918823C9F090E0880F991FFC01E85071
:10121000F74FA591B491FC01EE5FF64FC591D491C3
:1012200061110DC09FB7F8948C91209582238C9307
:101230008881282328839FBFDF91CF910895623052
:1012400051F49FB7F8943C91822F809583238C931F
:10125000E8812E2BEFCF8FB7F894EC912E2B2C93A7
:101260008FBFEACF8E3008F08E50877080648093F5
:101270007C0080917A00806480937A0080917A006B
:1012800086FDFCCF809178009091790008953FB75A
:10129000F89480917B0490917C04A0917D04B0919E
:1012A0007E0426B5A89B05C02F3F19F00196A11D0D
:1012B000B11D3FBFBA2FA92F982F8827BC01CD01A0
:1012C000620F711D811D911D42E0660F771F881FFF
:1012D000991F4A95D1F708958F929F92AF92BF922E
:1012E000CF92DF92EF92FF926B017C010E9447093F
:1012F0004B015C01C114D104E104F104B9F00E9476
:101300004709681979098A099B09683E7340810574
:10131000910580F321E0C21AD108E108F10888EEB6
:10132000880E83E0981EA11CB11CE4CFFF90EF90C3
:10133000DF90CF90BF90AF909F908F900895AF9225
:10134000BF92CF92DF92EF92FF920F931F93CF93B2
:10135000DF936C017B018B01040F151FEB015E0114
:10136000AE18BF08C017D10759F06991D601ED91A9
:10137000FC910190F081E02DC6010995892B79F748
:10138000C501DF91CF911F910F91FF90EF90DF90FA
:10139000CF90BF90AF900895FC01538D448D252FC1
:1013A00030E0842F90E0821B930B541710F0CF96FF
:1013B000089501970895FC01918D828D981761F031
:1013C000A28DAE0FBF2FB11D5D968C91928D9F5F48
:1013D0009F73928F90E008958FEF9FEF0895FC0127
:1013E000918D828D981731F0828DE80FF11D858DDA
:1013F00090E008958FEF9FEF0895FC01918D228D6D
:10140000892F90E0805C9F4F821B91098F739927F1
:10141000089582E894E00E94FD0921E0892B09F4F7
:1014200020E0822F089580E090E0892B29F00E942F
:10143000090A81110C9400000895FC01A48DA80FE5
:10144000B92FB11DA35ABF4F2C91848D90E0019606
:101450008F739927848FA689B7892C93A089B18926
:101460008C91837080648C93938D848D981306C0C7
:101470000288F389E02D80818F7D80830895EF922B
:10148000FF920F931F93CF93DF93EC0181E0888F3E
:101490009B8D8C8D98131AC0E889F989808185FF0E
:1014A00015C09FB7F894EE89FF896083E889F989B0
:1014B00080818370806480839FBF81E090E0DF91B2
:1014C000CF911F910F91FF90EF900895F62E0B8D05
:1014D00010E00F5F1F4F0F731127E02E8C8D8E11C0
:1014E0000CC00FB607FCFACFE889F989808185FF27
:1014F000F5CFCE010E941D0AF1CFEB8DEC0FFD2F31
:10150000F11DE35AFF4FF0829FB7F8940B8FEA89E1
:10151000FB8980818062CFCFCF93DF93EC01888DF0
:101520008823B9F0AA89BB89E889F9898C9185FD5E
:1015300003C0808186FD0DC00FB607FCF7CF8C91EC
:1015400085FFF2CF808185FFEDCFCE010E941D0A7D
:10155000E9CFDF91CF9108952091BC03260F332767
:10156000331F21323105ECF42091E003FC0190E0BF
:1015700080E0243069F082E00895A091BC032191BD
:10158000AC0144565C4FA40FB52FB11D2C930196AE
:10159000861798F38091BC03680F6093BC0380E0CA
:1015A000089581E0089508958FEF9FEF08958FEFDC
:1015B0009FEF08958091950390E091958195910911
:1015C0000895CF93DF93CB01EA01642F0E94AC0A08
:1015D000CE01DF91CF910895CF93DF931F92CDB7C6
:1015E000DEB7698361E0CE0101960E94AC0A81E01A
:1015F00090E00F90DF91CF9108950895FC01637002
:10160000668B8481958126813781613039F0633022
:1016100029F0918780873387228708953187208733
:101620009387828708952F923F924F925F926F9295
:101630007F928F929F92AF92BF92CF92DF92EF9262
:10164000FF920F931F93CF93DF93CDB7DEB76A97C7
:101650000FB6F894DEBF0FBECDBF9A8F898F7A8305
:1016600069834A01D22E18870F833701BC2CDC0115
:1016700059962D913C915A972115310509F015C1C4
:1016800018968D919C911997681779070CF0D7C11E
:101690001A968D919C91481759070CF0D0C14C2C8B
:1016A000512CB6E0CB9E600D711D11247C876B8799
:1016B000161617060CF0C3C1EA2DF0E0FA87E98789
:1016C00093E0EE0FFF1F9A95E1F7F88BEF87CF01BC
:1016D000840F951F181619060CF0B1C1A98DBA8D8B
:1016E00058968C91811104C0BFEABD1508F4D394BB
:1016F000A98DBA8DED91FC9111970284F385E02DAF
:10170000CD010995B5E0DB9EC0011124E981FA8184
:10171000FC83EB83312C212C9C012E5C3E4F388FB7
:101720002F8B4A2D50E05E8B4D8BEF89F88DE20DAB
:10173000F31D44919E828D82D12CC12C69817A81C6
:10174000620D731D7A8B698B842F90E09C8B8B8B41
:10175000E98DFA8DA081B18140FF82C0F1E0BF1216
:101760006FC0AF126DC01C96ED91FC912F81388532
:10177000A4014C0D5D1D69897A89898D9A8D099521
:10178000EB89FC89F595E7954E2F5FEFC51AD50AD1
:101790006D817E818D899E89680F791F7E836D831F
:1017A00098E0C916D10481F6AFEF2A1A3A0AEB8104
:1017B000FC81E40DF51DFC83EB83F5E02F1631046D
:1017C00009F0B3CF2F81388526153705B9F0A98DDB
:1017D000BA8DED91FC91B1E0BB1257C0AB1255C070
:1017E00069817A816B5F7F4F0088F189E02D8301E9
:1017F00028E030E0A401898D9A8D0995A98DBA8DD4
:10180000ED91FC9111970688F789E02DCD016A963C
:101810000FB6F894DEBF0FBECDBFDF91CF911F9101
:101820000F91FF90EF90DF90CF90BF90AF909F907F
:101830008F907F906F905F904F903F902F90099482
:101840001E96ED91FC91EF80F88409851A8592012E
:101850004D815E816B817C81898D9A8D099590CFB8
:101860002F8138852615370509F48ACF31E0B31268
:1018700007C0A31205C01C96ED91FC91930178CF8F
:101880001E96ED91FC917301E0CF6B857C85641908
:1018900075090684F785E02D73010F85188992017B
:1018A000A401898D9A8D0995A9CFF9013496949157
:1018B000329745915491D91AB7E0DB9E400D511DE6
:1018C0001124F901259134913C8B2B8BFA01259041
:1018D0003490FA013296749031963491398B329665
:1018E00064903196449041E04C1518F04A1508F088
:1018F0007FC0662D062C000C770B7C836B83842DB8
:10190000042C000C990B9E838D83A98DBA8DED91CB
:10191000FC9111970284F385E02DCD010995512C9E
:10192000D12CC12CEA2DF0E0FA87E9872B2D30E08D
:101930003C872B87A401440D511D47FC5A95588FB5
:101940004F8B69817A81660D711D67FC7A957E8760
:101950006D877989C71608F051CF2C2D30E04D8165
:101960005E81420F531FA985BA854A9FC0014B9FD4
:10197000900D5A9F900D1124FC01E80DF91DF88B74
:10198000EF87852D612C4F89588D420F531F5E8B39
:101990004D8B671408F050C044244394480E877060
:1019A00041F4C1010196EB89FC89E20DF31DD4904D
:1019B0001C01D7FE19C0A98DBA8DED91FC91662D41
:1019C00070E0B1E0BB1219C0AB1217C02D853E8587
:1019D000620F731F0484F585E02D2F8138854D89B2
:1019E0005E89898D9A8D0995DD0C6394842DD1CF04
:1019F0001E821D821C821B8288CF4B815C81640FFA
:101A0000751FAB85BC856A9FC0016B9F900D7A9F47
:101A1000900D112469817A81680F791F0684F785FA
:101A2000E02DEF80F88409851A859D014F8558893E
:101A3000898D9A8D0995D8CF570CC3948ACF6A9611
:101A40000FB6F894DEBF0FBECDBFDF91CF911F91CF
:101A50000F91FF90EF90DF90CF90BF90AF909F904D
:101A60008F907F906F905F904F903F902F90089550
:101A70008F929F92AF92CF92EF92FF920F931F930C
:101A8000CF93DF93EC01262F898D9A8D009709F073
:101A900051C06A30D1F41D861C868D8948E0849F30
:101AA000900111248E859F85820F931F9F878E87BB
:101AB00081E090E0DF91CF911F910F91FF90EF9027
:101AC000CF90AF909F908F9008956D3089F3CC8820
:101AD000AD888F898823C1F08C859D8536E0C39EB3
:101AE000800D911D1124488559854817590764F4C4
:101AF0004E855F851D861C8638E0A39EC00111249B
:101B0000840F951F9F878E87EA88FB88088919892B
:101B10004E855F856C857D85CE010E94130B2C89D7
:101B20008C859D8546E0249F800D911D11249D8705
:101B30008C87BECF6A3069F41D861C86FC013896FE
:101B4000E4912D898E859F85E29F800D911D112442
:101B5000ADCF6D3009F4ACCFFC01349634916317EE
:101B600008F4A6CF3296E491E61708F4A1CFFC0161
:101B7000329685909490462F431B342F47E0349F34
:101B8000800C911C1124F401329634913196E49129
:101B90003323A9F1EE2399F1CC88F4013596E49131
:101BA000AD884F89442301F10E2E000CFF0BE30F8B
:101BB000F11DCE9EA001CF9E500D11246C857D8518
:101BC000460F571F68857985641775076CF44E8535
:101BD0005F851D861C86FC013896E491AE9E400D03
:101BE000511D11245F874E87EA88FB88088919896F
:101BF0004E855F856C857D85CE010E94130BF401B7
:101C00003496E4912C898C859D85E29F800D911DF1
:101C100011248DCF6F927F928F929F92AF92BF923D
:101C2000CF92DF92EF92FF920F931F93CF93DF93A8
:101C3000EC016B015A0139014801E881F981028404
:101C4000F385E02D0995E881F9810288F389E02D7B
:101C500087019301A501B601CE010995A501480DA3
:101C6000591D41505109E881F9810288F389E02D1D
:101C70009301B601CE010995E881F9810088F189C7
:101C8000E02D9401A501B601CE010995C60CD71C23
:101C9000B60161507109E881F9810088F189E02D70
:101CA0009401A501CE010995E881F9810688F7899B
:101CB000E02DCE01DF91CF911F910F91FF90EF901A
:101CC000DF90CF90BF90AF909F908F907F906F905C
:101CD00009946F927F928F929F92AF92BF92CF9210
:101CE000DF92EF92FF920F931F93CF93DF935C01EC
:101CF000EB016A01490138018701DC01ED91FC919A
:101D00006217730719F5641675062CF0962D872D4A
:101D10003A01C92ED82E9601261937092F5F3F4F59
:101D2000048CF58DE02DA301BE01C5010995DF915D
:101D3000CF911F910F91FF90EF90DF90CF90BF90C8
:101D4000AF909F908F907F906F90089546155705A4
:101D500091F42617370724F0892D4B01C22FD82F75
:101D60009E01281939092F5F3F4F068CF78DE02D12
:101D7000A601B401DACF0284F385E02D0995D501DF
:101D8000ED91FC910488F589E02D83019401A60171
:101D9000BE01C5010995D501ED91FC910688F78931
:101DA000E02DC501DF91CF911F910F91FF90EF9032
:101DB000DF90CF90BF90AF909F908F907F906F906B
:101DC0000994EF92FF920F931F93DC011A960D91E5
:101DD0001C911B9718962D913C911997ED91FC91B0
:101DE00000A0F1A1E02D7B0150E040E070E060E058
:101DF00009951F910F91FF90EF9008954F925F9278
:101E00006F927F928F929F92AF92BF92CF92DF920A
:101E1000EF92FF920F931F93CF93DF936C012B01EF
:101E20005A0139014801DC01ED91FC910284F385EE
:101E3000E02D0995E201640C751CD601ED91FC9131
:101E4000C615D7055CF40088F189E02D870194015F
:101E5000A501BE01C60109952196EFCF0688F78935
:101E6000E02DC601DF91CF911F910F91FF90EF9070
:101E7000DF90CF90BF90AF909F908F907F906F90AA
:101E80005F904F9009948F929F92AF92BF92CF92A2
:101E9000DF92EF92FF920F931F93CF93DF93EC01AA
:101EA0005B014A016901E881F9810284F385E02D33
:101EB000099595012C0D3D1D21503109E881F981CD
:101EC0000488F589E02D78018401A401B501CE01D3
:101ED0000995E881F9810688F789E02DCE01DF9127
:101EE000CF911F910F91FF90EF90DF90CF90BF9017
:101EF000AF909F908F9009948F929F92AF92BF92D4
:101F0000CF92DF92EF92FF920F931F93CF93DF93C5
:101F1000EC015B014A0169017801E881F9810284E1
:101F2000F385E02D0995C80CD91C860101501109D3
:101F3000E881F9810488F589E02D9501A401B501B6
:101F4000CE010995E881F9810688F789E02DCE0157
:101F5000DF91CF911F910F91FF90EF90DF90CF9085
:101F6000BF90AF909F908F900994EF92FF920F9344
:101F70001F93DC01ED91FC9100A0F1A1E02D0995EA
:101F80001F910F91FF90EF9008950F931F93DC0125
:101F9000ED91FC91068CF78DE02D09951F910F9125
:101FA00008950F931F93DC01ED91FC91048CF58D46
:101FB000E02D09951F910F910895DC01ED91FC91A1
:101FC0000084F185E02D09942F923F924F925F9209
:101FD0006F927F928F929F92AF92BF92CF92DF9239
:101FE000EF92FF920F931F93CF93DF9300D000D017
:101FF00000D0CDB7DEB73C016A013E832D83FC8261
:10200000EB825801A41AB50AB7FE03C0B194A1949B
:10201000B1088D809E80861A970A97FE03C091941E
:10202000819491088A149B045CF0902F812F0D817C
:102030001E819D838E839C2D8D2D6B01692F782FA2
:102040000C151D055CF09D818E817E836D83692F4B
:10205000782F902F812F8601C92ED82E1601201A95
:10206000310A2B012D813E81421A530A57FE03C0CB
:10207000519441945108710137FE03C03FEFE31AB8
:10208000F30AF594E7948D819E81861797075CF596
:10209000A1E0B0E0BA83A983C016D1064CF1D30108
:1020A000ED91FC910484F585E02D2B813C81A80104
:1020B0006D817E818A149B041CF04D815E81B80184
:1020C000C3010995E418F508F7FE0AC02D813E8189
:1020D00089819A81280F391F3E832D83E20CF31CDE
:1020E0000F5F1F4FD9CF2FEF3FEF3A832983D4CF14
:1020F00026960FB6F894DEBF0FBECDBFDF91CF910D
:102100001F910F91FF90EF90DF90CF90BF90AF9015
:102110009F908F907F906F905F904F903F902F9007
:102120000895AF92BF92CF92DF92EF92FF920F93FA
:102130001F93CF93DF936C01EB015A01AB014A501F
:102140005109BC016A507109750104E110E024E1F4
:1021500030E08DE295E00E940A0E96012B5F3F4F22
:10216000B601655071098E01AE018DE295E00E94C5
:10217000690E0B5F1F4FAE01455051099601B60124
:102180008DE295E00E94690EDF91CF911F910F9132
:10219000FF90EF90DF90CF90BF90AF900895AF92F7
:1021A000BF92CF92DF92EF92FF920F931F93CF9344
:1021B000DF9300D000D000D0CDB7DEB760E08091D3
:1021C00027050E94F60860E0809128050E94F60825
:1021D00060E0809127050E94AA0860E080912805B0
:1021E0000E94AA0861E080912A050E94F60861E039
:1021F000809129050E94F60861E080912A050E94DD
:10220000AA0860E0809129050E94AA088E010F5F4C
:102210001F4F6E0187E0C80ED11C780158018091D4
:1022200027050E943209F701819391937F01EC15F4
:10223000FD05A9F7C8010E9472088B819C812FEFD0
:1022400033E06901C81AD90A60E080912A050E942A
:10225000F60860E0809129050E94F60860E0809110
:102260002A050E94AA0860E0809129050E94AA0818
:1022700061E0809127050E94F60861E080912705C2
:102280000E94AA0861E0809128050E94F60860E09B
:10229000809128050E94AA08809129050E94320990
:1022A000F801819391938F01EE16FF06A9F7C501FE
:1022B0000E9472080FEF13E08B819C815801A81ACD
:1022C000B90A61E080912A050E94F60860E08091D9
:1022D0002A050E94AA0861E0809128050E94F6085C
:1022E00061E0809128050E94AA0860E0809129059C
:1022F0000E94AA0860E0809129050E94F60860E02B
:10230000809127050E94AA0860E0809127050E941D
:10231000F608809129050E9432097C0180912705E9
:102320000E943209D0922005C0921F05B09222056A
:10233000A09221058E199F09081B190B10932405E3
:102340000093230561E0809102010E94F60861E09C
:10235000809104010E94F60826960FB6F894DEBF1D
:102360000FBECDBFDF91CF911F910F91FF90EF90E6
:10237000DF90CF90BF90AF9008950F931F93CF93AE
:10238000DF9310E000E00E94CF10C1E080912305B0
:1023900090912405893C91050CF4C0E00F5F1F4F1C
:1023A000CD1711F010E000E065E070E080E090E013
:1023B0000E946C09DC2F0A30110529F78C2FDF9160
:1023C000CF911F910F9108950F931F93CF93DF9398
:1023D000EC018B01FE0194913196649122969F3716
:1023E00099F470E090E080E00E946C0960E0E62FD4
:1023F000F0E032960E1B1F0B101611065CF3DF91F6
:10240000CF911F910F9108954398429885B18C7F89
:10241000292F2370822B85B98BB183709C7F892BE8
:102420008BB94198419A30E020E02617A8F4FE01CC
:10243000E20FF31FE491429A85B18C7F9E2F937037
:10244000892B85B98BB18370EC7FE82BEBB9419870
:10245000419A2F5F3F4FE9CFC60FD11D439AC7CF97
:102460004398429825B12C7F392F3370232B25B9FF
:102470002BB123709C7F922B9BB94198419A95B1C7
:102480009C7F282F2370922B95B99BB193708C7FE2
:10249000892B8BB94198419A429AFA01615078F0A0
:1024A000219195B19C7F822F8370982B95B98BB128
:1024B00083702C7F822B8BB94198419AEFCF439A3E
:1024C00008954398429825B12C7F392F3370232BE0
:1024D00025B92BB123709C7F922B9BB94198419ACF
:1024E00095B19C7F282F2370922B95B99BB1937047
:1024F0008C7F892B8BB94198419A429A85B18C7F08
:10250000972F9370892B85B98BB183707C7F782B43
:102510007BB94198419A85B18C7F962F9370892B16
:1025200085B98BB183706C7F682B6BB94198419AE8
:10253000439A089581E08093810484B1836084B9D3
:102540008AB18C6F8AB9389A399A3A9A3B9A3C9AEE
:10255000439A409A419A449A62E370E080E090E0A6
:102560000E946C09449864E670E080E090E00E946C
:102570006C09449A64E670E080E090E00E946C0987
:1025800070E060E080EB90E00C9461121F93CF93B9
:10259000DF93C82F162F80918104811102C00E9401
:1025A0009A124398429885B18C7F85B98BB183701C
:1025B0008BB94198419A95B19C7F8C2F8370982B51
:1025C00095B98BB18370CC7F8C2B8BB94198419A94
:1025D000429A84B18C7F84B98AB183708AB961E0F0
:1025E00070E080E090E00E946C0961E070E080E0C3
:1025F00090E00E946C09409A409840984098C3B17E
:10260000D9B1409A61E070E080E090E00E946C09EE
:10261000409A40984098409883B199B1409A11509F
:1026200020F7409A439A24B1236024B92AB12C6F31
:102630002AB9C370DC7FCD2B83709C7F892B9C2FA4
:10264000DF91CF911F9108950F931F93CF93DF9345
:102650008C0160E00E94C612EC0161E0C8010E949A
:10266000C6128C01BE0190E080E0CB01772766277F
:1026700030E020E0602B712B822B932BDF91CF91E8
:102680001F910F910895FF920F931F93CF93DF93A4
:102690008C0160E00E94C612EC0161E0C8010E945A
:1026A000C612F82E62E0C8010E94C612AE0170E0A8
:1026B00060E0742F66275527442700E030E020E0D3
:1026C000402B5F29622B732B292F30E0C901B0E02A
:1026D000A0E08A019B01082B192B2A2B3B2BC90157
:1026E000B801DF91CF911F910F91FF900895CF9383
:1026F000DF9300D01F92CDB7DEB760E090E080E0BE
:102700000E94C612BC018830944541F1603284E5D4
:10271000780721F16938794809F4EBC060E087E671
:1027200090E00E94C61267E473E887349744B1F0E2
:102730008FEE90E00E944313673283E9780771F0CF
:1027400081EA90E00E942413613091E6790709F450
:10275000D3C06F3F760749F466E275E1CB010F9075
:102760000F900F90DF91CF91089561158FEF78074B
:1027700019F460E275E1F2CF6115704F09F4BFC042
:102780008FEB90E00E944313673523E8720731F323
:10279000613884E9780711F3613195E17907F1F245
:1027A000603225E1720729F3663285E17807A1F2EC
:1027B000613895E1790791F26115744109F4A2C07D
:1027C00084ED90E00E942413603183E5780731F2B4
:1027D00087ED90E00E942413613390E8790709F4B3
:1027E000BDCF8EEF90E00E942413672F782F892FA2
:1027F0009927633520E2720709F4B0CF84E090E0B6
:102800000E942413262F622F833E31F46115710537
:1028100049F560E073EEA2CF811124C0611580E814
:10282000780701F580910E0190910F01A0911001A0
:1028300089839A83AB83AE014F5F5F4F63E089EB7F
:1028400090E00E94301260E080ED90E00E94C6129D
:1028500069E970E0893909F481CF8039B9F460E918
:1028600070E97CCF663295E1790709F475CF603F56
:1028700029E8720709F449C0623585E8780709F448
:1028800047C061319CEA790709F468CF83ED90E095
:102890000E942413672F782F892F9927633621E907
:1028A000720709F45BCF83ED90E00E942413872F19
:1028B000693292E3790709F451CF8359823008F4E1
:1028C0004DCF783909F44ACF773709F447CF7631BD
:1028D00009F444CF633D710509F440CF633D7607A9
:1028E00009F43CCF60E090E080E00E94C612BC0199
:1028F00035CF69E872E132CF63E679E12FCF61EA43
:1029000075E02CCF64E178E629CF65E377E726CF41
:1029100069E877E723CF0F931F93CF93DF93EC0101
:102920008B01FE0185919491FE013296249665916A
:1029300074918F3F980771F490E080E00E946C09D9
:10294000045011091016110664F3DF91CF911F9105
:102950000F9108950E946112F3CFFC01262F358D4F
:10296000868D82958170982F9627692F70E072A3CB
:1029700061A330FF0CC0821307C080E290E050E0FA
:1029800040E060E00C94301281E290E0F8CF878D57
:1029900090A1833927E7920741F058F4843521E06C
:1029A000920791F080329445C1F4626081E094E036
:1029B00012C0863223E99207C1F3893025EB9207D2
:1029C000A1F38532924949F4660F771F660F771F8E
:1029D000636187E090E00C94611281E690E0FBCFA8
:1029E0008F929F92AF92BF92CF92DF92EF92FF921F
:1029F0000F931F93CF93DF9300D000D0CDB7DEB7F6
:102A00007C014B015A016901FC01878D90A186323E
:102A1000954151F4F701868980FF06C0C801841BE7
:102A2000950B81F50F5F1F4FF701858D80FF31C03A
:102A300085A599828A82DB82CC82AE014F5F5F4F8F
:102A400064E090E00E943012F70181A9B982AA8265
:102A50001B830C83AE014F5F5F4F64E090E00E94E8
:102A600030120F900F900F900F90DF91CF911F9128
:102A70000F91FF90EF90DF90CF90BF90AF909F901D
:102A80008F9008952617370779F6C80ED91E8A0148
:102A9000CBCFB40187A190A50E946112B501F701C7
:102AA00081A592A50E946112C814D90419F40A15CF
:102AB0001B05B9F2F701858D85FF08C0868980FF67
:102AC0001EC0102F0027A02AB12A8501B401F701EA
:102AD00085A596A50E946112B501F70181A992A969
:102AE0000E946112B601F70187A590A90E946112A8
:102AF000B801F70183A994A90E946112B2CFDC2C1E
:102B0000CC248C289D286401E1CFAF92BF92CF9254
:102B1000DF92EF92FF920F931F93CF93DF93EC011D
:102B200080917F04882349F0C701880F991F8E7315
:102B30009927E1ECEE22E82AF92A37FF05C0620F57
:102B4000731F319521953109260F371F77FF02C07A
:102B500070E060E088859985281739070CF4C90171
:102B60006C01C61AD70A17FF05C0400F511F1195F7
:102B700001951109040F151F57FF02C050E040E0F6
:102B80002A853B85021713070CF498015901A41AF2
:102B9000B50A8901015011099C0121503109CE016A
:102BA0000E94F014439842983BA58CA525B12C7F38
:102BB000982F9370292B25B99BB193708C7F982BFC
:102BC0009BB94198419A95B19C7F832F8370982B34
:102BD00095B98BB183703C7F832B8BB94198419A17
:102BE000429ACA14DB042CF09A2D8B2D5601C92E63
:102BF000D82E8F2DA70193E0569547959A95E1F72A
:102C00004C7F5E2D550F550F550F6F2D63707F2D27
:102C10007C7FEE2DE3702E2D2C7FE22E887F1C14FE
:102C20001D040CF03FC0909180049501992311F18F
:102C300095B19C7F95B99BB19370982B9BB94198A6
:102C4000419A95B19C7F95B99BB19370942B9BB998
:102C50004198419A95B19C7F95B99BB19370952B02
:102C60009BB94198419A2150310911F791E0C91A55
:102C7000D108D5CF95B19C7F962B95B99BB1937018
:102C8000972B9BB94198419A95B19C7F9E2B95B902
:102C90009BB193709E299BB94198419A215031096B
:102CA00049F7E4CF439A8D8D80FF08C08F8D98A19E
:102CB0008632954191F48E8980FF0FC00A851B856D
:102CC00001501109288539852150310950E040E033
:102CD00070E060E0CE010E94F014DF91CF911F916F
:102CE0000F91FF90EF90DF90CF90BF90AF9008953D
:102CF000EF92FF920F931F93CF93DF937C01E90133
:102D000077FD6DC057FD6BC0FC018085918568170C
:102D100079070CF064C082859385481759070CF039
:102D20005EC080917F04882341F0C901880F991FFC
:102D30008E739927C17CC82BD92B8A019B01C701AF
:102D40000E94F01480918004882309F44FC04398B6
:102D50004298F70133A584A525B12C7F982F937055
:102D6000292B25B99BB193708C7F982B9BB94198E7
:102D7000419A95B19C7F832F8370982B95B98BB125
:102D800083703C7F832B8BB94198419A429A85B1DD
:102D90008C7F85B99BB18D2F887F9370892B8BB9E0
:102DA0004198419A85B18C7F85B92BB1CE0133E032
:102DB000969587953A95E1F78C7F2370822B8BB996
:102DC0004198419A85B18C7F85B98BB1CC0FCC0FDE
:102DD000CC0F8370C82BCBB94198419A439ADF91AD
:102DE000CF911F910F91FF90EF900895BE01F701D1
:102DF00083A594A5DF91CF911F910F91FF90EF9044
:102E00000C946112EF92FF920F931F93CF93DF9375
:102E1000CDB7DEB72A970FB6F894DEBF0FBECDBF91
:102E20007C01862F8370F701868B962F917060FF4F
:102E3000E3C026813781F70131872087992309F480
:102E4000DEC024813581F70133872287823009F47F
:102E5000DBC0833009F4DAC0813009F4D3C088E4E0
:102E60008A87F701858D968D90FF03C02A852058AB
:102E70002A8791FF04C02A8530E423272A8793FFFD
:102E800004C02A8538E023272A87F701278D30A13F
:102E900080FF00C12431F8E63F0709F0B9C09A85E8
:102EA000892F88728A871F82892F85958074282FA1
:102EB0002260892F90E09595879580729927822BC3
:102EC00088878BE38987AE01495F5F4F63E086EBBC
:102ED00090E00E9430122AE230E0F70130A727A3E9
:102EE0008BE290E092A781A74CE250E054A743A761
:102EF00036A725A730AB27A792AB81AB94AB83ABAA
:102F0000AE01465F5F4F61E086E390E00E943012C1
:102F10008A8590E0F70194A383A3F701868980FF57
:102F20001CC0858D968D92FD18C087A190A521A506
:102F300032A530A727A392A781A785A596A521A989
:102F400032A936A725A792AB81AB87A590A923A963
:102F500034A930AB27A794AB83ABF7010285138567
:102F600001501109208531852150310950E040E0A0
:102F700070E060E0C7010E94F014F701668177817C
:102F8000878D90A120E08732F3E99F0709F420E2C2
:102F9000F701358D30FF39C119821A827B836C832A
:102FA0001D822E83AE014F5F5F4F66E083E390E0AA
:102FB0000E94301219821A82AE014F5F5F4F62E0A9
:102FC00087E390E00E943012F701858D80FF07C0F3
:102FD00050E040E060E083E190E00E9430122A96E9
:102FE0000FB6F894DEBF0FBECDBFDF91CF911F911A
:102FF0000F91FF90EF900895248135811CCF268199
:10300000378121CF88E22CCF88E92ACF88EF28CFDB
:10301000273243E9340789F41F8281E388878A8550
:10302000859585958595859588708987AE01495FD9
:103030005F4F63E080EC90E04CCF233689E13807A6
:1030400049F02138E4E93E0729F02131F5E13F0755
:1030500009F041CF8A8587FF02C081608A878A850F
:1030600086FF02C082608A878A858F73233649E192
:10307000340731F0213884E9380721F48A858F72CA
:103080008A8729CF2131354109F025CF8A858F7E66
:10309000806CF6CF6A85862F062E000C990B23399B
:1030A000F7E73F0751F0A8F52435E1E03E0709F4C2
:1030B0005CC02032F4E53F07A1F540E052E0F701A3
:1030C00050A747A341E052E052A741A742E052E097
:1030D00054A743A740E152E056A745A741E152E07B
:1030E00050AB47A742E152E052AB41AB43E152E063
:1030F00054AB43AB882790782632F3E93F0721F0A1
:103100002032344509F071C067FD846060E071E3EE
:103110006EC0263243E9340781F22930E5EB3E07E1
:1031200061F220E230E0F70130A727A321E230E08E
:1031300032A721A722E230E034A723A720E530E020
:1031400036A725A721E530E030AB27A722E530E000
:1031500032AB21AB23E530E034AB23ABBC016627B7
:103160007078776280E690E046C027E330E0F701B0
:1031700036A725A726E330E030AB27A729E330E0C8
:1031800032AB21AB28E330E034AB23AB20E230E0BC
:1031900030A727A321E230E032A721A722E230E0C6
:1031A00034A723A7F4E06F9FB00111246627717044
:1031B000882792708862682B792B81E090E00E94CA
:1031C00061128A85682F70E075956795759567958A
:1031D0006870772783FD70616063F70174A363A350
:1031E00083E090E00E94611298CE60E072E6682B66
:1031F000792B80E094E00E9461126A85F4E06F9F71
:10320000B001112466277170D8CF8339F7E79F0783
:10321000D9F1F0F4803244E59407B1F18338E7E75F
:103220009E0731F184359140F1F46150710981E3D9
:1032300090E00E94611270E060E082E390E00E9402
:10324000611270E060E083E390E00E946112C7CEFB
:10325000863223E99207C1F0893045EB9407A1F04B
:103260008532924911F3F70161A172A1626003C036
:10327000F70161A172A181E690E00E94611270E005
:1032800060E08AE690E0E1CFF70161A172A162609F
:1032900081E094E00E94611270E060E084E094E0DC
:1032A000D4CFEF92FF920F931F93CF93DF931F9290
:1032B000CDB7DEB78C010E949A1210924905109288
:1032C000480510934D0500934C05013320E8120783
:1032D00009F457C308F0CDC0033550E2150709F4CF
:1032E000A6C308F065C0013195E1190709F490C142
:1032F00010F50939110509F453C350F480E091E148
:103300000130110579F010923205109231057DC11E
:10331000043541E0140709F46CC10530154199F7F3
:1033200084E090E190934B0580934A0568ED70E04E
:1033300086EF9DE068C1013885E1180709F486C36E
:10334000A0F4003225E1120709F4C8C20632154183
:10335000D1F683E194E090934B0580934A053CE0DD
:10336000E32EF12C05EA1BE06AC1023056E1150795
:1033700009F451C30336194131F681E0809380048A
:1033800083E59AE090934B0580934A0580EE91E0A7
:10339000909334058093330580E293E09093320557
:1033A0008093310523E5E22EF12C02E51BE047C1B5
:1033B000093098E6190709F40BC300F5053345E415
:1033C000140709F497C280F40932124309F09BCF25
:1033D00083E096E090934B0580934A0590E4E92EB4
:1033E000F12C02E11BE02BC1003193E5190709F430
:1033F0008CC20830144509F493CF85CF093847E7CC
:10340000140709F4B2C2A0F4043188E6180709F4DD
:1034100094C20338174709F076CF82E091E1909388
:103420004B0580934A0568E870E08EEC9EE0EBC0A7
:10343000033927E7120709F43CC30639174709F097
:1034400062CF83E094E090934B0580934A0580EE31
:1034500091E0909334058093330580E491E090935C
:103460003205809331052DE0E22EF12C02E819E0BF
:10347000E6C0083353E9150709F4E2C208F04EC06C
:10348000053293E91907E1F160F5003940E91407C5
:1034900009F483C2E0F40735134809F034CF83E020
:1034A00094E190934B0580934A0580EE91E09093D0
:1034B00034058093330580E491E090933205809346
:1034C0003105A2E0EA2EF12C08EB1AE0B8C0023078
:1034D00093E9190709F4B1C20032134909F420CF66
:1034E00012CF093243E9140709F4ADC260F4073280
:1034F00083E9180709F477C20832134909F003CFAA
:1035000080E091E167C2013323E9120721F005331E
:10351000134909F0F8CE80E090E15CC2093854E923
:103520001507C8F5073884E9180708F0AAC201385A
:1035300094E9190709F4A2C290F400541349023027
:10354000110508F0E0CE83E194E090934B05809361
:103550004A0555E6E52EF12C0FE01AE070C006385A
:10356000144909F0D0CE83E094E090934B0580930A
:103570004A0580EE91E0909334058093330580E412
:1035800091E090933205809331053BE3E32EF12CDB
:103590000FE819E054C0093055EB150709F489C24A
:1035A000A0F401319CEA190709F444C20530154B17
:1035B00009F0A9CE88E090E190934B0580934A05ED
:1035C00060EB70E08AE79CE01EC0053045EC140714
:1035D00089F383E19EE00115134E09F094CE909398
:1035E0004B0580934A0563E0E62EF12C04E71AE0D0
:1035F00026C082E090E190934B0580934A056CE9E8
:1036000070E082EF9FE00E948B1410E000E017C092
:1036100083E090E090934B0580934A0580EE91E023
:10362000909334058093330580E491E090933205C4
:103630008093310553E0E52EF12C07EB1BE0209140
:103640004B05822F82958F7090E08170992790931F
:103650004F0580934E050115110581F069E070E07A
:103660008EE499E00E94E411B701C8010E94E411C0
:1036700066E070E088E499E00E94E41160E08DE289
:1036800095E00E94021760E08DE295E00E94AD1483
:1036900080914C0590914D058838944909F016C1E8
:1036A00010927F0420EE3FEF50E040E070E060E0D9
:1036B0008DE295E00E947816F0905805E09059054B
:1036C00080914A0580FF03C08EE2F82EE12C8091A4
:1036D0004C0590914D058230964119F40EE2F02E82
:1036E000E12C10E000E030E020E050E040E070E04D
:1036F00060E08DE295E00E94F01480914A0580FD23
:1037000010C070E060E080915405909155050E94D2
:10371000611270E060E080915605909157050E941B
:1037200061124398429885B18C7F9E2D9370892BAE
:1037300085B99BB193705E2D5C7FE52EE92AEBB8CD
:103740004198419A85B18C7F9F2D9370892B85B9C3
:103750009BB193708F2D8C7FF82EF92AFBB841987E
:10376000419A429A84B18C7F84B98AB183708AB9B4
:1037700020914A0530914B0580914C0590914D0563
:1037800026FD0EC0409A40984098409843B149B1F8
:10379000409A20FD05C0893842E1940709F09CC198
:1037A0008131954139F4409A40984098409883B1CE
:1037B00089B1409AB90164707727409A409840983F
:1037C000409824FFA6C193B189B193708C7F982B48
:1037D000409A409A40984098409843B189B14370CC
:1037E0008C7F482B409A409A40984098409883B1EB
:1037F000E9B083705E2D5C7F852B409A50E0672B8B
:1038000009F472C1E82EF12CFE2CEE24EE2488EF90
:10381000F82213E0440F551F1A95E1F7407E5770C8
:10382000E42AF52A969596959695E92A80917F0443
:10383000882399F0C70135E0969587953A95E1F789
:1038400080729927A701569547954F715527842B6C
:10385000952B50ECE522E82AF92A409A439A84B144
:10386000836084B98AB18C6F8AB920FD14C000913D
:103870003705109138050150110920913505309117
:1038800036052150310950E040E070E060E08DE203
:1038900095E00E94F0148FE1E8168FEFF806B1F47E
:1038A00086E08983AE014F5F5F4F61E08AE390E07D
:1038B0000E94301280914A0590914B058F7E909323
:1038C0004B0580934A0581E080937F040F90DF9140
:1038D000CF911F910F91FF90EF90089583E194E0B5
:1038E00090934B0580934A0546E0E42EF12C01EBC2
:1038F0001BE0A5CE80E090E190934B0580934A05B4
:103900006CE970E086E59FE07ECE83E19EE09093D7
:103910004B0580934A0580EE91E0909334058093A7
:10392000330580E491E0909332058093310582E085
:10393000E82EF12C00E11BE082CE83E094E090932E
:103940004B0580934A0580EE91E090933405809377
:10395000330580E491E0909332058093310503E0D4
:10396000E02EF12C0DE01BE06ACE83E194E0909311
:103970004B0580934A0511E4E12EF12C0CEC1AE082
:103980005ECE83E194E190934B0580934A05B2E1CA
:10399000EB2EF12C0AEB1AE052CE83E194E181CDBB
:1039A00083E194E190934B0580934A0580EE91E08A
:1039B000909334058093330580E491E09093320531
:1039C00080933105FDE1EF2EF12C0BE91AE037CEA3
:1039D00082E091E190934B0580934A056CEC70E096
:1039E0008AE29DE010CE83E094E090934B058093B3
:1039F0004A0580E991E0909334058093330580EF88
:103A000090E09093320580933105EEE1EE2EF12C9B
:103A10000DE71AE014CE83E094E090934B05809379
:103A20004A0576E0E72EF12C07E71AE008CE87E199
:103A300094E1D5CD83E194E1D2CD83E094E0CFCD84
:103A400083E194E0CCCD83E096E1C9CD83E194E0BD
:103A500090934B0580934A0580EE91E09093340556
:103A60008093330580E491E0909332058093310593
:103A700045E4E42EF12C0AEC19E0E1CD87E094E076
:103A8000E7CF83E194E090934B0580934A0580EE65
:103A900091E0909334058093330580E491E0909316
:103AA0003205809331059BE2E92EF12C07E519E000
:103AB000C6CD80E090E190934B0580934A0560EC81
:103AC00070E08AEB9BE00E948B1480E991E0909378
:103AD00034058093330599CD409A4098409840989A
:103AE00043B149B1409A5CCEE92EF12CFE2CEE2474
:103AF000EE2498EFF922A3E0440F551FAA95E1F7B1
:103B0000407E5770E42AF52A869586958695E82AA0
:103B10008DCEE3B099B1409A409A40984098409831
:103B200083B149B183704C7F842B409A4E2D4370F2
:103B3000E42E9C7FE92AFE2CE82E23FF03C0F82602
:103B4000EF24FE24672B09F471CEC701807E9770A5
:103B5000A701452F5527469546954695842B952BCD
:103B6000FE2CEE24FF0CFF0CFF0CE82AF92A5ECE97
:103B7000EF92FF920F931F93DC011A960D911C9107
:103B80001B9718962D913C911997ED91FC9100A0EF
:103B9000F1A1E02D7B0150E040E070E060E009958C
:103BA0001F910F91FF90EF900895EF92FF920F9366
:103BB0001F93DC01ED91FC9100A0F1A1E02D7801B3
:103BC00001E010E009951F910F91FF90EF9008958B
:103BD000EF92FF920F931F93DC01ED91FC9100A0F7
:103BE000F1A1E02D7801890121E030E009951F91D4
:103BF0000F91FF90EF900895089590E080E0089570
:103C0000CF9321E030919403311120E0209394036D
:103C10000E979F938F938FE491E09F938F93CAE0C9
:103C2000C29F9001112420583C4F3F932F930E9434
:103C3000A02F809194038C02C00111240F900F904B
:103C40000F900F900F900F9080589C4FCF91089538
:103C5000FB0101900020E9F73197AF01461B570B9C
:103C6000DC01ED91FC910280F381E02D0994EF924B
:103C7000FF920F931F93CF93DF938C017B01D0E0D2
:103C8000C0E0F701EC0FFD1F6491662361F0D801DD
:103C9000ED91FC910190F081E02DC8010995892BEF
:103CA00011F02196EECF63E571E0C8010E94281E55
:103CB0008C0F9D1FDF91CF911F910F91FF90EF907F
:103CC00008950F931F93CF93DF93EC010E94281E5A
:103CD0008C0163E571E0CE010E94281E800F911FC8
:103CE000DF91CF911F910F910895CF93DF93EC0156
:103CF000BC018DE295E00E94611EBE0182E894E065
:103D0000DF91CF910C94611EFC0101900020E9F736
:103D10003197E81BF90B2FEF3FEF30933E052093CF
:103D20003D0520E038EF3093400520933F0526E025
:103D30002E9FA0012F9F500D1124209174043091CB
:103D40007504241B350B37FF02C02F5F3F4F35959D
:103D5000279530933A052093390570933C0560937D
:103D60003B05BC018DE295E00C94281ECF92DF92BA
:103D7000EF92FF920F931F93CF93DF936C0170E04C
:103D800060E08DE295E00E94B81DC0917404D0916E
:103D90007504E12C88EFF82E0EE010E09E0150E053
:103DA00040E070E060E08DE295E00E948515EE2431
:103DB000EA94FE2C01E010E09E014EE050E070E03D
:103DC00060E08DE295E00E94851561E070E0C6013B
:103DD0000E94841EEDE2F5E0158614868EE190E0E7
:103DE000978786878FEF9FEF918B808B138A128A3C
:103DF000DF91CF911F910F91FF90EF90DF90CF90C7
:103E0000089586E591E00E94B61E66E171E08DE2BC
:103E100095E00E94371E6EEF70E08DE295E00E9403
:103E2000371E63EE70E08DE295E00E94371E69EC6C
:103E300070E08DE295E00E94371E65EA70E08DE249
:103E400095E00E94371E61E870E08DE295E00E94E7
:103E5000371E68E670E08DE295E00E94371EFFCFC6
:103E60000E948B2F1F93CF93DF9385ED8093BC002F
:103E70008091980390919903A0919A03B0919B032C
:103E80000796A11DB11D23E0B695A7959795879537
:103E90002A95D1F72091BC0024FD03C01092E003C5
:103EA00052C0409198035091990360919A03709188
:103EB0009B03452B462B472B69F30097A105B105C2
:103EC00041F02AE22A95F1F700C00197A109B10952
:103ED000E1CF80919703C1E0C0939603882399F1C5
:103EE000D091B8001091BA008091BC008A7B809379
:103EF000BC0060E082E10E94AA0860E083E10E94C9
:103F0000AA081092E003C093E2031092E10361E07B
:103F100082E10E94AA0861E083E10E94AA088091E0
:103F2000B9008E7F8093B9008091B9008D7F809316
:103F3000B90088E48093B80085E48093BC001093B6
:103F4000BA00D093B800DF91CF911F9108951F92CE
:103F50000F920FB60F9211242F933F938F939F933D
:103F6000AF93BF938091770490917804A0917904E6
:103F7000B0917A043091760423E0230F2D3758F561
:103F80000196A11DB11D2093760480937704909330
:103F90007804A0937904B0937A0480917B04909183
:103FA0007C04A0917D04B0917E040196A11DB11DF9
:103FB00080937B0490937C04A0937D04B0937E0453
:103FC000BF91AF919F918F913F912F910F900FBE15
:103FD0000F901F90189526E8230F0296A11DB11D82
:103FE000D2CF1F920F920FB60F9211242F933F93AF
:103FF0004F935F936F937F938F939F93AF93BF93F1
:10400000EF93FF9382E894E00E941D0AFF91EF91E5
:10401000BF91AF919F918F917F916F915F914F91E0
:104020003F912F910F900FBE0F901F9018951F92E8
:104030000F920FB60F9211242F938F939F93EF93AC
:10404000FF93E0919204F09193048081E0919804B1
:10405000F091990482FD1BC0908180919B048F5F39
:104060008F7320919C04821741F0E0919B04F0E053
:10407000EE57FB4F958F80939B04FF91EF919F919B
:104080008F912F910F900FBE0F901F9018958081E8
:10409000F4CF1F920F920FB60F9211242F933F93DC
:1040A0004F935F936F937F938F939F93AF93BF9340
:1040B000EF93FF938091B900887F803609F44AC05E
:1040C000F0F5883209F4A5C018F5803109F499C0DB
:1040D000B8F4882309F4F5C0883009F492C0FF9140
:1040E000EF91BF91AF919F918F917F916F915F9170
:1040F0004F913F912F910F900FBE0F901F901895E9
:10410000883109F486C0803251F78093DF0314C0F0
:10411000803409F49BC040F48033B9F38833F9F656
:104120008093DF0385ECAEC0803509F483C0883509
:1041300009F494C0883499F60E94321FD0CF883990
:1041400009F48AC038F5883729F050F4883611F020
:10415000803729F683E08093E0031092DE0355C098
:10416000883809F479C0803919F0803809F0B7CF60
:104170008091DE03803208F06FC0E091DE0381E0C1
:104180008E0F8093DE038091BB00F0E0E254FC4F81
:1041900080833BC0803B39F0D0F4803A09F477C08B
:1041A000883A09F09CCF84E08093E0031092BD032D
:1041B0001092BC03F0E0E0E009958091BC0381110E
:1041C0000FC081E08093BC0310929C0309C0803C27
:1041D00009F4A8CF883C09F4A5CF883B09F07FCF2C
:1041E000E091BD0381E08E0F8093BD03F0E0E456C3
:1041F000FC4F80818093BB009091BD038091BC03F4
:1042000029C0809105048093BB0085EC8093BC009D
:1042100066CF9091040480910304981758F5E091BB
:10422000040481E08E0F80930404F0E0ED51FC4F14
:104230008081E9CFE091040481E08E0F8093040433
:104240008091BB00F0E0ED51FC4F8083909104041D
:10425000809103049817C8F285E8D8CFE091040450
:1042600081E08E0F809304048091BB00F0E0ED515B
:10427000FC4F80838091E20381115ECF81E08093C7
:10428000E10384EA8093BC001092E00328CF85EC20
:104290008093BC001092E0038091DE03803230F402
:1042A000E091DE03F0E0E254FC4F10826091DE0307
:1042B00070E08EEB93E0F0E0E0E009951092DE0311
:1042C0000ECF1092DF0338CFE2E8F4E013821282BF
:1042D00088EE93E0A0E0B0E084839583A683B78363
:1042E00085E191E09183808385EC90E095878487D8
:1042F00084EC90E09787868780EC90E0918B808BB0
:1043000081EC90E0938B828B82EC90E0958B848B98
:1043100086EC90E0978B868B118E128E138E148E06
:10432000EDE2F5E01382128220EF30E03583248342
:1043300080E491E097838683318720879387828703
:10434000168A158614861786168681E0858B848BDF
:104350002FEF3FEF338B228B318B208B878B108E8F
:10436000128E118E87E291E09183808390910601F5
:10437000209104013091020180910001E5E2F5E015
:1043800032832483938385838CE291E097838683B1
:104390008AE090E091838083EFE1F5E0138212825E
:1043A000118210820895CF93DF93CDB7DEB7CC553D
:1043B000D1090FB6F894DEBF0FBECDBF789484B597
:1043C000826084BD84B5816084BD85B5826085BD11
:1043D00085B5816085BD80916E00816080936E009F
:1043E0001092810080918100826080938100809191
:1043F0008100816080938100809180008160809342
:1044000080008091B10084608093B1008091B00001
:1044100081608093B00080917A00846080937A00FC
:1044200080917A00826080937A0080917A00816026
:1044300080937A0080917A00806880937A0010924D
:10444000C1000E9477137C01833D934D21F406E85F
:10445000E02E04E9F02EC7010E9451196FE070E0D0
:104460008DE295E00E94B81D6FE671E08DE295E067
:104470000E94611E68EE73E080E090E00E946C098B
:10448000E0919204F091930482E08083E0918E04A5
:10449000F0918F041082E0919004F09191048FECE0
:1044A000808310929A04E0919604F091970486E03C
:1044B0008083E0919404F0919504808180618083F1
:1044C000E0919404F0919504808188608083E0916C
:1044D0009404F0919504808180688083E091940435
:1044E000F091950480818F7D80836FE170E08DE293
:1044F00095E00E94B81D62E871E082E894E00E94B5
:10450000611E6BEE76E082E894E00E94371E6AEB53
:1045100076E082E894E00E94371E6FE876E082E859
:1045200094E00E94371E6BE676E082E894E00E94F9
:10453000371E67E476E082E894E00E94371E66E466
:1045400076E082E894E00E94371E1EE062E0812F50
:104550000E94F6081F5F1331C9F712E062E0812F55
:104560000E94F6081F5F1A30C9F7BEE0CB2ED12C8F
:10457000712C10EA212E11E0312E9E012F5F3F4F4A
:1045800049016C2C62E08C2D0E94F60805E010E0D9
:104590002A960FAF2A9761E0802F0E94F60860E00C
:1045A000802F0E94AA08862D0E943209862D0E9423
:1045B0003209582E492EA82EB92EC50101978336EF
:1045C0009105C0F5C6010E94001E4F925F921F9395
:1045D0000F939F938F933F922F924AEA51E05F93FC
:1045E0004F939F928F920E94A02FB40182E894E093
:1045F0000E94611E0FB6F894DEBF0FBECDBF91E0E2
:104600009715B8F0872D90E0E3E4F0E0EC0FFD1F84
:10461000E80FF91F6082E1E4F0E0EC0FFD1FE80F06
:10462000F91F0083880F991FF401E80FF91FB5AE39
:10463000A4AE739462E02A968FAD2A970E94F60882
:104640000F5F1F4F0A30110509F0A2CF62E0862DDF
:104650000E94F608AFEFCA1ADA0AB2E1CB16D1040B
:1046600009F08FCFE2E07E12A1C04DAD5EAD219684
:104670002EAD3FAD2197E1E0F0E04217530710F077
:10468000F0E0E0E081E090E04217530710F490E0A2
:1046900080E0A3E4B0E0AC0FBD1FA80FB91F2C91C0
:1046A000422F50E0509305014093040101E410E0D3
:1046B0000C0F1D1F800F911FDC018C91482F50E0C3
:1046C0005093010140930001A3E4B0E0AC0FBD1F83
:1046D000AE0FBF1F3C91432F50E050930301409316
:1046E0000201E00FF11F9081492F50E05093070124
:1046F000409306014AE050E050932605409325057B
:1047000030932705909328052093290580932A0547
:104710008CE291E090932C0580932B0511E0C7016A
:104720000E94511960E08DE295E00E94021780918D
:1047300035059091360590937504809374043091FB
:104740003705209138053093720420937304832F2A
:10475000922F97FD019695958795069790937104F2
:1047600080937004FF92EF928CEB91E09F938F9374
:10477000FE0131961F01FF93EF930E94A02FB1011C
:1047800082E894E00E94611E0F900F900F900F90AE
:104790000F900F90111114C060917004709171040A
:1047A00088EC91E00E94841E0E94011F711006C0D7
:1047B00062E376E082E894E00E94371E10E0AFCF1B
:1047C00082E891E00E94B61E62EF77E08DE295E00C
:1047D0000E94371E68ED77E08DE295E00E94371E5B
:1047E0006EEB77E08DE295E00E94371E63EA77E09A
:1047F0008DE295E00E94371E6AE877E08DE295E051
:104800000E94371E6FE677E08DE295E00E94371E2A
:1048100063E577E08DE295E00E94371E61E377E083
:104820008DE295E00E94371E68E177E08DE295E029
:104830000E94371E0E94BD118823E1F30E94BD1122
:104840008111FCCF70E060E08DE295E00E94B81D20
:10485000F12CE12C0AE010E0809174049091750431
:10486000081719078CF5EAE0CE2ED12C809172043E
:1048700090917304C816D906D4F4FFEFEF1AFF0A1B
:1048800025E0E216F10431F04FE150E0B601C80135
:104890000E9491102091720430917304C9014497D1
:1048A00097FD019695958795C80ED91EDFCF20916B
:1048B000740430917504C901449797FD019695954C
:1048C0008795080F191FC8CF60917004709171040B
:1048D0006C5071098BED91E00E94841E6091700410
:1048E00070917104645F7F4F8BED91E00E94841E94
:1048F00065961FAE1EAE659761961FAE1EAE6197A0
:104900000AE010E02B961FAF0EAF2B9700917404B6
:104910001091750427961FAF0EAF27972B962EADDB
:104920003FAD2B97201731070CF0C9C00AE010E00B
:1049300027961FAF0EAF2797809172049091730452
:1049400027960EAD1FAD2797081719070CF0A6C0C4
:1049500061960EAD1FAD61970F5F1F4F61961FAF40
:104960000EAF61970530110509F44DC660E170E0A6
:1049700090E080E00E94CE2E8C01009731F0DC01A7
:104980001C9268EE78E00E94142B6596EEADFFADA8
:10499000659731966D96FFAFEEAF6D974FEF5FEF76
:1049A00027966EAD7FAD27972B968EAD9FAD2B973B
:1049B0000E949110609170047091710487EE91E0F3
:1049C0000E94841E0E94BD118823E1F3609170044F
:1049D0007091710483EF91E00E94841E412C512C50
:1049E0003201812C912C5401C12CD12C7601699675
:1049F0001FAE1EAE69972D961FAE1EAE2D970E945C
:104A0000CF108091230590912405893C9105DCF11C
:104A100040911F0550912005052E000C660B770B69
:104A2000C40ED51EE61EF71E4091210550912205A9
:104A3000052E000C660B770B840E951EA61EB71E66
:104A4000092E000CAA0BBB0B480E591E6A1E7B1EBA
:104A500069962EAD3FAD69972F5F3F4F69963FAF87
:104A60002EAF699769966EAD7FAD699760397140D9
:104A70000CF013C52D96AEADBFAD2D97A031B7424A
:104A80000CF4BDCF91CE2D964EAD5FAD2D974F5FFF
:104A90005F4F2D965FAF4EAF2D97E4CF20917404FA
:104AA00030917504C901449797FD019695958795B6
:104AB0002B960EAD1FAD2B97080F191F23CF00911A
:104AC0007204109173042D961FAF0EAF2D97279689
:104AD0008EAD9FAD27970197092E000CAA0BBB0B3B
:104AE0002CE0880F991FAA1FBB1F2A95D1F7A80198
:104AF00041505109052E000C660B770B840F951F52
:104B0000A61FB71F80936C0490936D04A0936E044E
:104B1000B0936F048091540490915504A091560471
:104B2000B091570440904C0450904D0460904E0456
:104B300070904F049C0120573E4F890104191509BC
:104B40002B961FAF0EAF2B9721E030E001321340C0
:104B500010F430E020E030934B0420934A0400919D
:104B600060041091610420916204309163046396A3
:104B70000CAF1DAF2EAF3FAF6397C0906804D090CD
:104B80006904E0906A04F0906B0480902A0490908D
:104B90002B04A0902C04B0902D0420913E04309161
:104BA0003F04409140045091410467962CAF3DAFC3
:104BB0004EAF5FAF6797009132041091330420919C
:104BC000340430913504409146045091470460917B
:104BD0004804709149046B964CAF5DAF6EAF7FAFE8
:104BE0006B972B966EAD7FAD2B976132734008F4B7
:104BF000E1C3080D191D2A1D3B1D80902E049090C5
:104C00002F04A0903004B0903104800E911EA21E9B
:104C1000B31E8092260490922704A0922804B0929A
:104C200029046B964CAD5DAD6EAD7FAD6B9767960D
:104C30000CAD1DAD2EAD3FAD6797400F511F621FEC
:104C4000731F009142041091430420914404309159
:104C50004504400F511F621F731F4093220450935D
:104C60002304609324047093250463962CAD3DAD1A
:104C70004EAD5FAD6397420E531E641E751E40918C
:104C800058045091590460915A0470915B04440E89
:104C9000551E661E771E40921E0450921F0460929D
:104CA0002004709221048C0D9D1DAE1DBF1D4091EE
:104CB0005C0450915D0460915E0470915F04840F08
:104CC000951FA61FB71F80931A0490931B04A093EF
:104CD0001C04B0931D0460912604709127048091F8
:104CE000280490912904F3E0CF2ED12CE12CF12C53
:104CF000A70196010E94842D63962CAF3DAF4EAF65
:104D00005FAF639760912204709123048091240423
:104D100090912504A70196010E94842D67962CAFDF
:104D20003DAF4EAF5FAF679760911E0470911F0457
:104D30008091200490912104A70196010E94842D66
:104D40006B962CAF3DAF4EAF5FAF6B9760911A047F
:104D500070911B0480911C0490911D04A701960181
:104D60000E94842D29013A0167966CAD7DAD8EAD10
:104D70009FAD679763960CAD1DAD2EAD3FAD6397AC
:104D8000601B710B820B930B0E941D2B6B017C012E
:104D900027966EAD7FAD279764517109072E000CE1
:104DA000880B990B0E941D2B9B01AC01C701B6011A
:104DB0000E94BA2C20E030E040E251E40E94582BDF
:104DC0004B015C0163966CAD7DAD8EAD9FAD63977D
:104DD0000E941D2BA50194010E944D2C0E942C2D98
:104DE0006B017C01C0922604D0922704E092280433
:104DF000F092290467966CAD7DAD8EAD9FAD67973F
:104E00000E941D2BA50194010E944E2C0E942C2D66
:104E100029966CAF7DAF8EAF9FAF29976093220428
:104E2000709323048093240490932504C301B2015A
:104E30006B962CAD3DAD4EAD5FAD6B97621B730BAA
:104E4000840B950B0E941D2B4B015C012D966EADC2
:104E50007FAD2D9764517109072E000C880B990BBB
:104E60000E941D2B9B01AC01C501B4010E94BA2C0C
:104E700020E030E040E251E40E94582B4B015C01FD
:104E80006B966CAD7DAD8EAD9FAD6B970E941D2B6B
:104E9000A50194010E944D2C0E942C2D2F966CAFE1
:104EA0007DAF8EAF9FAF2F9760931E0470931F044A
:104EB0008093200490932104C301B2010E941D2B12
:104EC000A50194010E944E2C0E942C2D60931A047F
:104ED00070931B0480931C0490931D04AEE0CC0CD3
:104EE000DD1CEE1CFF1CAA95D1F729960CAD1DAD5B
:104EF0002EAD3FAD2997C00ED11EE21EF31EC0920B
:104F00001604D0921704E0921804F09219042F9618
:104F10000CAD1DAD2EAD3FAD2F97BEE0000F111FA4
:104F2000221F331FBA95D1F7DC01CB01800F911FEF
:104F3000A21FB31F8093120490931304A093140430
:104F4000B09315042B960EAD1FAD2B970132134075
:104F500088F080916C0490916D04A0916E04B091E2
:104F60006F04B06880936C0490936D04A0936E04FA
:104F7000B0936F0482E891E00E94B61E6DEC78E079
:104F80008DE295E00E94371E6CEA78E08DE295E0B4
:104F90000E94371E69E878E08DE295E00E94371E96
:104FA00061E678E08DE295E00E94371E68E378E0E4
:104FB0008DE295E00E94371E63E178E08DE295E096
:104FC0000E94371E8091160490911704A091180436
:104FD000B09119042C013D013EE0769467945794FA
:104FE00047943A95D1F73FE353223C014FE37422B3
:104FF0008091120490911304A0911404B0911504AF
:105000004C015D014EE0B694A794979487944A951D
:10501000D1F75FE395225C016FE3B62280916C04C7
:1050200090916D04A0916E04B0916F04AC01BD012C
:10503000ECE07695679557954795EA95D1F75F70BF
:105040008A010F5F1F4F2B961FAF0EAF2B979F70DC
:105050008C010F5F1F4F27961FAF0EAF279765E29A
:1050600072E0CE0101960E94992FCE0101960E9416
:10507000751E80914A0490914B04892B51F18091C7
:1050800004019091050120910201309103013093B8
:105090000501209304019093030180930201809104
:1050A0000001909101012091060130910701309398
:1050B0000101209300019093070180930601982D30
:1050C000892D4501A92EB82E942D852D2301692EF9
:1050D000782E0E9477136C01833D934D21F426E8CE
:1050E000C22E24E9D22EF0900601E09007018091B3
:1050F0000201909103010E94001E182F092F809138
:105100000401909105010E94001EDF92CF92279624
:105110002FAD27972F9326963FAD26973F932B963B
:105120004FAD2B974F932A965FAD2A975F93EF92DF
:10513000FF920F931F939F938F93809101018F9301
:10514000809100018F938CE492E09F938F933F9224
:105150002F920E94A02FB10182E894E00E94611E6C
:10516000F0900601E0900701809102019091030107
:105170000E94001E182F092F8091040190910501B3
:105180000E94001EEF92FF920F931F939F938F93A5
:10519000809101018F93809100018F9381E892E0CB
:1051A0009F938F933F922F920E94A02FB1018DE287
:1051B00095E00E94611EBF92AF929F928F927F9264
:1051C0006F925F924F928BEA92E09F938F933F9200
:1051D0002F920E94A02F0FB6F894DEBF0FBECDBF56
:1051E000B10182E894E00E94611E27967FAD279767
:1051F0007F9326968FAD26978F932B969FAD2B97F7
:105200009F932A96AFAD2A97AF938EED92E09F932E
:105210008F93E8EEF2E0FF93EF933F922F920E947C
:10522000A02FC1010E94751E2B961FAD2B971F93B7
:105230002A962FAD2A972F937F926F925F924F926B
:1052400086ECE82E81E0F82EFF92EF9294E0C92ED2
:1052500093E0D92EDF92CF923F922F920E94A02FFF
:10526000C1010E94751E27963FAD27973F93269652
:105270004FAD26974F93BF92AF929F928F9269E264
:1052800073E07F936F930BE213E01F930F933F92B2
:105290002F920E94A02F0FB6F894DEBF0FBECDBF95
:1052A000C1010E94751E2B96BFAD2B97BF932A9606
:1052B000EFAD2A97EF932796FFAD2797FF9326969A
:1052C0002FAD26972F9380E593E09F938F9348EE21
:1052D00052E05F934F933F922F920E94A02FC10103
:1052E0000E94751E27967FAD27977F9326968FADD8
:1052F00026978F93BF92AF929F928F92A9E2B3E0CD
:10530000BF93AF93DF92CF923F922F920E94A02F34
:10531000C1010E94751E2B96FFAD2B97FF932A9615
:105320002FAD2A972F935F924F927F926F92FF92A9
:10533000EF921F930F933F922F920E94A02F0FB6D0
:10534000F894DEBF0FBECDBFC1010E94751E641868
:105350007508150128183908C30177FE04C088278D
:10536000992786199709853F914054F0C10137FE6E
:1053700004C088279927821993098B389240CCF46E
:105380003F922F927F926F928AE593E09F938F9343
:1053900081E090E08C0F9D1F9F938F930E94A02F20
:1053A000CE0101960E94751E0FB6F894DEBF0FBEA7
:1053B000CDBFFFCF840D951DA61DB71D4090500495
:1053C000509051046090520470905304840D951DC8
:1053D000A61DB71D8093260490932704A09328044C
:1053E000B093290463964CAD5DAD6EAD7FAD639710
:1053F000C40ED51EE61EF71E40906404509065044E
:105400006090660470906704C40CD51CE61CF71C01
:10541000C0922204D0922304E0922404F092250446
:1054200067966CAD7DAD8EAD9FAD6797860E971E6E
:10543000A81EB91E8091360490913704A0913804BB
:10544000B0913904880D991DAA1DBB1D80931E04BF
:1054500090931F04A0932004B09321046B964CAD4D
:105460005DAD6EAD7FAD6B97400F511F621F731F17
:1054700000913A0410913B0420913C0430913D048A
:10548000400F511F621F731F40931A0450931B0457
:1054900060931C0470931D041ECC2D96EEADFFADE1
:1054A0002D97E031F7420CF07FC9C701B60120E922
:1054B00031E040E050E00E94622D20930E043093D2
:1054C0000F044093100450931104C501B40120E966
:1054D00031E040E050E00E94622D20930A043093B6
:1054E0000B0440930C0450930D04C301B20120E956
:1054F00031E040E050E00E94622D2093060430939A
:10550000070440930804509309046091700470915B
:1055100071048FEF91E00E94841E40E058EF2796BF
:105520006EAD7FAD27972B968EAD9FAD2B970E94CA
:10553000911080910E0490910F04209110043091ED
:1055400011046596EEADFFAD6597EE0FFF1FEE0FF0
:10555000FF1FDF01A45BBB4F8C9311969C931197A7
:1055600012962C93129713963C9340910A045091F3
:105570000B0460910C0470910D04E65DFB4F4083B9
:105580005183628373831F930F93E0910904EF9318
:10559000E0910804EF93E0910704EF93E091060493
:1055A000EF937F936F935F934F933F932F939F93CB
:1055B0008F932BE032E03F932F9361E070E06C0F0C
:1055C0007D1F7F936F930E94A02FBE016F5F7F4F5F
:1055D00082E894E00E94281E0FB6F894DEBF0FBE4A
:1055E000CDBF0E94BD118111FCCF0115110519F02D
:1055F000C8010E94452E6D960EAD1FAD6D97659644
:105600001FAF0EAF65972091720430917304C901EA
:10561000449797FD01969595879527960EAD1FADFA
:105620002797080F191F84C9FB01DC0105900D9213
:105630000020E1F70895E89409C097FB3EF49095A7
:105640008095709561957F4F8F4F9F4F9923A9F05B
:10565000F92F96E9BB279395F695879577956795EA
:10566000B795F111F8CFFAF4BB0F11F460FF1BC02E
:105670006F5F7F4F8F4F9F4F16C0882311F096E9C1
:1056800011C0772321F09EE8872F762F05C066236F
:1056900071F096E8862F70E060E02AF09A95660F28
:1056A000771F881FDAF7880F9695879597F90895E1
:1056B0000E946B2B0C94DC2B0E94CE2B38F00E94A6
:1056C000D52B20F0952311F00C94C52B0C94CB2BEB
:1056D00011240C94102C0E94ED2B70F3959FC1F3B4
:1056E000950F50E0551F629FF001729FBB27F00D90
:1056F000B11D639FAA27F00DB11DAA1F649F6627E5
:10570000B00DA11D661F829F2227B00DA11D621F33
:10571000739FB00DA11D621F839FA00D611D221FED
:10572000749F3327A00D611D231F849F600D211DD1
:10573000822F762F6A2F11249F5750409AF0F1F054
:1057400088234AF0EE0FFF1FBB1F661F771F881FBD
:1057500091505040A9F79E3F510580F00C94C52B05
:105760000C94102C5F3FE4F3983ED4F38695779524
:105770006795B795F795E7959F5FC1F7FE2B880F63
:10578000911D9695879597F9089597F99F6780E8F9
:1057900070E060E008959FEF80EC089500240A9483
:1057A0001616170618060906089500240A941216FC
:1057B0001306140605060895092E0394000C11F42F
:1057C000882352F0BB0F40F4BF2B11F460FF04C0DC
:1057D0006F5F7F4F8F4F9F4F089557FD9058440F35
:1057E000551F59F05F3F71F04795880F97FB991F40
:1057F00061F09F3F79F087950895121613061406FD
:10580000551FF2CF4695F1DF08C016161706180689
:10581000991FF1CF86957105610508940895E89464
:10582000BB2766277727CB0197F908952F923F92E0
:105830004F925F926F927F928F929F92AF92BF92A0
:10584000CF92DF92EF92FF920F931F93CF93DF934C
:10585000CDB7DEB7CA1BDB0B0FB6F894DEBF0FBEA9
:10586000CDBF09942A88398848885F846E847D84F6
:105870008C849B84AA84B984C884DF80EE80FD80F8
:105880000C811B81AA81B981CE0FD11D0FB6F8946E
:10589000DEBF0FBECDBFED0108955058BB27AA272C
:1058A0000E94652C0C94DC2B0E94CE2B38F00E94B9
:1058B000D52B20F039F49F3F19F426F40C94CB2B10
:1058C0000EF4E095E7FB0C94C52BE92F0E94ED2B1D
:1058D00058F3BA17620773078407950720F079F425
:1058E000A6F50C940F2C0EF4E0950B2EBA2FA02DDC
:1058F0000B01B90190010C01CA01A0011124FF277D
:10590000591B99F0593F50F4503E68F11A16F04077
:10591000A22F232F342F4427585FF3CF4695379576
:105920002795A795F0405395C9F77EF41F16BA0B3B
:10593000620B730B840BBAF09150A1F0FF0FBB1FE9
:10594000661F771F881FC2F70EC0BA0F621F731F32
:10595000841F48F4879577956795B795F7959E3F8F
:1059600008F0B0CF9395880F08F09927EE0F979520
:10597000879508950E94CE2C0C94DC2B0E94D52B89
:1059800058F00E94CE2B40F029F45F3F29F00C9490
:10599000C52B51110C94102C0C94CB2B0E94ED2B89
:1059A00068F39923B1F3552391F3951B550BBB274E
:1059B000AA2762177307840738F09F5F5F4F220F93
:1059C000331F441FAA1FA9F335D00E2E3AF0E0E88A
:1059D00032D091505040E695001CCAF72BD0FE2FD4
:1059E00029D0660F771F881FBB1F26173707480768
:1059F000AB07B0E809F0BB0B802DBF01FF27935820
:105A00005F4F3AF09E3F510578F00C94C52B0C94F3
:105A1000102C5F3FE4F3983ED4F386957795679515
:105A2000B795F7959F5FC9F7880F911D9695879554
:105A300097F90895E1E0660F771F881FBB1F621773
:105A400073078407BA0720F0621B730B840BBA0B31
:105A5000EE1F88F7E09508950E94332D6894B111E8
:105A60000C94102C08950E94F52B88F09F5798F005
:105A7000B92F9927B751B0F0E1F0660F771F881F53
:105A8000991F1AF0BA95C9F714C0B13091F00E946D
:105A90000F2CB1E008950C940F2C672F782F8827D6
:105AA000B85F39F0B93FCCF3869577956795B39594
:105AB000D9F73EF490958095709561957F4F8F4F03
:105AC0009F4F0895A1E21A2EAA1BBB1BFD010DC01A
:105AD000AA1FBB1FEE1FFF1FA217B307E407F5079E
