:100000000C9437010C945F010C945F010C945F0118
:100010000C945F010C945F010C945F010C945F01E0
:100020000C945F010C945F010C945F010C945F01D0
:100030000C945F010C945F010C945F010C945F01C0
:100040000C94E6050C945F010C9456060C94300653
:100050000C945F010C945F010C945F010C945F01A0
:100060000C945F010C945F010A0B0C0D0E0F2A2AF1
:100070002A2050524553532027542720746F206262
:100080006567696E207472616E736D697474696EF0
:100090006720746F20746865206F74686572206EC5
:1000A0006F646500726164696F4E756D6265722080
:1000B0003D2000576869636820726164696F206938
:1000C0007320746869733F20456E74657220273011
:1000D00027206F72202731272E2044656661756CBA
:1000E000747320746F2027302700524632342F65F6
:1000F00078616D706C65732F47657474696E6753B2
:1001000074617274656400726164696F2068617201
:100110006477617265206973206E6F7420726573F5
:10012000706F6E64696E672121002A2A2A20434875
:10013000414E47494E4720544F205245434549566A
:100140004520524F4C45202D2D20505245535320D1
:1001500027542720544F20535749544348204241A5
:10016000434B002A2A2A204348414E47494E472004
:10017000544F205452414E534D495420524F4C45F8
:10018000202D2D2050524553532027522720544FC5
:1001900020535749544348204241434B003A2000E2
:1001A000206279746573206F6E207069706520001D
:1001B000526563656976656420005472616E736D83
:1001C000697373696F6E206661696C6564206F7214
:1001D0002074696D6564206F7574002075732E201E
:1001E00053656E743A200054696D6520746F2074F5
:1001F00072616E736D6974203D20005472616E737C
:100200006D697373696F6E2073756363657373666D
:10021000756C2120000000000800020100000304AA
:10022000070000000000000000000000002500287A
:10023000002B0000000000240027002A0004040412
:10024000040404040402020202020203030303037F
:10025000030102040810204080010204081020015C
:10026000020408102000010203040500880611247E
:100270001FBECFEFD8E0DEBFCDBF11E0A0E0B1E000
:10028000EAE6F9E102C005900D92AE32B107D9F766
:1002900021E0AEE2B1E001C01D92A93FB207E1F753
:1002A00011E0C7E3D1E004C02197FE010E94A50C34
:1002B000C633D107C9F70E94D9060C94B30C0C942D
:1002C000000090E0FC01EF5AFD4F2491835C9D4FAC
:1002D000FC018491882399F090E0880F991FFC011C
:1002E000ED5CFD4FA591B491FC01E75DFD4F85915B
:1002F00094918FB7F894EC91E22BEC938FBF089513
:1003000090E0FC01EB5EFD4F2491FC01EF5AFD4FA4
:100310003491FC01E35CFD4FE491EE23C9F022230C
:1003200039F0233001F1A8F4213019F1223029F1FC
:10033000F0E0EE0FFF1FE75DFD4FA591B4918FB781
:10034000F894EC91611126C030953E233C938FBF09
:1003500008952730A9F02830C9F0243049F780915A
:1003600080008F7D03C0809180008F778093800014
:10037000DFCF84B58F7784BDDBCF84B58F7DFBCF96
:100380008091B0008F778093B000D2CF8091B00081
:100390008F7DF9CF3E2BDACF682F8091DE010E944E
:1003A00080018091F5019091F6018230910538F03D
:1003B000880F991F880F991F05970197F1F70895E6
:1003C00081E00C94CC01682F8091DD019091DE01D9
:1003D00089130C94800108953FB7F89480913501FA
:1003E00090913601A0913701B091380126B5A89BB4
:1003F00005C02F3F19F00196A11DB11D3FBFBA2FB7
:10040000A92F982F8827BC01CD01620F711D811D76
:10041000911D42E0660F771F881F991F4A95D1F7FB
:1004200008958F929F92AF92BF92CF92DF92EF92F8
:10043000FF924B015C010E94EC016B017C010E9468
:10044000EC016C197D098E099F09683E7340810596
:100450009105A8F321E0821A9108A108B10888EE5D
:10046000C80E83E0D81EE11CF11C81149104A10484
:10047000B10429F7FF90EF90DF90CF90BF90AF903D
:100480009F908F900895AF92BF92CF92DF92EF929C
:10049000FF920F931F93CF93DF936C017B018B012E
:1004A000040F151FEB015E01AE18BF08C017D1077E
:1004B00059F06991D601ED91FC910190F081E02D08
:1004C000C6010995892B79F7C501DF91CF911F915D
:1004D0000F91FF90EF90DF90CF90BF90AF90089575
:1004E000FC01538D448D252F30E0842F90E0821B3A
:1004F000930B541710F0CF96089501970895FC01BF
:10050000918D828D981761F0A28DAE0FBF2FB11D16
:100510005D968C91928D9F5F9F73928F90E008956E
:100520008FEF9FEF0895FC01918D828D981731F028
:10053000828DE80FF11D858D90E008958FEF9FEF7C
:1005400008952FB7F8948091390190913A01A091C4
:100550003B01B0913C012FBF809345019093460130
:10056000A0934701B09348018DE391E00E9493026C
:1005700097FF26C02FB7F8948091390190913A01E6
:10058000A0913B01B0913C012FBF4091450150919A
:1005900046016091470170914801841B950BA60BA1
:1005A000B70B40914101509142016091430170911C
:1005B000440184179507A607B707B0F28FEF9FEFA6
:1005C0000895FC01918D228D892F90E0805C9F4FD2
:1005D000821B91098F73992708958DE391E00E9402
:1005E000E10221E0892B09F420E0822F089580E0C8
:1005F00090E0892B29F00E94ED0281110C940000FB
:100600000895FC01A48DA80FB92FB11DA35ABF4FA7
:100610002C91848D90E001968F739927848FA68901
:10062000B7892C93A089B1898C91837080648C9355
:10063000938D848D981306C00288F389E02D808104
:100640008F7D80830895EF92FF920F931F93CF9336
:10065000DF93EC0181E0888F9B8D8C8D98131AC0FD
:10066000E889F989808185FF15C09FB7F894EE89E4
:10067000FF896083E889F989808183708064808341
:100680009FBF81E090E0DF91CF911F910F91FF908C
:10069000EF900895F62E0B8D10E00F5F1F4F0F7334
:1006A0001127E02E8C8D8E110CC00FB607FCFACFEF
:1006B000E889F989808185FFF5CFCE010E94010389
:1006C000F1CFEB8DEC0FFD2FF11DE35AFF4FF082C0
:1006D0009FB7F8940B8FEA89FB8980818062CFCF26
:1006E0000F931F93CF93DF938C01D0E0C0E0F8010C
:1006F000EC0FFD1F6491662341F08DE391E00E94B1
:100700002303892B11F02196F2CFCE01DF91CF91F7
:100710001F910F910895CF93DF93EC01888D88236B
:10072000B9F0AA89BB89E889F9898C9185FD03C054
:10073000808186FD0DC00FB607FCF7CF8C9185FF39
:10074000F2CF808185FFEDCFCE010E940103E9CF7A
:10075000DF91CF9108958EBD00000DB407FEFDCF4F
:100760008EB50895FC0101900020E9F73197AF01A3
:10077000481B590BBC018DE391E00C9443028F920E
:100780009F92AF92BF920F931F93CF93DF93CDB7FA
:10079000DEB7A1970FB6F894DEBF0FBECDBF19A28A
:1007A000423008F44AE08E010F5D1F4F842E912CD9
:1007B000B12CA12CA50194010E94830CE62FB90154
:1007C000CA01EA30F4F4E05DD801EE938D01232BE9
:1007D000242B252B79F790E080E0109719F0CD01BC
:1007E0000E94B203A1960FB6F894DEBF0FBECDBF34
:1007F000DF91CF911F910F91BF90AF909F908F90FD
:100800000895E95CE1CFCF93DF930E947003EC0180
:100810008FE191E00E94B2038C0F9D1FDF91CF9179
:1008200008950F931F930091DF011091E001209133
:10083000E1013091E20140E052E16AE770E080E0DE
:10084000041715072607370740F4769567955795DF
:1008500047958F5F8630A1F787E0982F906A96952D
:10086000809581709CBD8DBD80E01F910F910C948F
:10087000CC01CF93DF93D82FC62F0E9411048D2F68
:1008800080620E94AB038093E3018C2F0E94AB0334
:10089000DF91CF910C94E0016091EA0161FD0AC003
:1008A00062606093EA0180E00E9439048BE19EE47B
:1008B0000197F1F70895CF93C82F0E9411048C2F50
:1008C0000E94AB038093E3018FEF0E94AB03C82F1C
:1008D0000E94E0018C2FCF910895FF920F931F93F8
:1008E000CF93DF93C82FF62E072F142F0E941104E9
:1008F0008C2F80620E94AB038093E301CF2DD02F19
:10090000115020F089910E94AB03FACFDF91CF9173
:100910001F910F91FF900C94E0010E944C04609194
:10092000EA0161606093EA0180E00E94390460E7B7
:1009300087E00E94390481E00E94E3018091EC018C
:10094000882339F04091EE0165EE71E08AE00C9465
:100950006D0482E00E945B04E5E6F2E0E49121E0B0
:1009600030E001C0220FEA95EAF72095622F682354
:1009700082E00E9439041092EC010895CF93C82FB1
:100980000E9411048C2F0E94AB038093E301CF914E
:100990000C94E00181EE0E94BE048091E301089571
:1009A00080E00E94E3018091F1019091F201823098
:1009B000910538F0880F991F880F991F05970197A7
:1009C000F1F78091ED0181110E94CA046091EA0162
:1009D0006E7F6093EA0180E00E94390482E00E9409
:1009E0005B04E5E6F2E0E49161E070E001C0660FCF
:1009F000EA95EAF7682B82E00C9439040E9411040E
:100A000080E50E94AB038093E30183E70E94AB0380
:100A10000C94E0014F925F926F927F928F929F921F
:100A2000AF92BF92CF92DF92EF92FF920F931F93FC
:100A3000CF936B017C01742EAC019B010E947E0C54
:100A4000882399F082E291E0CF911F910F91FF905E
:100A5000EF90DF90CF90BF90AF909F908F907F905E
:100A60006F905F904F900C94B20346015701E89449
:100A7000B7F82FEF3FEF4FE75FE7C501B4010E94E2
:100A80007E0C81110DC02FEF3FEF4FE75FE7C501EF
:100A9000B4010E942D0A18161CF486E291E0D4CF0E
:100AA0002FEF3FEF4FE75FE4C701B6010E94790CDB
:100AB00018161CF48AE291E0C7CF2FEF3FEF4FE703
:100AC0005FECC701B6010E942D0A87FDF3CF20E03D
:100AD00030E0A901C701B6010E942D0A10E000E034
:100AE00087FF0AC06DE28DE391E00E9423038C0131
:100AF000F7FAF094F7F8F094C0E060E070E080E07E
:100B00009FE37C1641F020E030E040E251E40E9497
:100B1000D80BCF5FF6CFA70196010E946C0B2B017B
:100B20003C010E944A0C4B015C014AE00E94BF0359
:100B30007C01E00EF11ECC23C1F1C501B4010E947D
:100B4000320A9B01AC01C301B2010E946B0B4B0145
:100B50005C016EE28DE391E00E942303E80EF91E32
:100B6000C15018F120E030E040E251E4C501B40189
:100B70000E94930A2B013C010E944A0C4B01B12CAC
:100B8000A12C4AE0C501B4010E94BF03E80EF91E82
:100B9000C501B4010E94320A9B01AC01C301B2013C
:100BA0000E946B0B4B015C01DBCFC701CF911F9102
:100BB0000F91FF90EF90DF90CF90BF90AF909F90FC
:100BC0008F907F906F905F904F9008951F920F923B
:100BD0000FB60F9211242F933F938F939F93AF9350
:100BE000BF938091390190913A01A0913B01B0915E
:100BF0003C013091340123E0230F2D3758F5019645
:100C0000A11DB11D209334018093390190933A01C5
:100C1000A0933B01B0933C01809135019091360146
:100C2000A0913701B09138010196A11DB11D8093AB
:100C3000350190933601A0933701B0933801BF91ED
:100C4000AF919F918F913F912F910F900FBE0F9079
:100C50001F90189526E8230F0296A11DB11DD2CF33
:100C60001F920F920FB60F9211242F933F934F9321
:100C70005F936F937F938F939F93AF93BF93EF9304
:100C8000FF938DE391E00E940103FF91EF91BF91EB
:100C9000AF919F918F917F916F915F914F913F9114
:100CA0002F910F900FBE0F901F9018951F920F92CB
:100CB0000FB60F9211242F938F939F93EF93FF936F
:100CC000E0914D01F0914E018081E0915301F0914E
:100CD000540182FD1BC09081809156018F5F8F73FC
:100CE00020915701821741F0E0915601F0E0E35C5A
:100CF000FE4F958F80935601FF91EF919F918F91B9
:100D00002F910F900FBE0F901F9018958081F4CFF8
:100D1000EDE3F1E01382128288EE93E0A0E0B0E010
:100D200084839583A683B78381E191E09183808357
:100D300085EC90E09587848784EC90E097878687A0
:100D400080EC90E0918B808B81EC90E0938B828B98
:100D500082EC90E0958B848B86EC90E0978B868B71
:100D6000118E128E138E148EEBEDF1E089E08283EA
:100D70008AE0838380E896E9A8E9B0E084839583DC
:100D8000A683B78380E28187108A118A85E0838BEE
:100D900081E0848B158A85E090E0A0E0B0E0828F4E
:100DA000938FA48FB58F8AED91E091838083128613
:100DB0000895789484B5826084BD84B5816084BDD3
:100DC00085B5826085BD85B5816085BD80916E00E9
:100DD000816080936E00109281008091810082601A
:100DE0008093810080918100816080938100809157
:100DF00080008160809380008091B1008460809346
:100E0000B1008091B00081608093B00080917A0041
:100E1000846080937A0080917A00826080937A0067
:100E200080917A00816080937A0080917A00806856
:100E300080937A001092C100E0914D01F0914E0133
:100E400082E08083E0914901F0914A011082E091B3
:100E50004B01F0914C0180E1808310925501E091AB
:100E60005101F091520186E08083E0914F01F091B1
:100E70005001808180618083E0914F01F0915001A9
:100E8000808188608083E0914F01F09150018081E2
:100E900080688083E0914F01F091500180818F7DC7
:100EA0008083CFB7F89480912E01811124C0E7E4AC
:100EB000F2E08491EBE5F2E09491E82FF0E0EE0FA0
:100EC000FF1FED5CFD4FA591B491EC91E92321F456
:100ED00061E08AE00E9480018AE00E9461018CB595
:100EE00080618CBD8CB580648CBD8DE00E946101F9
:100EF0008BE00E94610180912E018F5F80932E0113
:100F0000CFBF8091DD018F3F09F4A8C09091DE0131
:100F10009F3F09F4A3C0891731F00E9461018091BD
:100F2000DE010E94610180E00E94E30181E00E94F5
:100F3000CC0165E070E080E090E00E9411026FE576
:100F400084E00E94390486E00E945B0445E550E09D
:100F500060E070E04093F1015093F2016093F3017F
:100F60007093F401682F677D86E00E94390486E063
:100F70000E945B048DE10E945B04C82F0E94FE0466
:100F80008DE10E945B0491E0C81390E09093EB0127
:100F9000882341F0C81302C00E94FE0460E08DE186
:100FA0000E9439041092ED0160E08CE10E94390446
:100FB0001092EF016FE381E00E94390463E082E068
:100FC0000E94390480E28093E401C1E16091E40170
:100FD0008C2F0E943904CF5FC731C1F763E083E0F3
:100FE0000E94390485E08093EE016CE40E9439048C
:100FF00060E787E00E94390482EE0E94BE040E94EE
:10100000CA046CE080E00E94390480E00E945B0426
:101010008093EA010E944C048091EA018E30F1F441
:101020008AEE90E00E94030483EB90E00E940304A8
:101030008DE391E00E94E102892BD1F30E94A1028D
:10104000FC0197FDDBC08D32910569F0C0970A97CE
:1010500050F08DE391E00E947F02F0CF87E091E0B5
:101060000E940304FFCFC12CD12C7601C0E0E130F7
:10107000F105D9F0ED32F10509F4BEC0CF01C097FA
:101080000A9798F4AAE0B0E0A70196010E94510BDC
:101090006F01FF0FEE08FF08C60ED71EE81EF91EEF
:1010A00080E3C81AD108E108F1088DE391E00E94BD
:1010B0007F020E94A102FC01C0970A97C0F2E130B2
:1010C000F105A9F2CC2341F0F094E094D094C094BF
:1010D000C11CD11CE11CF11CC1E0CC12C0E0C093CA
:1010E0000C0184EA90E00E9470036C2F70E090E0A5
:1010F00080E04AE00E94BF038FE191E00E94B203CA
:101100008EE690E00E94030486E00E945B04887FE4
:10111000682F636086E00E94390484E08093E401D4
:10112000C1E16091E4018C2F0E943904CF5FC73187
:10113000C1F7D0910C01C6E0CD9F80011124005071
:101140001F4F4091EE01B8018AE00E946D0440916A
:10115000EE01B80180E10E946D04E9E6F0E08491BF
:1011600061E0D627CD9FB001112460507F4F4091A0
:10117000EE010E946D0482E00E945B04E6E6F2E06C
:10118000E49161E070E001C0660FEA95EAF7682B30
:1011900082E00E94390480913301882399F10E94F2
:1011A000D004C0E0D0E0F0903301FF2009F4E4C0A7
:1011B0000E94EC014B015C018091EF0110E004E022
:1011C000811107C01091E401012F153008F004E0EF
:1011D000101B0E94110480EA0E94AB038093E3017C
:1011E0003FE2C32E31E0D32E015078F0F601819119
:1011F0006F010E94AB03F8CFC1E057CFC12CD12CB7
:1012000076016ACF0E948D04CCCF115020F080E08F
:101210000E94AB03FACF0E94E00181E00E94E3014B
:101220008FB7F8944090390150903A0160903B019B
:1012300070903C018FBF8FEF0E94BE048091E3014C
:10124000807309F086C02FB7F8948091390190918E
:101250003A01A0913B01B0913C012FBF841995093F
:10126000A609B70980369105A105B10520F381E0F3
:101270008093F001F12C0E94EC012B013C01FF2036
:1012800009F475C08BEF91E00E94700387EE91E046
:101290000E947003C301B201681979098A099B0988
:1012A0004AE00E94BF038BED91E00E9470036091C1
:1012B0002F0170913001809131019091320142E013
:1012C0000E940A058FE191E00E94B2032AE037ED07
:1012D00043E25CE360912F01709130018091310114
:1012E000909132010E946C0B60932F01709330013A
:1012F000809331019093320168EE73E080E090E0DA
:101300000E9411028DE391E00E94E102892BB1F06D
:101310008DE391E00E947F020E94AB0C843509F0BE
:101320005BC080913301811109C081E0809333015A
:1013300083E691E00E9403040E94D004209709F400
:1013400032CF0E94ED02882309F42DCF0E940000C5
:101350002ACF80E00E94E30160E787E00E94390421
:101360008091E30184FF87CF0E94CA0483CF8AEB78
:1013700091E00E940304C0CF87E10E945B0480FDDE
:10138000C1CF8FEF0E94BE046091E30170E07595BC
:101390006795162F17700091E4018091EF01F02EF0
:1013A000882321F0013210F090E2F92E0E941104FE
:1013B00081E60E94AB038093E3018FE2C82E81E0B7
:1013C000D82EFA94FFEFFF16C1F08FEF0E94AB0307
:1013D000F60181936F01F5CF823509F0AFCF80918F
:1013E0003301882309F4AACF109233018AE291E0F5
:1013F0000E9403040E948D04A1CF0E94E00160E4DA
:1014000087E00E94390480EB91E00E947003602F16
:1014100070E090E080E04AE00E94BF0380EA91E043
:101420000E947003612F70E090E080E04AE00E942B
:10143000BF038DE991E00E94700360912F017091CC
:101440003001809131019091320142E00E940A0501
:101450008FE191E00E94B20355CF0E946F0A08F419
:1014600081E00895E89409C097FB3EF4909580953B
:10147000709561957F4F8F4F9F4F9923A9F0F92F5A
:1014800096E9BB279395F695879577956795B795D8
:10149000F111F8CFFAF4BB0F11F460FF1BC06F5FBE
:1014A0007F4F8F4F9F4F16C0882311F096E911C0D0
:1014B000772321F09EE8872F762F05C0662371F0F1
:1014C00096E8862F70E060E02AF09A95660F771F05
:1014D000881FDAF7880F9695879597F90895990FE1
:1014E0000008550FAA0BE0E8FEEF16161706E807EE
:1014F000F907C0F012161306E407F50798F0621B0F
:10150000730B840B950B39F40A2661F0232B242BE3
:10151000252B21F408950A2609F4A140A6958FEF02
:10152000811D811D08950E94A60A0C94170B0E942C
:10153000090B38F00E94100B20F0952311F00C9449
:10154000000B0C94060B11240C944B0B0E94280BDF
:1015500070F3959FC1F3950F50E0551F629FF00106
:10156000729FBB27F00DB11D639FAA27F00DB11D1F
:10157000AA1F649F6627B00DA11D661F829F2227A8
:10158000B00DA11D621F739FB00DA11D621F839F2F
:10159000A00D611D221F749F3327A00D611D231F05
:1015A000849F600D211D822F762F6A2F11249F5753
:1015B00050409AF0F1F088234AF0EE0FFF1FBB1F56
:1015C000661F771F881F91505040A9F79E3F510515
:1015D00080F00C94000B0C944B0B5F3FE4F3983EAF
:1015E000D4F3869577956795B795F795E7959F5FBF
:1015F000C1F7FE2B880F911D9695879597F9089551
:1016000097F99F6780E870E060E008959FEF80ECB5
:10161000089500240A941616170618060906089558
:1016200000240A9412161306140605060895092EBE
:101630000394000C11F4882352F0BB0F40F4BF2B2D
:1016400011F460FF04C06F5F7F4F8F4F9F4F08956D
:1016500057FD9058440F551F59F05F3F71F0479563
:10166000880F97FB991F61F09F3F79F08795089548
:10167000121613061406551FF2CF4695F1DF08C067
:10168000161617061806991FF1CF86957105610584
:1016900008940895E894BB2766277727CB0197F92C
:1016A00008950E945C0BA59F900DB49F900DA49F80
:1016B000800D911D11240895A29FB001B39FC00118
:1016C000A39F700D811D1124911DB29F700D811D6E
:1016D0001124911D08955058BB27AA270E94830BFF
:1016E0000C94170B0E94090B38F00E94100B20F08D
:1016F00039F49F3F19F426F40C94060B0EF4E09590
:10170000E7FB0C94000BE92F0E94280B58F3BA1743
:10171000620773078407950720F079F4A6F50C9407
:101720004A0B0EF4E0950B2EBA2FA02D0B01B90138
:1017300090010C01CA01A0011124FF27591B99F047
:10174000593F50F4503E68F11A16F040A22F232F53
:10175000342F4427585FF3CF469537952795A795A3
:10176000F0405395C9F77EF41F16BA0B620B730B4A
:10177000840BBAF09150A1F0FF0FBB1F661F771FBB
:10178000881FC2F70EC0BA0F621F731F841F48F470
:10179000879577956795B795F7959E3F08F0B0CFF9
:1017A0009395880F08F09927EE0F979587950895E0
:1017B0000E94EC0B0C94170B0E94100B58F00E9427
:1017C000090B40F029F45F3F29F00C94000B5111F4
:1017D0000C944B0B0C94060B0E94280B68F3992376
:1017E000B1F3552391F3951B550BBB27AA2762171D
:1017F0007307840738F09F5F5F4F220F331F441F2A
:10180000AA1FA9F335D00E2E3AF0E0E832D091505D
:101810005040E695001CCAF72BD0FE2F29D0660F4A
:10182000771F881FBB1F261737074807AB07B0E88D
:1018300009F0BB0B802DBF01FF2793585F4F3AF093
:101840009E3F510578F00C94000B0C944B0B5F3FBE
:10185000E4F3983ED4F3869577956795B795F79519
:101860009F5FC9F7880F911D9695879597F9089501
:10187000E1E0660F771F881FBB1F6217730784079D
:10188000BA0720F0621B730B840BBA0BEE1F88F7AC
:10189000E09508950E94300B88F09F5798F0B92F7B
:1018A0009927B751B0F0E1F0660F771F881F991F95
:1018B0001AF0BA95C9F714C0B13091F00E944A0BE2
:1018C000B1E008950C944A0B672F782F8827B85FF2
:1018D00039F0B93FCCF3869577956795B395D9F7ED
:1018E0003EF490958095709561957F4F8F4F9F4FF7
:1018F00008950E946F0A08F48FEF08950E946F0AFE
:10190000880B990B0895A1E21A2EAA1BBB1BFD019F
:101910000DC0AA1FBB1FEE1FFF1FA217B307E407CE
:10192000F50720F0A21BB30BE40BF50B661F771F26
:10193000881F991F1A9469F7609570958095909506
:101940009B01AC01BD01CF010895EE0FFF1F059073
:10195000F491E02D09949111089581568A5108F46B
:0A196000805285580895F894FFCFD7
:10196A00314E6F646500324E6F64650001000000FD
:10197A00002303430270028B03E1027F0293020DEC
:0E198A000A006E616E00696E66006F76660080
:00000001FF
