:100000000C949F000C94C7000C94C7000C94C7007C
:100010000C94C7000C94C7000C94C7000C94C70044
:100020000C94C7000C94C7000C94C7000C94C70034
:100030000C94C7000C94C7000C94C7000C94C70024
:100040000C94360D0C94C7000C94A60D0C94800DE6
:100050000C94C7000C94C7000C94C7000C94C70004
:100060000C94D80D0C94C70007634236B79BD8A7F1
:100070001A39685618AEBAAB558C1D3CB7CC5763CD
:10008000BD6DEDFD753EF6177231BF000000803F7B
:1000900008000000BE922449123EABAAAA2ABECD97
:1000A000CCCC4C3E00000080BEABAAAAAA3E000009
:1000B0000000BF000000803F000000000008417801
:1000C000D3BB4387D1133D190E3CC3BD4282AD2B38
:1000D0003E68EC8276BED98FE1A93E4C80EFFFBE30
:1000E00001C4FF7F3F00000000000000000024006A
:1000F00027002A0000000000250028002B0004042F
:1001000004040404040402020202020203030303BF
:10011000030301020408102040800102040810209B
:100120000102040810200000000800020100000382
:1001300004070000000000000000F70EF011112479
:100140001FBECFEFD8E0DEBFCDBF11E0A0E0B1E031
:10015000E6EBF2E302C005900D92A239B107D9F7A0
:1001600023E0A2E9B1E001C01D92A033B207E1F79C
:1001700010E0CEE9D0E004C02197FE010E940518EE
:10018000CD39D107C9F70E94620F0C944E190C9417
:10019000000090E0FC01EA5DFE4F2491FC01EE5E60
:1001A000FE4F3491FC01E250FF4FE491EE23C9F081
:1001B000222339F0233001F1A8F4213019F1223043
:1001C00029F1F0E0EE0FFF1FEC50FF4FA591B49125
:1001D0008FB7F894EC91611126C030953E233C9383
:1001E0008FBF08952730A9F02830C9F0243049F78F
:1001F000809180008F7D03C0809180008F778093F5
:100200008000DFCF84B58F7784BDDBCF84B58F7D51
:10021000FBCF8091B0008F778093B000D2CF8091D8
:10022000B0008F7DF9CF3E2BDACFCF93DF9390E0F4
:10023000FC01EE5EFE4F249182509F4FFC018491A1
:100240008823D1F090E0880F991FFC01E651FF4F01
:10025000A591B491FC01EC50FF4FC591D49161116F
:100260000EC09FB7F8948C91E22FE0958E238C936B
:100270002881E223E8839FBFDF91CF9108958FB754
:10028000F894EC91E22BEC938FBFF6CF823091057E
:1002900038F0880F991F880F991F05970197F1F77C
:1002A00008953FB7F8948091E0019091E101A09109
:1002B000E201B091E30126B5A89B05C02F3F19F0DC
:1002C0000196A11DB11D3FBFBA2FA92F982F8827D6
:1002D000BC01CD01620F711D811D911D42E0660FB1
:1002E000771F881F991F4A95D1F708958F929F9283
:1002F000AF92BF92CF92DF92EF92FF924B015C01DF
:100300000E9451016B017C010E9451016C197D0911
:100310008E099F09683E734081059105A8F321E08D
:10032000821A9108A108B10888EEC80E83E0D81E91
:10033000E11CF11C81149104A104B10429F7FF9080
:10034000EF90DF90CF90BF90AF909F908F900895E7
:1003500008950895AF92BF92CF92DF92EF92FF92ED
:100360000F931F93CF93DF936C017B018B01040FDD
:10037000151FEB015E01AE18BF08C017D10759F079
:100380006991D601ED91FC910190F081E02DC601BB
:100390000995892B79F7C501DF91CF911F910F91B5
:1003A000FF90EF90DF90CF90BF90AF900895FC0149
:1003B000538D448D252F30E0842F90E0821B930BCA
:1003C000541710F0CF96089501970895FC01918D70
:1003D000828D981761F0A28DAE0FBF2FB11D5D9673
:1003E0008C91928D9F5F9F73928F90E008958FEF15
:1003F0009FEF0895FC01918D828D981731F0828DC9
:10040000E80FF11D858D90E008958FEF9FEF08951F
:10041000FC01918D228D892F90E0805C9F4F821B83
:1004200091098F739927089586E592E00E9408024A
:1004300021E0892B09F420E0822F089580E090E0EC
:10044000892B29F00E94140281110C940000089558
:10045000FC01A48DA80FB92FB11DA35ABF4F2C9139
:10046000848D90E001968F739927848FA689B78930
:100470002C93A089B1898C91837080648C93938D27
:10048000848D981306C00288F389E02D80818F7DCA
:1004900080830895EF92FF920F931F93CF93DF9382
:1004A000EC0181E0888F9B8D8C8D98131AC0E889B0
:1004B000F989808185FF15C09FB7F894EE89FF897F
:1004C0006083E889F98980818370806480839FBF1D
:1004D00081E090E0DF91CF911F910F91FF90EF901D
:1004E0000895F62E0B8D10E00F5F1F4F0F7311272D
:1004F000E02E8C8D8E110CC00FB607FCFACFE88968
:10050000F989808185FFF5CFCE010E942802F1CFC5
:10051000EB8DEC0FFD2FF11DE35AFF4FF0829FB7DB
:10052000F8940B8FEA89FB8980818062CFCFCF93CB
:10053000DF93EC01888D8823B9F0AA89BB89E8890B
:10054000F9898C9185FD03C0808186FD0DC00FB6B1
:1005500007FCF7CF8C9185FFF2CF808185FFEDCF2F
:10056000CE010E942802E9CFDF91CF910895FC01CE
:1005700083858F3F19F061E00C94C9000895FC0158
:1005800080819181892B39F0A281B3819C91119650
:100590008C919CBD8DBD83858F3F19F060E00C94DC
:1005A000C9000895AF92BF92CF92DF92EF92FF926F
:1005B0000F931F93CF93DF93EC0188819981892B4F
:1005C00089F06EBD0DB407FEFDCFBEB48B2DDF915B
:1005D000CF911F910F91FF90EF90DF90CF90BF9040
:1005E000AF9008958885998511E0892B09F010E86E
:1005F000AA24A394862F812309F0A12C062F2C81F5
:100600003D814E815F8160E271EA87E090E00E9467
:100610004D16F22EB02EE12CC22ED12CFF2019F057
:10062000C6010E9446018A85877F09F042C08D85F8
:100630008F3F89F0902F912381E009F480E08A15A3
:1006400051F0EF85F8898F89992369F19081892B81
:100650008083AA24A394E989FA898081998D892BC2
:100660008083FF2019F0C6010E9446018E858F3FCE
:1006700039F0EB89FC898081988D892309F0E12A82
:10068000E989FA899081898D8095892380838E8577
:100690008F3F09F0BE2C88859985892BB9F5110FFC
:1006A0001111BCCF93CF9081809589238083A12C99
:1006B000D2CFE989FA898081998D892B8083FF20A7
:1006C00019F0C6010E9446018D858F3F49F0EF85E4
:1006D000F8898F89902F9123A9F09081892B8083AD
:1006E000E989FA899081898D8095892380838E8517
:1006F0008F3F69F2EB89FC898081988D892339F2DB
:10070000E12AC5CF908180958923E9CF1695C8CF7E
:10071000CF92DF92EF92FF920F931F93CF93DF93CD
:100720008C01EB016A0179010E94BF026881C80156
:100730000E94D202E601EC0CFD1C6FEFC8010E9482
:10074000D2028993CE15DF05C1F7C8010E94B70216
:1007500081E0DF91CF911F910F91FF90EF90DF909B
:10076000CF900895089508952091B301260F33275F
:10077000331F21323105ECF420912C02FC0190E072
:1007800080E0243069F082E00895A091B3012191C6
:10079000AC014D565E4FA40FB52FB11D2C930196A1
:1007A000861798F38091B301680F6093B30180E0DE
:1007B000089581E0089510922C0281E080932B022D
:1007C0001092060261E082E10E94C90061E083E1CB
:1007D0000E94C900E9EBF0E080818E7F80838081F8
:1007E0008D7F808388E48093B80085E48093BC008B
:1007F0000895CF93DF9391E0909392018823B9F00D
:10080000C091B800D091BA008091BC008A7B8093DF
:10081000BC0060E082E10E94C90060E083E10E94C8
:10082000C9000E94DB03D093BA00C093B800DF91E7
:10083000CF9108958F929F92AF92BF92CF92DF9205
:10084000EF92FF920F931F93CF93DF93D0915502B6
:10085000D13208F0D7C0182FC09154020E94510124
:100860006B017C0180912C0281116BC082E080932E
:100870002C0210932B028FEF80932A0210922902F0
:10088000D0932802A4E3B2E0E8E0F2E080E0D813DD
:1008900091C01092070280910702CC0FC82BC09321
:1008A000070280910602813009F088C0109206028A
:1008B0000E9451016B017C01809107028093BB0073
:1008C00080912E0290912F02A0913002B0913102BE
:1008D000892B8A2B8B2BA1F00E94510100912E02B3
:1008E00010912F0220913002309131026C197D0954
:1008F0008E099F09061717072807390708F442C011
:100900008091BC0083FDD8CF85EC8093BC000E9411
:1009100051016B017C0180912C02823009F450C09E
:1009200080912A028F3F09F46FC080912A028032A1
:1009300009F46CC080912A02803309F469C084E014
:1009400026C080912E0290912F02A0913002B0918A
:100950003102892B8A2B8B2B09F484CF0E94510101
:1009600080902E0290902F02A0903002B090310221
:100970006C197D098E099F0986169706A806B90687
:1009800008F070CF80912D020E94F90385E010924B
:1009900033021092550210923202DF91CF911F91D3
:1009A0000F91FF90EF90DF90CF90BF90AF909F900E
:1009B0008F9008959D9191938F5F69CF85EEA5CF1C
:1009C00080912E0290912F02A0913002B0913102BD
:1009D000892B8A2B8B2B09F49ECF0E945101009109
:1009E0002E0210912F0220913002309131026C19A9
:1009F0007D098E099F09061717072807390708F090
:100A00008ACFC0CF81E0C3CF80E0C1CF82E0BFCF2B
:100A100083E0BDCF1F93CF93DF93EA01122FDC0158
:100A200011968D919C91DC01ED91FC910280F381F6
:100A3000E02D0995C817D90729F4812F0E941A04BF
:100A400091E0811190E0892FDF91CF911F9108955E
:100A5000CF93DF93EC018B818823A1F0888191E013
:100A600090933202809354021092330210925502F6
:100A700081E00E941A0491E0811190E0892FDF91BA
:100A8000CF9108951092E5011092E4011092330283
:100A9000109255020E94DB0388EA91E09093D801FE
:100AA0008093D70189EA91E09093DA018093D9018C
:100AB00081E08B83CE010E942805982F8111CECF33
:100AC000DDCF0895E091E5018091E401E81730F46D
:100AD000F0E0EA51FE4F808190E008958FEF9FEFA4
:100AE00008959091E5018091E4012FEF3FEF981771
:100AF00048F4E92FF0E0EA51FE4F208130E09F5F9B
:100B00009093E501C90108958091E4019091E50178
:100B1000891B990B0895CF92DF92EF92FF920F936A
:100B20001F93CF93DF937C01CB018A012091320286
:100B3000222389F0EB016B01C40ED51ECC15DD0517
:100B400069F06991D701ED91FC910190F081E02D60
:100B5000C7010995F3CF642F0E94B403C801DF9148
:100B6000CF911F910F91FF90EF90DF90CF9008955C
:100B7000CF93DF931F92CDB7DEB769832091320206
:100B80002223F9F020915502203258F021E030E084
:100B9000FC013383228390E080E00F90DF91CF91BE
:100BA000089580913302E82FF0E0EC5CFD4F9981CD
:100BB00090838F5F809333028093550281E090E0B1
:100BC000ECCF61E0CE0101960E94B403F7CF90E034
:100BD00080E008950F931F93CF93DF9300D0CDB79C
:100BE000DEB76A83E0910103F09102033097F9F0D8
:100BF000898384819581029798F0808191E0909318
:100C0000320280935402109233021092550221E076
:100C100042E050E0BE016F5F7F4FCF010E940A05A6
:100C20000F900F90DF91CF911F910F9108958F77C3
:100C300089830091030310910403C8010E94BF023D
:100C40006981C8010E94D2026A81C8010E94D20251
:100C5000C8010E94B702E4CFCF93DF93CBE2D3E089
:100C60008770886E8883EAE2F3E0962F9770990F79
:100C7000990F990F8081807C242F2770892B822BDC
:100C8000808395E0440F551F9A95E1F787FB8827ED
:100C900080F9482B660F771F660F771F642B85EF4F
:100CA0000E94EA058881682F677090E2699FB00111
:100CB0001124282F269526952695277094E0299FA4
:100CC00090011124622B8295869586958370682BFE
:100CD00084EFDF91CF910C94EA052F923F924F92CF
:100CE0005F926F927F928F929F92AF92BF92CF92BC
:100CF000DF92EF92FF920F931F93CF93DF93DC016C
:100D00001496ED91FC911597EF2B09F425C169011B
:100D10002A01EC01888191E0909332028093540281
:100D2000109233021092550220E041E050E0CD01D4
:100D30000E940A05782E882309F40EC1F12CE12CBB
:100D4000332433948C819D8186010E191F098017ED
:100D5000910708F48C0128800E9451014B015C012D
:100D600080912C02811173C0602EB0E2B01710F494
:100D700080E2682E30922C0221E0C601801B910B8C
:100D8000E816F90608F420E020932B02EFEFE09339
:100D90002A02109229028FEF860D8093280230924A
:100DA000070280910702220C282A209207028091D4
:100DB0000602813009F090C0109206020E94510193
:100DC0004B015C01809107028093BB0080912E0251
:100DD00090912F02A0913002B0913102892B8A2B81
:100DE0008B2BA1F00E94510120912E0230912F02F5
:100DF0004091300250913102681979098A099B09A2
:100E0000261737074807590708F442C08091BC00ED
:100E100083FDD8CFF5ECF093BC000E9451014B014B
:100E20005C0180912C02813009F45AC08091290222
:100E3000861510F460902902A8E0B2E0E6EEF1E039
:100E400080E0861551F19D9191938F5FFACF80914B
:100E50002E0290912F02A0913002B0913102892B85
:100E60008A2B8B2B09F47CCF0E94510120912E02FA
:100E700030912F0240913002509131026819790966
:100E80008A099B09261737074807590708F068CFD2
:100E900080912D020E94F903612C1092E50160926D
:100EA000E4016016110609F057C042018E0C9F1C28
:100EB0005401C501881999098017910798F589810E
:100EC0009A81DC01ED91FC910284F385E02D099576
:100ED000F50181935F01EDCF85EE8093BC009DCF3E
:100EE00080912E0290912F02A0913002B091310298
:100EF000892B8A2B8B2B09F494CF0E9451012091CE
:100F00002E0230912F024091300250913102681927
:100F100079098A099B09261737074807590708F0F6
:100F200080CFB6CFE00EF11EEC14FD0408F40ACF1A
:100F3000872DDF91CF911F910F91FF90EF90DF9060
:100F4000CF90BF90AF909F908F907F906F905F9069
:100F50004F903F902F900895712CEACFCF93DF935D
:100F600000D0CDB7DEB7E0910103F0910203898391
:100F700022E030E0AE014F5F5F4FBA01309751F091
:100F8000CF010E946D0689819A810F900F90DF91A9
:100F9000CF91089580910303909104030E948803E8
:100FA000F2CFCF93DF9300D01F92CDB7DEB7FC0115
:100FB00082819381698323E030E0AE014F5F5F4F10
:100FC000BA010097A1F00E946D0629816A8170E044
:100FD00090E080E0982F872F762F6627822B2B8139
:100FE000622B0F900F900F90DF91CF910895848125
:100FF00095810E948803E9CF8F929F92AF92BF9212
:10100000CF92DF92EF92FF920F931F93CF93DF93D4
:10101000EC016AEF0E94D1070B891C8930E020E0C7
:10102000C72ED82EE92EFF24E7FCFA94C01AD10A65
:10103000E20AF30A57E095958795779567955A9553
:10104000D1F7000F111F221F331F4B015C01801AC3
:10105000910AA20AB30AA5019401AD89BE890E9432
:101060007A164B015C01FBE0B594A79497948794A2
:10107000FA95D1F7A7019601C701B6010E943D1666
:101080009B01AC01ACE05595479537952795AA95FE
:10109000D1F7AF89B88D0E947A169B01AC01BEE0F2
:1010A0005595479537952795BA95D1F7280D391D50
:1010B0004A1D5B1D2F87388B498B5A8BA5E0B0E00A
:1010C0000E946F1660587F4F8F4F9F4F672F782F6A
:1010D000892F992787FD9A950E94431320E030E0DD
:1010E00048EC52E40E949A12DF91CF911F910F9128
:1010F000FF90EF90DF90CF90BF90AF909F908F9038
:1011000008952F923F924F925F926F927F928F92AB
:101110009F92AF92BF92CF92DF92EF92FF920F9386
:101120001F93CF93DF93CDB7DEB76D970FB6F894CB
:10113000DEBF0FBECDBF9D8F8C8FFC018385948554
:10114000A585B685892B8A2B8B2B19F0CF010E94A0
:10115000FC0767EF8C8D9D8D0E94D107688F798F7A
:101160008A8F9B8FEC8DFD8D87859089A189B289AF
:101170006C017D01FF0CCC08DC2C76019C01AD01DB
:101180006C2D7C2D8C2D9C2D345F414051096109C3
:1011900071098109910929873A874B875C873B014F
:1011A0004C0159016A017B018C010E948216322E8A
:1011B000232E4A8B5B8B6C8B7D8B8E8B9F8BAC8DA8
:1011C000BD8D5C963C915C975B962C91932F990F0B
:1011D000990B492F592F692F792F892F0E94821639
:1011E0000CE00E94B117522E39834D875E876F87BE
:1011F000788B898B492EEC8DFD8D368D258D932F27
:10120000990F990BA32CB22CCA88DB88EC88FD8837
:101210000E891F89492F592F692F792F892F0E94F5
:10122000821608E00E94CA17A52CB980CD84DE84FE
:10123000EF84F8880989142D0E94E71770588F4FA2
:101240009F4FAC8DBD8D5996ED91FC915F01D12CD6
:10125000C12CE12CF12C8701E983BA82CB82DC829C
:10126000ED82FE820F831887C12CD12CE12CF12C4A
:1012700000E010E00E94821601E20E94CA17298352
:10128000532E4D875E876F87788B898B492EA0E020
:101290000E94F91709F43DC1AC8DBD8D94963C9127
:1012A000949793962C91932F990F990BA32CB22C72
:1012B000CA88DB88EC88FD880E891F89492F592F41
:1012C000692F792F892F0E94821619014A8B5B8B17
:1012D0006C8B7D8B8E8B9F8BEC8DFD8D32A121A134
:1012E000932F990F990BA984BA84CB84DC84730162
:1012F0008401492F592F692F792F892F0E94821637
:1013000001E10E94B1175101CA88DB88EC88FD8891
:101310000E891F890E94E71759016A017B01282E57
:10132000192F488D598D6A8D7B8D84E07595679551
:10133000579547958A95D1F780E090E0A0E1B0E01D
:10134000841B950BA60BB70B3C014D01990C66084D
:10135000762C43019C01AD01662D762D862D962DB0
:101360000FE10E94B117722E832E942E652EB62F98
:10137000A72F382E9987EC8DFD8D30A1278D932FC7
:10138000990F990B492F592F692F792F892F03E234
:101390000E94B117022D0E94E71759016A017B01D3
:1013A0008C01272D382D492D562D6B2F7A2F832D0B
:1013B00099850E94F017E5E3AE2EFCE0BF2EC12C0C
:1013C000D12CE12CF12C00E010E00E948216A980C3
:1013D000B52CCD84DE84EF84F8880989142D0E9411
:1013E000DC1629873A874B875C8769837D878E87E0
:1013F0009F870DE00E94CA17922E832E742E652EB1
:10140000562E472E382E292EAC8DBD8D9A963C91A6
:101410009A9799962C91932F990F990BA92CB82CE8
:10142000C72CD62CE52CF42C032D122D492F592F27
:10143000692F792F892F0E9482160E94821609E156
:101440000E94CA17A984BA84CB84DC84E980FD8415
:101450000E851F850E94E71719012A013B014C01E7
:10146000EC8DFD8D30A527A1932F990F990B492F56
:10147000592F692F792F892F0E94821603E10E942C
:10148000CA1759016A017B018C019101A201B301C4
:10149000C4010E94E71708E00E94CA1759016A01B7
:1014A0007B01E82F192FAC8DBD8D96963C919697B8
:1014B00095962C91932F990F990B492F592F692F9E
:1014C000792F892F04E00E94B1170E2F0E94E71791
:1014D0000E943B1320E030E040E85BE30E944614AA
:1014E0006D960FB6F894DEBF0FBECDBFDF91CF91E2
:1014F0001F910F91FF90EF90DF90CF90BF90AF9032
:101500009F908F907F906F905F904F903F902F9023
:10151000089560E070E0CB01E3CFFC010190002072
:10152000E9F73197AF01481B590BBC0186E592E002
:101530000C94AA018F929F92AF92BF920F931F9328
:10154000CF93DF93CDB7DEB7A1970FB6F894DEBF88
:101550000FBECDBF19A2423008F44AE08E010F5DE4
:101560001F4F842E912CB12CA12CA50194010E9417
:101570004D16E62FB901CA01EA30F4F4E05DD80156
:10158000EE938D01232B242B252B79F790E080E01F
:10159000109719F0CD010E948D0AA1960FB6F8940C
:1015A000DEBF0FBECDBFDF91CF911F910F91BF90D6
:1015B000AF909F908F900895E95CE1CF4F925F923A
:1015C0006F927F928F929F92AF92BF92CF92DF9253
:1015D000EF92FF920F931F93CF936B017C01742EB8
:1015E000AC019B010E940315882399F086E491E0E9
:1015F000CF911F910F91FF90EF90DF90CF90BF9010
:10160000AF909F908F907F906F905F904F900C94D1
:101610008D0A46015701E894B7F82FEF3FEF4FE7E7
:101620005FE7C501B4010E94031581110DC02FEFC2
:101630003FEF4FE75FE7C501B4010E94951218160E
:101640001CF48AE491E0D4CF2FEF3FEF4FE75FE443
:10165000C701B6010E94411418161CF48EE491E0F3
:10166000C7CF2FEF3FEF4FE75FECC701B6010E94F6
:10167000951287FDF3CF20E030E0A901C701B60144
:101680000E94951210E000E087FF0AC06DE286E537
:1016900092E00E944A028C01F7FAF094F7F8F09475
:1016A000C0E060E070E080E09FE37C1641F020E065
:1016B00030E040E251E40E949A12CF5FF6CFA701DA
:1016C00096010E9429122B013C010E940C134B0130
:1016D0005C014AE00E949A0A7C01E00EF11ECC23D4
:1016E000C1F1C501B4010E9441139B01AC01C301CA
:1016F000B2010E9428124B015C016EE286E592E085
:101700000E944A02E80EF91EC15018F120E030E0B4
:1017100040E251E4C501B4010E9446142B013C0192
:101720000E940C134B01B12CA12C4AE0C501B4015D
:101730000E949A0AE80EF91EC501B4010E944113E5
:101740009B01AC01C301B2010E9428124B015C0154
:10175000DBCFC701CF911F910F91FF90EF90DF90EA
:10176000CF90BF90AF909F908F907F906F905F9041
:101770004F9008950C94B6180C94B618CF93DF933D
:10178000EB01FB01349620E2DF011D922A95E9F777
:1017900044E250E060E070E0488359836A837B83D1
:1017A000FC0142815381052E000C660B770B4C83A4
:1017B0005D836E837F8346E050E060E070E04887A1
:1017C00059876A877B872FB7F8944091DC01509145
:1017D000DD016091DE017091DF012FBF488B598BD5
:1017E0006A8B7B8B84819581FC014385548565855B
:1017F0007685452B462B472B81F00E94810820E0FF
:1018000030E048EC52E40E949A126C8B7D8B8E8BF8
:101810009F8B81E0DF91CF91089560E070E080ECD4
:101820009FE7EDCFCF93DF93EB01FB01349620E2EE
:10183000DF011D922A95E9F744E250E060E070E094
:10184000488359836A837B83FC0142815381052E3F
:10185000000C660B770B4C835D836E837F834DE0BA
:1018600050E060E070E0488759876A877B872FB730
:10187000F8944091DC015091DD016091DE0170919E
:10188000DF012FBF488B598B6A8B7B8B84819581BD
:10189000FC014385548565857685452B462B472B72
:1018A00051F00E94FC076C8B7D8B8E8B9F8B81E0AF
:1018B000DF91CF91089560E070E080EC9FE7F3CF77
:1018C0000F931F93CF93DF938C01EB0188E2FB0111
:1018D00011928A95E9F74BE050E062E571E0CE01A4
:1018E0000E943F191B8681E090E0A0E0B0E08C8769
:1018F0009D87AE87BF87F80182819381092E000CF6
:10190000AA0BBB0B888B998BAA8BBB8B86E090E0D4
:10191000A0E0B0E08C8B9D8BAE8BBF8B1CA21DA278
:101920001EA21FA280E090E0A6E9B3E48C8F9D8FF9
:10193000AE8FBF8F80E090E8A9E8B4E4888F998FDC
:10194000AA8FBB8F86EA9BE9A4E4BCE388A399A392
:10195000AAA3BBA3DF91CF911F910F9108950F937D
:101960001F93CF93DF938C01EB0188E2FB0111926F
:101970008A95E9F74BE050E062E571E0CE010E9404
:101980003F191B8681E090E0A0E0B0E08C879D8746
:10199000AE87BF87F80182819381092E000CAA0BC4
:1019A000BB0B888B998BAA8BBB8B8DE090E0A0E062
:1019B000B0E08C8B9D8BAE8BBF8B1CA21DA21EA298
:1019C0001FA280E090E0A0E2B2EC8C8F9D8FAE8FE2
:1019D000BF8F80E090E0AAEAB2E4888F998FAA8F47
:1019E000BB8F8AE097EDA3E2BCE388A399A3AAA3E7
:1019F000BBA3DF91CF911F910F91089585ED809347
:101A0000BC0080912E0290912F02A0913002B091E3
:101A100031020796A11DB11D23E0B695A7959795B4
:101A200087952A95D1F72091BC0024FD03C0109220
:101A30002C02089540912E0250912F0260913002A5
:101A400070913102452B462B472B69F30097A10576
:101A5000B10541F02AE22A95F1F700C00197A109EA
:101A6000B109E1CF80912D020C94F9031F920F92DE
:101A70000FB60F9211242F933F938F939F93AF93A1
:101A8000BF938091DC019091DD01A091DE01B091C6
:101A9000DF013091DB0123E0230F2D3758F501964C
:101AA000A11DB11D2093DB018093DC019093DD012A
:101AB000A093DE01B093DF018091E0019091E101FC
:101AC000A091E201B091E3010196A11DB11D8093A7
:101AD000E0019093E101A093E201B093E301BF9193
:101AE000AF919F918F913F912F910F900FBE0F90CB
:101AF0001F90189526E8230F0296A11DB11DD2CF85
:101B00001F920F920FB60F9211242F933F934F9372
:101B10005F936F937F938F939F93AF93BF93EF9355
:101B2000FF9386E592E00E942802FF91EF91BF911A
:101B3000AF919F918F917F916F915F914F913F9165
:101B40002F910F900FBE0F901F9018951F920F921C
:101B50000FB60F9211242F938F939F93EF93FF93C0
:101B6000E0916602F09167028081E0916C02F09151
:101B70006D0282FD1BC0908180916F028F5F8F7319
:101B800020917002821741F0E0916F02F0E0EA5A72
:101B9000FD4F958F80936F02FF91EF919F918F91F1
:101BA0002F910F900FBE0F901F9018958081F4CF4A
:101BB0001F920F920FB60F9211242F933F934F93C2
:101BC0005F936F937F938F939F93AF93BF93EF93A5
:101BD000FF938091B900887F803609F44AC0F0F500
:101BE000883209F4A7C018F5803109F49BC0B8F415
:101BF000882309F4F9C0883009F494C0FF91EF916B
:101C0000BF91AF919F918F917F916F915F914F9114
:101C10003F912F910F900FBE0F901F901895883114
:101C200009F488C0803251F780932A0214C08034AE
:101C300009F49DC040F48033B9F38833F9F68093FA
:101C40002A0285ECB0C0803509F485C0883509F4D6
:101C500096C0883499F60E94FE0CD0CF883909F4DA
:101C60008CC038F5883729F050F4883611F0803769
:101C700029F683E080932C021092D50157C0883852
:101C800009F47BC0803919F0803809F0B7CF809112
:101C9000D501803208F071C0E091D50181E08E0F4E
:101CA0008093D5018091BB00F0E0EB54FE4F808320
:101CB0003DC0803B39F0E0F4803A09F479C0883ABD
:101CC00009F09CCF84E080932C021092B401109212
:101CD000B301E091D701F091D80109958091B3014A
:101CE00081110FC081E08093B3011092930109C06C
:101CF000803C09F4A6CF883C09F4A3CF883B09F0C7
:101D00007DCFE091B40181E08E0F8093B401F0E0CB
:101D1000ED56FE4F80818093BB009091B40180917D
:101D2000B30129C0809107028093BB0085EC8093AA
:101D3000BC0064CF9091290280912802981758F531
:101D4000E091290281E08E0F80932902F0E0E85FA4
:101D5000FD4F8081E9CFE091290281E08E0F8093D1
:101D600029028091BB00F0E0E85FFD4F80839091F5
:101D70002902809128029817C8F285E8D8CFE0910F
:101D8000290281E08E0F809329028091BB00F0E050
:101D9000E85FFD4F808380912B0281115CCF81E051
:101DA0008093060284EA8093BC0010922C0226CF16
:101DB00085EC8093BC0010922C028091D50180327A
:101DC00030F4E091D501F0E0EB54FE4F10826091C9
:101DD000D50170E0E091D901F091DA0185EB91E055
:101DE00009951092D5010ACF10922A0234CFCF93D1
:101DF000DF93E6E5F2E01382128288EE93E0A0E042
:101E0000B0E084839583A683B7832AE031E03183F1
:101E1000208325EC30E03587248724EC30E03787B9
:101E2000268720EC30E0318B208B21EC30E0338BA7
:101E3000228B22EC30E0358B248B26EC30E0378B84
:101E4000268B118E128E138E148EE3EFF2E0138226
:101E5000128284839583A683B7838CE191E091837A
:101E60008083CFEFD2E01B821A821D821C821B86E8
:101E70001C861D861E861BA61CA6F983E88386E0A9
:101E800090E00E941A18FC018CE391E0918380831A
:101E900088E191E093838283D583C483FF83EE83BB
:101EA00086E090E00E941A18FC018EE291E0918396
:101EB000808313821282D583C483F987E887DF91F8
:101EC000CF910895CF93DF931F92CDB7DEB778946B
:101ED00084B5826084BD84B5816084BD85B582602F
:101EE00085BD85B5816085BD80916E0081608093E0
:101EF0006E00109281008091810082608093810049
:101F00008091810081608093810080918000816058
:101F1000809380008091B10084608093B1008091B3
:101F2000B00081608093B00080917A0084608093DB
:101F30007A0080917A00826080937A0080917A00A2
:101F4000816080937A0080917A00806880937A0023
:101F50001092C100E0916602F091670282E08083F6
:101F6000E0916202F09163021082E0916402F091CC
:101F7000650280E1808310926E02E0916A02F09126
:101F80006B0286E08083E0916802F09169028081B3
:101F900080618083E0916802F091690280818860AD
:101FA0008083E0916802F09169028081806880837B
:101FB000E0916802F091690280818F7D80830091B9
:101FC0000303109104030115110509F046C0809127
:101FD000010390910203009711F00E94B61886E069
:101FE00090E00E941A188C018091FF0290910003EA
:101FF00026E7F801208392838183138280E290E0B8
:102000009583848310930203009301031092E501EA
:102010001092E40110923302109255020E94DB03E9
:1020200088EA91E09093D8018093D70189EA91E002
:102030009093DA018093D90181E0F8018383C8018C
:102040000E942805811151C089E591E00E948D0A06
:102050008AE691E00E948D0AFFCFF80183858F3FC9
:1020600041F061E00E94150161E0F80183850E9462
:10207000C900F80180819181892B09F46FC1FFB6F5
:10208000F8948091D601811127C0E8E0F1E08491B5
:10209000ECE1F1E09491E82FF0E0EE0FFF1FE65144
:1020A000FF4FA591B491EC91E92321F461E08AE01E
:1020B0000E94C90061E08AE00E9415018CB5806130
:1020C0008CBD8CB580648CBD61E08DE00E941501F3
:1020D00061E08BE00E9415018091D6018F5F8093B3
:1020E000D601FFBE81E0F801838F809101039091BA
:1020F0000203009709F454C120ED298321E030E068
:10210000AE014F5F5F4FBA010E946D06898190E07A
:10211000B0E0A0E080930A0390930B03A0930C031C
:10212000B0930D0388359105A105B10509F08CCF59
:1021300088E80E94AE0790931303809312038AE805
:102140000E94AE0790931503809314038CE80E94BD
:10215000AE0790931703809316038EE80E94AE0794
:10216000909319038093180380E90E94AE0790931F
:102170001B0380931A0382E90E94AE0790931D030C
:1021800080931C0384E90E94AE0790931F03809301
:102190001E0386E90E94AE079093210380932003DB
:1021A00088E90E94AE0790932303809322038AE973
:1021B0000E94AE0790932503809324038CE90E942C
:1021C000AE0790932703809326038EE90E94AE0703
:1021D000909329038093280380910A0390910B0325
:1021E000A0910C03B0910D03892B8A2B8B2B41F00E
:1021F00050E040E070E060E085E090E00E942C0656
:1022000064E670E080E090E00E94760180910A032D
:1022100090910B03A0910C03B0910D03892B8A2B95
:102220008B2B41F044E050E064E070E082E090E00D
:102230000E942C0600E010E080910A0390910B03AD
:10224000A0910C03B0910D03892B8A2B8B2B09F4E1
:10225000B6C08FEF92E00E94FC076B017C01809179
:102260000A0390910B03A0910C03B0910D03892BED
:102270008A2B8B2B09F4AAC08FEF92E00E94810871
:1022800020E030E048EC52E40E949A124B015C01DD
:1022900080910A0390910B03A0910C03B0910D0360
:1022A000892B8A2B8B2B09F496C08FEF92E00E942A
:1022B000810820E030E048EC52E40E949A1220E0CD
:1022C00030E54DE754E40E949A1221E03EED42E4ED
:1022D0005EE30E94B3142B013C018DE691E00E9465
:1022E0008D0A42E0C701B6010E94DE0A83E791E051
:1022F0000E948D0A42E0C501B4010E94DE0A80E816
:1023000091E00E948D0AA301920160E070E080E8F4
:102310009FE30E94281220E03AE24DE257E40E9437
:10232000461442E00E94DE0A8FE891E00E948D0A86
:102330008AE691E00E948D0A68EE73E080E090E00A
:102340000E9476010115110509F476CF0E9414024E
:10235000882309F471CF0E9400006ECF61E084856C
:102360000E941501F80182858B7F60E009F061E031
:1023700084850E94C900F80185858F3F41F061E0A6
:102380000E94150161E0F80185850E94C900F801ED
:1023900086858F3F09F4A6CE60E00E941501A2CE8B
:1023A00080ED898321E030E0AE014F5F5F4FBA01DD
:1023B00080910303909104030E948803A7CEC12C4F
:1023C000D12C80ECE82E8FE7F82E49CF60E070E04A
:1023D00080EC9FE755CF60E070E080EC9FE769CF2D
:1023E000CF93DF93C0910303D0910403209749F06A
:1023F0008A819B81009711F00E94B618CE010E943D
:10240000B6188091010390910203009711F00E9489
:10241000B6188091050390910603009739F0DC010E
:10242000ED91FC910280F381E02D099580910703E5
:1024300090910803009749F0DC01ED91FC91028036
:10244000F381E02DDF91CF910994DF91CF91089531
:102450005058BB27AA270E9440120C9407140E94D0
:10246000F91338F00E94001420F039F49F3F19F45A
:1024700026F40C94E6130EF4E095E7FB0C94E013BD
:10248000E92F0E94181458F3BA17620773078407DC
:10249000950720F079F4A6F50C943A140EF4E09523
:1024A0000B2EBA2FA02D0B01B90190010C01CA010E
:1024B000A0011124FF27591B99F0593F50F4503EB9
:1024C00068F11A16F040A22F232F342F4427585FAB
:1024D000F3CF469537952795A795F0405395C9F7C3
:1024E0007EF41F16BA0B620B730B840BBAF091507B
:1024F000A1F0FF0FBB1F661F771F881FC2F70EC01A
:10250000BA0F621F731F841F48F4879577956795EC
:10251000B795F7959E3F08F0B0CF9395880F08F0D8
:102520009927EE0F9795879508950E94BC1308F49C
:1025300081E008950E94AE120C9407140E940014CA
:1025400058F00E94F91340F029F45F3F29F00C94F1
:10255000E01351110C943B140C94E6130E941814D0
:1025600068F39923B1F3552391F3951B550BBB27C2
:10257000AA2762177307840738F09F5F5F4F220F07
:10258000331F441FAA1FA9F335D00E2E3AF0E0E8FE
:1025900032D091505040E695001CCAF72BD0FE2F48
:1025A00029D0660F771F881FBB1F261737074807DC
:1025B000AB07B0E809F0BB0B802DBF01FF27935894
:1025C0005F4F3AF09E3F510578F00C94E0130C9465
:1025D0003B145F3FE4F3983ED4F386957795679577
:1025E000B795F7959F5FC9F7880F911D96958795C9
:1025F00097F90895E1E0660F771F881FBB1F6217E8
:1026000073078407BA0720F0621B730B840BBA0BA5
:10261000EE1F88F7E09508950E94201488F09F57D8
:1026200098F0B92F9927B751B0F0E1F0660F771FF6
:10263000881F991F1AF0BA95C9F714C0B13091F0EC
:102640000E943A14B1E008950C943A14672F782F41
:102650008827B85F39F0B93FCCF3869577956795B1
:10266000B395D9F73EF490958095709561957F4F1D
:102670008F4F9F4F089597FB16F40E94E9130C9417
:102680007F13E89409C097FB3EF490958095709570
:1026900061957F4F8F4F9F4F9923A9F0F92F96E9AE
:1026A000BB279395F695879577956795B795F11123
:1026B000F8CFFAF4BB0F11F460FF1BC06F5F7F4FC0
:1026C0008F4F9F4F16C0882311F096E911C07723D2
:1026D00021F09EE8872F762F05C0662371F096E8DB
:1026E000862F70E060E02AF09A95660F771F881FAA
:1026F000DAF7880F9695879597F90895E894F92F5A
:1027000096EBFF2381F0121613061406440B9395E3
:10271000F69587957795679557954040FF23B9F7CC
:102720001BC099270895882351F49850D2F7872B1E
:10273000762F652F542F432F322F20E0B1F312163E
:1027400013061406440B88233AF09A95440F551F3C
:10275000661F771F881FCAF755234AF4440F551F79
:1027600011F460FF04C06F5F7F4F8F4F9F4F880F42
:102770009695879597F90895990F0008550FAA0B1C
:10278000E0E8FEEF16161706E807F907C0F0121684
:102790001306E407F50798F0621B730B840B950B87
:1027A00039F40A2661F0232B242B252B21F40895DC
:1027B0000A2609F4A140A6958FEF811D811D089579
:1027C00097F99F6780E870E060E008959FEF80ECE4
:1027D00008959095809570956095509540953095A9
:1027E00021953F4F4F4F5F4F6F4F7F4F8F4F9F4F01
:1027F000089500240A941616170618060906089567
:1028000000240A9412161306140605060895092ECC
:102810000394000C11F4882352F0BB0F40F4BF2B3B
:1028200011F460FF04C06F5F7F4F8F4F9F4F08957B
:1028300057FD9058440F551F59F05F3F71F0479571
:10284000880F97FB991F61F09F3F79F08795089556
:10285000121613061406551FF2CF4695F1DF08C075
:10286000161617061806991FF1CF86957105610592
:1028700008940895E894BB2766277727CB0197F93A
:1028800008950E94BC1308F48FEF08950E94591414
:102890000C9407140E94F91338F00E94001420F0E1
:1028A000952311F00C94E0130C94E61311240C946E
:1028B0003B140E94181470F3959FC1F3950F50E0DC
:1028C000551F629FF001729FBB27F00DB11D639FE2
:1028D000AA27F00DB11DAA1F649F6627B00DA11D88
:1028E000661F829F2227B00DA11D621F739FB00D2E
:1028F000A11D621F839FA00D611D221F749F33279E
:10290000A00D611D231F849F600D211D822F762F36
:102910006A2F11249F5750409AF0F1F088234AF013
:10292000EE0FFF1FBB1F661F771F881F915050407F
:10293000A9F79E3F510580F00C94E0130C943B14D2
:102940005F3FE4F3983ED4F3869577956795B79506
:10295000F795E7959F5FC1F7FE2B880F911D969520
:10296000879597F90895FA01EE0FFF1F309621051C
:102970003105A1F16115710561F48038BFE39B0752
:1029800049F168949038810561F08038BFEF9B076A
:1029900041F099234AF5FF3FE1053105210519F181
:1029A000E8940894E795D901AA2329F4AB2FBE2F08
:1029B000F85FD0F310C0FF5F70F4A695E0F7F73929
:1029C00050F019F0FF3A38F49F779F930DD00F9095
:1029D00007FC9058089546F00C94E61360E070E010
:1029E00080E89FE308954FE79F775F934F933F936E
:1029F0002F930E94B3152F913F914F915F910E94A9
:102A000046140C9410150E94BC13880B990B089562
:102A100029F416F00C94E0130C943A140C94E61379
:102A20000E942014A8F39638A0F707F80F92E894B4
:102A30002BE33AEA48EB5FE70E945C140F920F9297
:102A40000F924DB75EB70F920E94FB15E8E6F0E0DB
:102A50000E9442154F915F91EF91FF91E595EE1F16
:102A6000FF1F49F0FE57E0684427EE0F441FFA9518
:102A7000E1F74195550B0E9475150F9007FE0C94D8
:102A800069150895DF93CF931F930F93FF92EF92F1
:102A9000DF927B018C01689406C0DA2EEF010E9460
:102AA0005914FE01E894A5912591359145915591D0
:102AB000A6F3EF010E944012FE019701A801DA94EB
:102AC00069F7DF90EF90FF900F911F91CF91DF9109
:102AD00008959B01AC0160E070E080E89FE30C94F6
:102AE0009A120C94E0130C942F160E942014D8F321
:102AF0009923C9F3940F511DA3F39150504094F0C2
:102B000059F0882332F0660F771F881F915050408C
:102B1000C1F79E3F51052CF7880F911D969587951B
:102B200097F908955F3FACF0983E9CF0BB278695DF
:102B300077956795B79508F4B1609395C1F7BB0F8A
:102B400058F711F460FFE8CF6F5F7F4F8F4F9F4FB3
:102B5000E3CF0C943B1416F00C942F160C94E61350
:102B600068940C94E0130E942014A8F39923C1F3F5
:102B7000AEF3DF93CF931F930F93FF92C92FDD27FF
:102B800088232AF02197660F771F881FDAF720E045
:102B900030E040E85FEB9FE3883920F0803E38F07A
:102BA00021968F770E942912E0E9F0E004C00E948C
:102BB0002912EDEBF0E00E9442158B01BE01EC0101
:102BC000FB2E6F5771097595771F880B990B0E9423
:102BD000431328E132E741E35FE30E945914AF2D2C
:102BE0009801AE01FF900F911F91CF91DF910E944C
:102BF00040120C940714FA01DC01AA0FBB1F9B01C1
:102C0000AC01BF5728F4222733274427507820C02F
:102C1000B75190F4AB2F0024469537952795011CAA
:102C2000A395D2F3002071F0220F331F441FB395F8
:102C3000DAF30ED00C94281261307105A0E88A07EF
:102C4000B94630F49B01AC01662777278827907836
:102C5000309621F0208331834283538308959F3F30
:102C600031F0915020F4879577956795B795880F47
:102C7000911D9695879597F90895DB018F939F9302
:102C80000E946F16BF91AF91A29F800D911DA39FCF
:102C9000900DB29F900D11240895A1E21A2EAA1B47
:102CA000BB1BFD010DC0AA1FBB1FEE1FFF1FA217FC
:102CB000B307E407F50720F0A21BB30BE40BF50BF9
:102CC000661F771F881F991F1A9469F76095709582
:102CD000809590959B01AC01BD01CF0108950E94A4
:102CE0000B18A59F900DB49F900DA49F800D911D72
:102CF00011240895B7FF0C946F160E946F16821B63
:102D0000930B0895DF93CF931F930F939A9DF02D0C
:102D1000219FF00D8B9DF00D8A9DE02DF10D039FFD
:102D2000F00D029FE00DF11D4E9DE00DF11D5E9D29
:102D3000F00D4F9DF00D7F936F93BF92AF925F9315
:102D40004F93D5010E940B188B01AC01D7010E9453
:102D50000B18EB01E80FF91FD6010E94D1162F9135
:102D60003F91D6010E940B18C60FD71FE81FF91F0D
:102D7000AF91BF910E94D1162F913F910E940B18E5
:102D8000C60FD71FE81FF91FD6010E940B18E60FC8
:102D9000F71F9801BE01CF010F911F91CF91DF91D5
:102DA00008950E940B18460F571FC81FD91F08F41B
:102DB00031960895689401C0E894F92FF12B12F030
:102DC0000C940E17A0E0B0E0E8EEF6E10C9480174A
:102DD000092E059422F40E946A17112392F4F0E858
:102DE0000F26FFEFE094F09400951095B094C094F6
:102DF000D094A194BF0ACF0ADF0AEF0AFF0A0F0B93
:102E00001F0B0E94191707FC0E946A17CDB7DEB787
:102E1000ECE00C949C17689401C0E8948F929F9208
:102E2000CF93DF930E941917DF91CF919F908F90DE
:102E3000089588249924F401E401B0E49F93AA271B
:102E40009A158B049C04ED05FE05CF05D007A1075C
:102E500098F4AD2FDC2FCF2FFE2FE92D982C892E43
:102E6000982F872F762F652F542F432F322F22270D
:102E7000B85031F7BF9127C01B2EBF91BB27220F3F
:102E8000331F441F551F661F771F881F991F881CFB
:102E9000991CEE1FFF1FCC1FDD1FAA1FBB1F8A142A
:102EA0009B04EC05FD05CE05DF05A007B10748F042
:102EB0008A189B08EC09FD09CE09DF09A00BB10BAC
:102EC00021601A94E1F62EF49401AF01BE01CD0108
:102ED000000C08956095709580959095309540957B
:102EE000509521953F4F4F4F5F4F6F4F7F4F8F4F03
:102EF0009F4F08952F923F924F925F926F927F92D1
:102F00008F929F92AF92BF92CF92DF92EF92FF92F9
:102F10000F931F93CF93DF93CDB7DEB7CA1BDB0BA5
:102F20000FB6F894DEBF0FBECDBF09942A8839884A
:102F300048885F846E847D848C849B84AA84B98451
:102F4000C884DF80EE80FD800C811B81AA81B9815D
:102F5000CE0FD11D0FB6F894DEBF0FBECDBFED0171
:102F60000895002E083090F0982F872F762F652F28
:102F7000542F432F322F22270850F4CF220F331F14
:102F8000441F551F661F771F881F991F0A95B2F7A8
:102F9000002D089597FD1094002E083098F00850E9
:102FA000232F342F452F562F672F782F892F912DC0
:102FB000F4CF15949795879577956795579547958D
:102FC000379527950A95AAF71124002D08952A0D03
:102FD0003B1D4C1D5D1D6E1D7F1D801F911F0895A3
:102FE0002A193B094C095D096E097F09800B910B79
:102FF00008950024A7FD00942A17300540055005C8
:1030000060057005800590050895EE0FFF1F05907F
:10301000F491E02D0994A29FB001B39FC001A39F3A
:10302000700D811D1124911DB29F700D811D112401
:10303000911D08950F931F93CF93DF9382309105D5
:1030400010F482E090E0E0912E03F0912F0330E045
:1030500020E0B0E0A0E0309799F42115310509F4A3
:103060004AC0281B390B24303105D8F58A819B8151
:103070006115710589F1FB0193838283FE0111C003
:10308000408151810281138148175907E0F04817A8
:10309000590799F4109761F012960C9312971396B2
:1030A0001C933296CF01DF91CF911F910F9108951C
:1030B00000932E0310932F03F4CF2115310551F007
:1030C0004217530738F0A901DB019A01BD01DF0166
:1030D000F801C1CFEF01F9CF90932F0380932E0316
:1030E000CDCFFE01E20FF31F81939193225031095E
:1030F00039832883D7CF20912C0330912D03232BA4
:1031000041F4209102013091030130932D0320936B
:103110002C0320910001309101012115310541F46A
:103120002DB73EB74091040150910501241B350B8A
:10313000E0912C03F0912D03E217F307A0F42E1B6E
:103140003F0B2817390778F0AC014E5F5F4F24170B
:10315000350748F04E0F5F1F50932D0340932C030B
:10316000819391939FCFF0E0E0E09CCFCF93DF93EA
:103170000097E9F0FC01329713821282A0912E038E
:10318000B0912F03ED0130E020E01097A1F42081F1
:103190003181820F931F20912C0330912D0328172A
:1031A000390709F061C0F0932D03E0932C03DF9100
:1031B000CF910895EA01CE17DF07E8F54A815B81D8
:1031C0009E0141155105B1F7E901FB83EA8349915D
:1031D0005991C40FD51FEC17FD0761F480819181CF
:1031E0000296840F951FE9019983888382819381D8
:1031F0009B838A83F0E0E0E012968D919C91139777
:103200000097B9F52D913C911197CD010296820F4F
:10321000931F20912C0330912D032817390739F67D
:10322000309751F510922F0310922E03B0932D0377
:10323000A0932C03BCCFD383C28340815181840FE0
:10324000951FC817D90761F44E5F5F4F8881998138
:10325000480F591F518340838A819B8193838283C6
:103260002115310509F0B0CFF0932F03E0932E0321
:103270009ECFFD01DC01C0CF13821282D7CFFB01AC
:10328000DC014150504048F001900D920020C9F7F8
:1032900001C01D9241505040E0F7089510E0CEE982
:1032A000D0E004C0FE010E9405182196CF39D10755
:0632B000C9F7F894FFCFFE
:1032B600000030038000000000004A02AA01D70186
:1032C60097020802E601FA0100000000B8058B0526
:1032D600E705610584057105620500000000B2037B
:1032E600BC0BB303BE0B600C00000000B203BA0BAC
:1032F600B303120CAF0C6E616E00696E66006F76DA
:103306006600424D5032383000424D50323830203F
:103316004E6F7420466F756E64000D0A0054656D1D
:10332600703A00432C2050726573737572653A00CB
:103336006850612C20416C7469747564653A006D3F
:02334600000085
:00000001FF
