:100000000C9458000C9480000C9480000C94800098
:100010000C9480000C9480000C9480000C94800060
:100020000C9480000C9480000C9480000C94800050
:100030000C9480000C9480000C9480000C94800040
:100040000C9493050C9480000C9403060C94DD052D
:100050000C9480000C9480000C9480000C94800020
:100060000C9435060C948000000000002500280048
:100070002B00040404040404040402020202020229
:10008000030303030303010204081020408001025C
:1000900004081020010204081020000000080002DB
:1000A00001000003040700000000000000005407E6
:1000B00011241FBECFEFD8E0DEBFCDBF11E0A0E01E
:1000C000B1E0EAE6F2E102C005900D92AE33B1076D
:1000D000D9F722E0AEE3B1E001C01D92AA3AB2071F
:1000E000E1F710E0C8E5D0E004C02197FE010E94CE
:1000F0002D09C735D107C9F70E948D070C94330924
:100100000C9400009091B0018091AF012FEF3FEF70
:10011000981748F4E92FF0E0E157FE4F208130E0D6
:100120009F5F9093B001C90108959091B0018091B3
:10013000AF012FEF3FEF981748F4E92FF0E0E157B8
:10014000FE4F208130E09F5F9093B001C901089578
:1001500090E0FC01E656FF4F2491FC01EA57FF4F67
:100160003491FC01EE58FF4FE491EE23C9F02223B5
:1001700039F0233001F1A8F4213019F1223029F1AE
:10018000F0E0EE0FFF1FE859FF4FA591B4918FB734
:10019000F894EC91611126C030953E233C938FBFBB
:1001A00008952730A9F02830C9F0243049F780910C
:1001B00080008F7D03C0809180008F7780938000C6
:1001C000DFCF84B58F7784BDDBCF84B58F7DFBCF48
:1001D0008091B0008F778093B000D2CF8091B00033
:1001E0008F7DF9CF3E2BDACF3FB7F89480918B010A
:1001F00090918C01A0918D01B0918E0126B5A89BA4
:1002000005C02F3F19F00196A11DB11D3FBFBA2FA8
:10021000A92F982F8827BC01CD01620F711D811D68
:10022000911D42E0660F771F881F991F4A95D1F7ED
:10023000089508950895AF92BF92CF92DF92EF9202
:10024000FF920F931F93CF93DF936C017B018B0180
:10025000040F151FEB015E01AE18BF08C017D107D0
:1002600059F06991D601ED91FC910190F081E02D5A
:10027000C6010995892B79F7C501DF91CF911F91AF
:100280000F91FF90EF90DF90CF90BF90AF900895C7
:10029000FC01538D448D252F30E0842F90E0821B8C
:1002A000930B541710F0CF96089501970895FC0111
:1002B000918D828D981761F0A28DAE0FBF2FB11D69
:1002C0005D968C91928D9F5F9F73928F90E00895C1
:1002D0008FEF9FEF0895FC01918D828D981731F07B
:1002E000828DE80FF11D858D90E008958FEF9FEFCF
:1002F0000895FC01918D228D892F90E0805C9F4FA5
:10030000821B91098F739927089581E092E00E94E2
:10031000790121E0892B09F420E0822F089580E003
:1003200090E0892B29F00E94850181110C94000036
:100330000895FC01A48DA80FB92FB11DA35ABF4F7A
:100340002C91848D90E001968F739927848FA689D4
:10035000B7892C93A089B1898C91837080648C9328
:10036000938D848D981306C00288F389E02D8081D7
:100370008F7D80830895EF92FF920F931F93CF9309
:10038000DF93EC0181E0888F9B8D8C8D98131AC0D0
:10039000E889F989808185FF15C09FB7F894EE89B7
:1003A000FF896083E889F989808183708064808314
:1003B0009FBF81E090E0DF91CF911F910F91FF905F
:1003C000EF900895F62E0B8D10E00F5F1F4F0F7307
:1003D0001127E02E8C8D8E110CC00FB607FCFACFC2
:1003E000E889F989808185FFF5CFCE010E949901C6
:1003F000F1CFEB8DEC0FFD2FF11DE35AFF4FF08293
:100400009FB7F8940B8FEA89FB8980818062CFCFF8
:10041000CF93DF93EC01888D8823B9F0AA89BB893B
:10042000E889F9898C9185FD03C0808186FD0DC026
:100430000FB607FCF7CF8C9185FFF2CF808185FF47
:10044000EDCFCE010E949901E9CFDF91CF910895C0
:1004500020915F01260F3327331F21323105ECF441
:100460002091D701FC0190E080E0243069F082E027
:100470000895A0915F012191AC01415C5E4FA40FF2
:10048000B52FB11D2C930196861798F380915F01CB
:10049000680F60935F0180E0089581E008951092F5
:1004A000D70181E08093D6011092B10161E082E131
:1004B0000E94A80061E083E10E94A800E9EBF0E05F
:1004C00080818E7F808380818D7F808388E480938C
:1004D000B80085E48093BC000895CF93DF9391E04A
:1004E00090933E018823B9F0C091B800D091BA0032
:1004F0008091BC008A7B8093BC0060E082E10E9416
:10050000A80060E083E10E94A8000E944F02D093FF
:10051000BA00C093B800DF91CF9108958F929F9257
:10052000AF92BF92CF92DF92EF92FF920F931F9301
:10053000CF93DF93D0910002D13208F0D7C0182FAB
:10054000C091FF010E94F4006B017C018091D701F2
:1005500081116BC082E08093D7011093D6018FEF99
:100560008093D5011092D401D093D301AFEDB1E0C7
:10057000E3EBF1E080E0D81391C01092B2018091DA
:10058000B201CC0FC82BC093B2018091B101813070
:1005900009F088C01092B1010E94F4006B017C0147
:1005A0008091B2018093BB008091D9019091DA01D2
:1005B000A091DB01B091DC01892B8A2B8B2BA1F060
:1005C0000E94F4000091D9011091DA012091DB0121
:1005D0003091DC016C197D098E099F0906171707F8
:1005E0002807390708F442C08091BC0083FDD8CFAA
:1005F00085EC8093BC000E94F4006B017C0180912B
:10060000D701823009F450C08091D5018F3F09F4A1
:100610006FC08091D501803209F46CC08091D50102
:10062000803309F469C084E026C08091D90190919B
:10063000DA01A091DB01B091DC01892B8A2B8B2B95
:1006400009F484CF0E94F4008090D9019090DA01DF
:10065000A090DB01B090DC016C197D098E099F0927
:1006600086169706A806B90608F070CF8091D801C3
:100670000E946D0285E01092DE011092000210923D
:10068000DD01DF91CF911F910F91FF90EF90DF90EF
:10069000CF90BF90AF909F908F9008959D91919330
:1006A0008F5F69CF85EEA5CF8091D9019091DA0156
:1006B000A091DB01B091DC01892B8A2B8B2B09F4F3
:1006C0009ECF0E94F4000091D9011091DA0120918F
:1006D000DB013091DC016C197D098E099F09061739
:1006E00017072807390708F08ACFC0CF81E0C3CFAA
:1006F00080E0C1CF82E0BFCF83E0BDCF8F929F92D9
:10070000AF92BF92CF92DF92EF92FF920F931F931F
:10071000CF93DF93D82FC62F142F613208F09CC0DF
:100720000E94F4006B017C018091D70181116FC0A0
:1007300081E08093D7011093D6019FEF9093D5016C
:100740001092D4019C0F9093D3018093B2018091B9
:10075000B201DD0FD82BD093B2018091B10181306D
:1007600009F07CC01092B1010E94F4006B017C0181
:100770008091B2018093BB008091D9019091DA0100
:10078000A091DB01B091DC01892B8A2B8B2BA1F08E
:100790000E94F4000091D9011091DA012091DB014F
:1007A0003091DC016C197D098E099F090617170726
:1007B0002807390708F44CC08091BC0083FDD8CFCE
:1007C00085EC8093BC000E94F4006B017C01809159
:1007D000D701813009F444C08091D4018C1710F402
:1007E000C091D401E3EBF1E0AFE8B1E080E08C131D
:1007F00059C08C2FDF91CF911F910F91FF90EF90F7
:10080000DF90CF90BF90AF909F908F900895809190
:10081000D9019091DA01A091DB01B091DC01892B23
:100820008A2B8B2B09F480CF0E94F4008090D90191
:100830009090DA01A090DB01B090DC016C197D0989
:100840008E099F0986169706A806B90608F06CCF90
:100850008091D8010E946D02C0E0CBCF85EEB1CF70
:100860008091D9019091DA01A091DB01B091DC0176
:10087000892B8A2B8B2B09F4AACF0E94F4000091BC
:10088000D9011091DA012091DB013091DC016C1962
:100890007D098E099F09061717072807390708F0F1
:1008A00096CFD6CF91919D938F5FA1CF0895E09180
:1008B000B0018091AF01E81730F4F0E0E157FE4F4E
:1008C000808190E008958FEF9FEF08958091AF01B0
:1008D0009091B001891B990B0895CF92DF92EF920E
:1008E000FF920F931F93CF93DF937C01CB018A017B
:1008F0002091DD01222389F0EB016B01C40ED51E8E
:10090000CC15DD0569F06991D701ED91FC9101905D
:10091000F081E02DC7010995F3CF642F0E942802D2
:10092000C801DF91CF911F910F91FF90EF90DF9061
:10093000CF900895CF93DF931F92CDB7DEB7698331
:100940002091DD012223F9F020910002203258F09D
:1009500021E030E0FC013383228390E080E00F90BF
:10096000DF91CF9108958091DE01E82FF0E0E15210
:10097000FE4F998190838F5F8093DE018093000208
:1009800081E090E0ECCF61E0CE0101960E94280268
:10099000F7CF682F8EE992E00C949A0490E080E003
:1009A0000895FC0101900020E9F73197AF01481B41
:1009B000590BBC0181E092E00C941B018F929F9235
:1009C000AF92BF92CF92DF92EF92FF920F931F935D
:1009D000CF93DF93CDB7DEB7A1970FB6F894DEBF04
:1009E0000FBECDBF6C01990FEE08FF08F7FE41C0A6
:1009F0006DE281E092E00E94BB018C012227332747
:100A0000A9012C193D094E095F0919A2CE01819651
:100A10007C019AE0892E912CA12CB12CCA01B9013C
:100A2000A50194010E940B09605DF70162937F01AB
:100A3000211531054105510589F790E080E0309797
:100A400019F0CF010E94D104800F911FA1960FB61B
:100A5000F894DEBF0FBECDBFDF91CF911F910F91F4
:100A6000FF90EF90DF90CF90BF90AF909F908F90CE
:100A70000895A701960119A28E010F5D1F4F8AE00C
:100A8000C82ED12CE12CF12CCA01B901A701960185
:100A90000E940B09605DF80162938F0121153105F9
:100AA0004105510589F790E080E0309779F2CF0158
:100AB0000E94D104CBCF85ED8093BC008091D901F9
:100AC0009091DA01A091DB01B091DC010796A11DA4
:100AD000B11D23E0B695A795979587952A95D1F7EF
:100AE0002091BC0024FD03C01092D70108954091CD
:100AF000D9015091DA016091DB017091DC01452B45
:100B0000462B472B69F30097A105B10541F02AE276
:100B10002A95F1F700C00197A109B109E1CF8091B1
:100B2000D8010C946D021F920F920FB60F921124F0
:100B30002F933F938F939F93AF93BF9380918701A0
:100B400090918801A0918901B0918A01309186012C
:100B500023E0230F2D3758F50196A11DB11D2093D9
:100B600086018093870190938801A0938901B093B7
:100B70008A0180918B0190918C01A0918D01B0919F
:100B80008E010196A11DB11D80938B0190938C0164
:100B9000A0938D01B0938E01BF91AF919F918F91E2
:100BA0003F912F910F900FBE0F901F90189526E840
:100BB000230F0296A11DB11DD2CF1F920F920FB627
:100BC0000F9211242F933F934F935F936F937F93D3
:100BD0008F939F93AF93BF93EF93FF9381E092E046
:100BE0000E949901FF91EF91BF91AF919F918F91D9
:100BF0007F916F915F914F913F912F910F900FBE19
:100C00000F901F9018951F920F920FB60F921124FC
:100C10002F938F939F93EF93FF93E0911102F091A5
:100C200012028081E0911702F091180282FD1BC030
:100C3000908180911A028F5F8F7320911B0282171F
:100C400041F0E0911A02F0E0EF5FFD4F958F809345
:100C50001A02FF91EF919F918F912F910F900FBEEC
:100C60000F901F9018958081F4CF1F920F920FB6AE
:100C70000F9211242F933F934F935F936F937F9322
:100C80008F939F93AF93BF93EF93FF938091B9009E
:100C9000887F803609F44AC0F0F5883209F4A7C08D
:100CA00018F5803109F49BC0B8F4882309F4F9C021
:100CB000883009F494C0FF91EF91BF91AF919F915B
:100CC0008F917F916F915F914F913F912F910F90F5
:100CD0000FBE0F901F901895883109F488C080329C
:100CE00051F78093D50114C0803409F49DC040F4BD
:100CF0008033B9F38833F9F68093D50185ECB0C021
:100D0000803509F485C0883509F496C0883499F691
:100D10000E945B05D0CF883909F48CC038F588373C
:100D200029F050F4883611F0803729F683E080935B
:100D3000D7011092810157C0883809F47BC08039EF
:100D400019F0803809F0B7CF80918101803208F026
:100D500071C0E091810181E08E0F809381018091CB
:100D6000BB00F0E0EF59FE4F80833DC0803B39F07F
:100D7000E0F4803A09F479C0883A09F09CCF84E025
:100D80008093D7011092600110925F01E09184017D
:100D9000F0918501099580915F0181110FC081E07B
:100DA00080935F0110923F0109C0803C09F4A6CFF7
:100DB000883C09F4A3CF883B09F07DCFE091600126
:100DC00081E08E0F80936001F0E0E15CFE4F808156
:100DD0008093BB009091600180915F0129C0809158
:100DE000B2018093BB0085EC8093BC0064CF9091EE
:100DF000D4018091D301981758F5E091D40181E096
:100E00008E0F8093D401F0E0ED54FE4F8081E9CF46
:100E1000E091D40181E08E0F8093D4018091BB00DA
:100E2000F0E0ED54FE4F80839091D4018091D30186
:100E30009817C8F285E8D8CFE091D40181E08E0FF1
:100E40008093D4018091BB00F0E0ED54FE4F80838D
:100E50008091D60181115CCF81E08093B10184EA59
:100E60008093BC001092D70126CF85EC8093BC0004
:100E70001092D70180918101803230F4E09181019C
:100E8000F0E0EF59FE4F10826091810170E0E09137
:100E90008201F091830181E691E009951092810130
:100EA0000ACF1092D50134CFE1E0F2E01382128232
:100EB00088EE93E0A0E0B0E084839583A683B783B7
:100EC00024E031E03183208325EC30E0358724872E
:100ED00024EC30E03787268720EC30E0318B208B04
:100EE00021EC30E0338B228B22EC30E0358B248BED
:100EF00026EC30E0378B268B118E128E138E148EDB
:100F0000EEE9F2E01382128284839583A683B7838D
:100F100086E191E0918380830895CF93DF93CDB7ED
:100F2000DEB728970FB6F894DEBF0FBECDBF78941A
:100F300084B5826084BD84B5816084BD85B58260DE
:100F400085BD85B5816085BD80916E00816080938F
:100F50006E001092810080918100826080938100F8
:100F60008091810081608093810080918000816008
:100F7000809380008091B10084608093B100809163
:100F8000B00081608093B00080917A00846080938B
:100F90007A0080917A00826080937A0080917A0052
:100FA000816080937A0080917A00806880937A00D3
:100FB0001092C100E0911102F091120282E0808350
:100FC000E0910D02F0910E021082E0910F02F0917B
:100FD000100280E1808310921902E0911502F091D5
:100FE000160286E08083E0911302F0911402808162
:100FF00080618083E0911302F09114028081886007
:101000008083E0911302F0911402808180688083D4
:10101000E0911302F091140280818F7D8083109201
:10102000DE01109200020E944F0289E191E090934C
:101030008501809384018AE191E0909383018093FC
:10104000820181E08093DD0188E68093FF018BE6D9
:1010500090E00E94C90490E080E00E94C90481E011
:101060000E948E0221E02093DD0188E68093FF013B
:101070001092DE01109200028BE390E00E94C904FE
:1010800080E00E948E0241E066E088E60E947E03D6
:101090001092B0018093AF010E9495008F830E944F
:1010A00095007F80612C5301A82AB92A0E949500DF
:1010B0008F830E9495002F812A831982C980DA804C
:1010C000C82AD92A0E9495008F830E9495002F81FB
:1010D0002C831B82EB80FC80E82AF92A81E0809334
:1010E000DD011092DE011092000283E490E00E9484
:1010F000C90480E00E948E0241E066E088E60E941A
:101100007E031092B0018093AF010E9495008F83FF
:101110000E9495002F812E831D820D811E81082B38
:10112000192B0E9495008F830E9495003F80212CEF
:101130004101882A992A0E9495008F830E94950078
:101140005F80412C8429952998878F8384E291E0E0
:101150000E94D104C5010E94DE048CE291E00E944D
:10116000D104C6010E94DE048CE291E00E94D10409
:10117000C7010E94DE048FE291E00E94D10483E364
:1011800091E00E94D104C8010E94DE048CE291E04B
:101190000E94D104C4010E94DE048CE291E00E940E
:1011A000D1048F8198850E94DE048AE391E00E9439
:1011B000D1040E94F4006B017C0184EF882E9924F5
:1011C0009394A12CB12C0E94F4006C197D098E0916
:1011D0009F09683E734081059105A8F381E0881A54
:1011E0009108A108B10898EEC90E93E0D91EE11C40
:1011F000F11C81149104A104B10429F780E090E06E
:10120000892B09F42FCF0E948501882309F42ACF66
:101210000E94000027CFA1E21A2EAA1BBB1BFD01D2
:101220000DC0AA1FBB1FEE1FFF1FA217B307E407C5
:10123000F50720F0A21BB30BE40BF50B661F771F1D
:10124000881F991F1A9469F76095709580959095FD
:101250009B01AC01BD01CF010895EE0FFF1F05906A
:0A126000F491E02D0994F894FFCFFB
:10126A0000000000BB011B01480108027901570177
:10127A006B01000000009A046D04CE045604660453
:10128A0082005704416363656C3A20002C200020D9
:0E129A007C20004779726F3A20000D0A000098
:00000001FF
