:020000040000FA
:100000000C94D8060C9400070C9400070C9400077D
:100010000C9400070C9400070C9400070C94000744
:100020000C9400070C9400070C9400070C94000734
:100030000C9400070C9400070C9400070C94000724
:100040000C9405190C9400070C9475190C944F1915
:100050000C9400070C9400070C9400070C94000704
:100060000C94A7190C94000700000000003E5B4FA1
:100070005B3E3E6B4F6B3E1C3E7C3E1C183C7E3C08
:10008000181C577D571C1C5E7F5E1C00183C180016
:10009000FFE7C3E7FF0018241800FFE7DBE7FF30A6
:1000A000483A060E2629792926407F050507407F14
:1000B00005253F5A3CE73C5A7F3E1C1C08081C1C87
:1000C0003E7F14227F22145F5F005F5F06097F017D
:1000D0007F006689956A606060606094A2FFA29468
:1000E00008047E040810207E201008082A1C080836
:1000F0001C2A08081E101010100C1E0C1E0C303884
:100100003E3830060E3E0E06000000000000005F84
:1001100000000007000700147F147F14242A7F2AA0
:100120001223130864623649562050000807030062
:10013000001C2241000041221C002A1C7F1C2A08AE
:10014000083E080800807030000808080808000011
:1001500060600020100804023E5149453E00427F85
:10016000400072494949462141494D331814127FD4
:100170001027454545393C4A494931412111090774
:100180003649494936464949291E000014000000F5
:1001900040340000000814224114141414140041C7
:1001A00022140802015909063E415D594E7C121184
:1001B000127C7F494949363E414141227F414141BC
:1001C0003E7F494949417F090909013E4141517337
:1001D0007F0808087F00417F41002040413F017FA8
:1001E000081422417F404040407F021C027F7F0470
:1001F00008107F3E4141413E7F090909063E4151B9
:10020000215E7F09192946264949493203017F01A8
:10021000033F4040403F1F2040201F3F4038403FA9
:10022000631408146303047804036159494D4300BF
:100230007F4141410204081020004141417F0402F6
:10024000010204404040404000030708002054548D
:1002500078407F284444383844444428384444286B
:100260007F385454541800087E090218A4A49C78BE
:100270007F0804047800447D40002040403D007F1A
:100280001028440000417F40007C047804787C08FA
:100290000404783844444438FC18242418182424CE
:1002A00018FC7C08040408485454542404043F44B3
:1002B000243C4040207C1C2040201C3C4030403CE2
:1002C00044281028444C9090907C4464544C440042
:1002D00008364100000077000000413608000201A6
:1002E0000204023C2623263C1EA1A161123A404092
:1002F000207A38545455592155557941225454780F
:1003000042215554784020545579400C1E527212A7
:100310003955555559395454545939555454580030
:1003200000457C410002457D420001457C407D1234
:1003300011127DF0282528F07C5455450020545496
:100340007C547C0A097F4932494949323A44444441
:100350003A324A4848303A4141217A3A424020787C
:10036000009DA0A07D3D4242423D3D4040403D3C7D
:1003700024FF2424487E4943662B2FFC2F2BFF09A2
:1003800029F620C0887E0903205454794100004496
:100390007D413048484A32384040227A007A0A0A81
:1003A000727D0D19317D2629292F282629292926F4
:1003B00030484D4020380808080808080808382F39
:1003C00010C8ACBA2F102834FA00007B00000814C3
:1003D0002A142222142A14085500550055AA55AA99
:1003E00055AAFF55FF55FF000000FF00101010FF39
:1003F00000141414FF001010FF00FF1010F010F094
:10040000141414FC001414F700FF0000FF00FF1484
:1004100014F404FC141417101F10101F101F1414D0
:10042000141F00101010F0000000001F101010101A
:100430001F10101010F010000000FF10101010100E
:1004400010101010FF10000000FF140000FF00FF4C
:1004500000001F10170000FC04F4141417101714E8
:1004600014F404F40000FF00F7141414141414140A
:10047000F700F7141414171410101F101F1414147D
:10048000F4141010F010F000001F101F0000001FE7
:1004900014000000FC140000F010F01010FF10FF1A
:1004A000141414FF141010101F00000000F010FFAF
:1004B000FFFFFFFFF0F0F0F0F0FFFFFF0000000093
:1004C00000FFFF0F0F0F0F0F3844443844FC4A4A17
:1004D0004A347E02020606027E027E0263554941CC
:1004E000633844443C04407E201E2006027E020203
:1004F00099A5E7A5991C2A492A1C4C7201724C3017
:100500004A4D4D303048784830BC625A463D3E49ED
:100510004949007E0101017E2A2A2A2A2A44445F91
:10052000444440514A444040444A51400000FF0185
:1005300003E080FF000008086B6B08361236243693
:10054000060F090F060000181800000010100030F8
:1005500040FF0101001F01011E00191D1712003C80
:100560003C3C3C000000000011007F962900010087
:100570007F9628003A0155C0021010C10141C50400
:1005800000228040360168B00100B102B011B40110
:1005900002B60302023BB701C63A0155F704A9515E
:1005A0002C82B701C6E808408A00002919A533C08B
:1005B000020D0DC1024300C20100C50400480048FD
:1005C000B40100B60302023BE00F0F211C0B0E0822
:1005D000499838091103141000E10F0F2F2B0C0E4E
:1005E00006477637071104231E00B00100B304024A
:1005F000000000B40100D003074218D10300071027
:10060000D2020102D3020102D4020102C005123B50
:10061000000211C103101088C50103C60102C80CF5
:10062000003236450616377577540C00CC0100F6BB
:1006300003010100CF03008130ED0464031281E85F
:1006400003851078CB05392C003402F70120EA022B
:100650000000B00100B102001BB40100C00121C1C3
:100660000111C5023F3CC701B5360148F201002621
:100670000101E00F0F26240B0E0954A8460C1709A0
:100680000F0700E10F00191B0410072A4739030662
:100690000630380F360100B80101C0010EB001006C
:1006A000C10410100202C006003500000102C5019D
:1006B00004D2020104CA0100EA0180B903FF835792
:1006C0007F967F96B60125C0065050013C1E08B4A7
:1006D000070240002A2A0D787F01F20B1616030844
:1006E00008080810041616FD03110235B2050C0C9B
:1006F000003333B70135BB012BC00104C20201FF37
:10070000C30111C40120C6010FD002A4A1E00ED084
:1007100000050E150D3743470915121619E10ED0C5
:1007200000050D0C062D44400E1C1816193A0155F3
:100730007F0A06000700B1020012B40102B60400ED
:10074000202700CA0101CB0103C001137F14C5019A
:10075000CCC60100C70104C80103CC0106CD011CB1
:10076000F9021515F3030A020AF603011000FA0054
:10077000FB00E2031E0254E001017F0AE001037F57
:100780000A01007F64E60303FFFFB0072400031F94
:1007900001DF00B40803A0002E30000F00B60702EE
:1007A0000D0010100008BA010FB8020701F0010097
:1007B0007F01280011007F642900BE0606F001F0C9
:1007C0000000D0010DB00103E2013FC00122E201AF
:1007D00000B00100C0010AB00100000000000000EC
:1007E00000000000000000000000FFFF0F000004F8
:1007F0000062080008080003000C01030B5A020302
:10080000060903031710040300230503001706035A
:1008100009630703090C08030C10090332221000B6
:100820001600110001011200000013000100000178
:100830003003010137020301000D80020061020153
:10084000B0C1FFFF320001000001020000010300FF
:100850003010090001000C000000900000800F0023
:100860000000100200001102EF001202000013024B
:100870008F01000500000105000002055F00010472
:10088000010004040000FFFF320007000001FFFF29
:100890003200000200000102000000000000000021
:1008A00000000000000000000100A4000100FFFFA4
:1008B0000A00600000270800080830001402310018
:1008C0001537320004063300160E340011223500AD
:1008D0000015360007853700071438000314390067
:1008E00020009000150010001004110037022900AC
:1008F00046002A004600070000001200890113008C
:100900000011FFFF96001200B90101000001020072
:10091000000203003010090001000A0000000D0071
:1009200000000E003000610001006A00000080003D
:1009300000008100000082005F009200000193002F
:100940000107FFFF500007000001E500F0780100FB
:100950000001020000020300301004000000050046
:10096000000008000702090000000A0000000C0057
:1009700000000D0000000F0000001000000011003A
:100980000700120000001300000007000100FFFF35
:10099000C8001000901611002702FFFF320012005D
:1009A0000D00FFFF32001300001229000A002B0087
:1009B0000D00FFFF32002000000021000000300089
:1009C0000000310004043200030035000504360045
:1009D00008083700070438000303390007073C0004
:1009E00004053D00080860000027610001006A005E
:1009F00000008000000081000000820000008300F1
:100A000000008400000085000000900010009200AB
:100A1000000007003301E500008000000100010034
:100A2000000102000007030030100400000008006D
:100A30000202090000000A0000000C0000000D0086
:100A400000000F000000100000001100070012005D
:100A5000000013000000FFFF32001000B01711006B
:100A60000700FFFF0A0012003A01FFFF0A0013000F
:100A7000001A29000C00FFFF0A00300000003100BE
:100A80000505320004003500060036000707370070
:100A9000050138000200390007073C0004073D004B
:100AA0000708600000A7610001006A000000210043
:100AB0000000200000008000000081000000820093
:100AC000000083000000840000008500000090000A
:100AD00010009200000093000300950010019700A1
:100AE00000009800000007007301FFFF32000100C2
:100AF0000001020000070300301008000203090093
:100B000000000A000800100000001100050012009B
:100B1000000013000000FFFF64001000B012FFFF90
:100B2000320011000700FFFF320012008C0013009A
:100B3000001729002000FFFF3200300000003100C4
:100B400006013200010135000601360003023700BC
:100B5000000038000707390004023C0006013D0090
:100B60000301600000A76100010090003000070051
:100B70003301FFFF3200150030009A001000110011
:100B80002000100028341200020013003810FFFF6C
:100B9000280012001200FFFF28001000203413006C
:100BA0004530FFFF460030000000310002043200F3
:100BB0000703330004033400040035000104360049
:100BC000070737000503380010063900100601003A
:100BD00000010200000303003010080008080A00AA
:100BE0000800600000276100010090003E019200B3
:100BF000000193000001A0000030A30010000700D6
:100C00000100070021000700230007003300070050
:100C1000330111001A001200213113006C0014007E
:100C2000494210000008FFFF0A0011001A01FFFFEF
:100C30000A0011001A03FFFF0A0011001A07FFFF44
:100C40000A0011001A0FFFFF0A0011003A0FFFFF00
:100C50001E000100280102000001030030100700FF
:100C60001210080003030B0000110C0000000F001D
:100C70000118150020005000010151000306520028
:100C800008045300000054000506550006045600F1
:100C90000303570003035800100059000010070019
:100CA0001200FFFF28000700130007001700494447
:100CB0003D30780045646974206E616D6520616E19
:100CC000642063616C6962726174696F6E20737411
:100CD0006174656D656E74730A006F722077726F50
:100CE0006E6720646972656374696F6E00652E6754
:100CF0002E20726967687420746F206C656674209A
:100D00006F7220626F74746F6D20746F20746F70D7
:100D10000042757420746865792063616E20626595
:100D200020696E20414E59206F72646572004D6FCC
:100D3000737420546F7563682053637265656E73B6
:100D4000207573652070696E7320362C20372C2037
:100D500041312C2041320049443D307800000000F0
:100D600000240027002A0000000008000201000003
:100D70000304070000000000000000010204081046
:100D80002040800102040810200102040810200005
:100D9000000000250028002B0004040404040404BF
:100DA0000402020202020203030303030300C21A45
:100DB00011241FBECFEFD8E0DEBFCDBF12E0A0E010
:100DC000B1E0ECEFF8E502C005900D92A031B1075B
:100DD000D9F723E0A0E1B2E001C01D92A538B20727
:100DE000E1F716E0C8EDD6E004C02197FE010E94AD
:100DF0007F2AC73DD107C9F70E94891B0C947C2C20
:100E00000C94000090E0FC01E959F24F2491FC01A0
:100E1000E558F24F3491FC01E756F24FE491EE238E
:100E2000C9F0222339F0233001F1A8F4213019F15F
:100E3000223029F1F0E0EE0FFF1FE157F24FA591AC
:100E4000B4918FB7F894EC91611126C030953E2390
:100E50003C938FBF08952730A9F02830C9F0243083
:100E600049F7809180008F7D03C0809180008F774B
:100E700080938000DFCF84B58F7784BDDBCF84B5CE
:100E80008F7DFBCF8091B0008F778093B000D2CF61
:100E90008091B0008F7DF9CF3E2BDACFCF93DF93D7
:100EA00090E0FC01E558F24F24918756924FFC01E7
:100EB00084918823D1F090E0880F991FFC01E35AB8
:100EC000F24FA591B491FC01E157F24FC591D49135
:100ED00061110EC09FB7F8948C91E22FE0958E239C
:100EE0008C932881E223E8839FBFDF91CF910895FF
:100EF0008FB7F894EC91E22BEC938FBFF6CF8E3046
:100F000008F08E508770806480937C0080917A0016
:100F1000806480937A0080917A0086FDFCCF809176
:100F200078009091790008952F923F924F925F92AE
:100F30006F927F929F92AF92BF92CF92DF92EF9289
:100F4000FF920F931F93CF93DF9300D000D000D078
:100F5000CDB7DEB760E080913A030E944E0760E0B3
:100F600080913B030E944E0761E080913D030E9407
:100F70004E0761E080913C030E944E078091480338
:100F8000E0914003F09141039081892B808380910F
:100F90004903E0914403F0914503908180958923B2
:100FA000808380913A030E947F078C0180913A03ED
:100FB0000E947F079801281B390B2C5F3F4F912C13
:100FC0002930310530F4800F911F9595879599242C
:100FD00093940FEF13E0081B190B60E080913D0321
:100FE0000E944E0760E080913C030E944E0761E042
:100FF00080913A030E944E0761E080913B030E947A
:101000004E0780914B03E0914603F0914703908196
:1010100080958923808380914A03E0914203F09177
:1010200043039081892B808380913C030E947F073A
:101030007C0180913C030E947F079701281B390B9C
:101040002C5F3F4F2930310508F09DC08E0D9F1D4C
:1010500095958795CC24CA9423E0D22E7601E81A80
:10106000F90A61E080913D030E944E0760E08091A3
:101070003A030E944E0780914803E0914003F091AB
:101080004103908180958923808380914B03E09177
:101090004603F09147039081892B808380913C0324
:1010A0000E947F075C0180913A030E947F07BC0188
:1010B00060903E0370903F036114710409F465C0B1
:1010C000072E000C880B990B0E94AF271B012C01E7
:1010D000B501BB0C880B990B0E94AF279B01AC019B
:1010E000C201B1010E94AF2920E030E040E85FE397
:1010F0000E9442295B016C01B801012E000C880B93
:10110000990B0E94AF27A60195010E94EA275B0177
:101110006C01B30190E080E00E94AD27A60195012B
:101120000E94EA2720E030E040E85AE30E94EA27E4
:101130000E94212A911002C070E060E01A830983A6
:10114000FC82EB827E836D83202F3A814E2D5C8161
:101150007E8180E090E026960FB6F894DEBF0FBE49
:10116000CDBFDF91CF911F910F91FF90EF90DF9056
:10117000CF90BF90AF909F907F906F905F904F9077
:101180003F902F900895912C65CF6A197B09C60175
:10119000861B970BBC01CECF3FB7F894809190028D
:1011A00090919102A0919202B091930226B5A89BD2
:1011B00005C02F3F19F00196A11DB11D3FBFBA2FE9
:1011C000A92F982F8827BC01CD01620F711D811DA9
:1011D000911D42E0660F771F881F991F4A95D1F72E
:1011E00008958F929F92AF92BF92CF92DF92EF922B
:1011F000FF926B017C010E94CC084B015C01C11481
:10120000D104E104F104B9F00E94CC08681979090D
:101210008A099B09683E73408105910580F321E0AE
:10122000C21AD108E108F10888EE880E83E0981E02
:10123000A11CB11CE4CFFF90EF90DF90CF90BF9046
:10124000AF909F908F9008950895EF92FF920F9323
:101250001F93CF93DF938C017B01D0E0C0E0F701B7
:10126000EC0FFD1F6491662361F0D801ED91FC91B4
:101270000190F081E02DC8010995892B11F021968C
:10128000EECFCE01DF91CF911F910F91FF90EF90A4
:101290000895AF92BF92CF92DF92EF92FF920F9399
:1012A0001F93CF93DF936C017B018B01040F151FFC
:1012B000EB015E01AE18BF08C017D10759F0699164
:1012C000D601ED91FC910190F081E02DC6010995C8
:1012D000892B79F7C501DF91CF911F910F91FF9075
:1012E000EF90DF90CF90BF90AF900895FC01538DA9
:1012F000448D252F30E0842F90E0821B930B5417F0
:1013000010F0CF96089501970895FC01918D828D7C
:10131000981761F0A28DAE0FBF2FB11D5D968C9115
:10132000928D9F5F9F73928F90E008958FEF9FEF54
:101330000895FC01918D828D981731F0828DE80F10
:10134000F11D858D90E008958FEF9FEF0895FC01CA
:10135000918D228D892F90E0805C9F4F821B910997
:101360008F739927089585E992E00E94A70921E0EB
:10137000892B09F420E0822F089580E090E0892BEA
:1013800029F00E94B30981110C9400000895FC011A
:10139000A48DA80FB92FB11DA35ABF4F2C91848DD6
:1013A00090E001968F739927848FA689B7892C9333
:1013B000A089B1898C91837080648C93938D848D86
:1013C000981306C00288F389E02D80818F7D808389
:1013D0000895EF92FF920F931F93CF93DF93EC0149
:1013E00081E0888F9B8D8C8D98131AC0E889F989CC
:1013F000808185FF15C09FB7F894EE89FF896083CF
:10140000E889F98980818370806480839FBF81E04F
:1014100090E0DF91CF911F910F91FF90EF90089591
:10142000F62E0B8D10E00F5F1F4F0F731127E02E6C
:101430008C8D8E110CC00FB607FCFACFE889F989A4
:10144000808185FFF5CFCE010E94C709F1CFEB8DDA
:10145000EC0FFD2FF11DE35AFF4FF0829FB7F89478
:101460000B8FEA89FB8980818062CFCFCF93DF9396
:10147000EC01888D8823B9F0AA89BB89E889F989AC
:101480008C9185FD03C0808186FD0DC00FB607FCE1
:10149000F7CF8C9185FFF2CF808185FFEDCFCE0114
:1014A0000E94C709E9CFDF91CF91089520913702BB
:1014B000260F3327331F21323105ECF420915B02D4
:1014C000FC0190E080E0243069F082E00895A09172
:1014D00037022191AC01495E5D4FA40FB52FB11DBC
:1014E0002C930196861798F380913702680F6093CA
:1014F000370280E0089581E008958FEF9FEF08950F
:101500008FEF9FEF08958091100290E09195819563
:1015100091090895CF93DF93CB01EA01642F0E94D4
:10152000560ACE01DF91CF910895CF93DF931F929A
:10153000CDB7DEB7698361E0CE0101960E94560AFD
:1015400081E090E00F90DF91CF9108950895FC0124
:101550006370668B8481958126813781613039F093
:10156000633029F0918780873387228708953187F8
:1015700020879387828708952F923F924F925F92A0
:101580006F927F928F929F92AF92BF92CF92DF9293
:10159000EF92FF920F931F93CF93DF93CDB7DEB7F8
:1015A0006A970FB6F894DEBF0FBECDBF9A8F898FB2
:1015B0007A8369834A01D22E18870F833701BC2CA6
:1015C000DC0159962D913C915A972115310509F06E
:1015D00015C118968D919C911997681779070CF091
:1015E000D7C11A968D919C91481759070CF0D0C11C
:1015F0004C2C512CB6E0CB9E600D711D11247C87C4
:101600006B87161617060CF0C3C1EA2DF0E0FA87B7
:10161000E98793E0EE0FFF1F9A95E1F7F88BEF87CC
:10162000CF01840F951F181619060CF0B1C1A98DB2
:10163000BA8D58968C91811104C0BFEABD1508F48B
:10164000D394A98DBA8DED91FC9111970284F38505
:10165000E02DCD010995B5E0DB9EC0011124E981A3
:10166000FA81FC83EB83312C212C9C0128593F4FBC
:10167000388F2F8B4A2D50E05E8B4D8BEF89F88D84
:10168000E20DF31D44919E828D82D12CC12C698183
:101690007A81620D731D7A8B698B842F90E09C8B0D
:1016A0008B8BE98DFA8DA081B18140FF82C0F1E082
:1016B000BF126FC0AF126DC01C96ED91FC912F81CF
:1016C0003885A4014C0D5D1D69897A89898D9A8DB3
:1016D0000995EB89FC89F595E7954E2F5FEFC51AC3
:1016E000D50A6D817E818D899E89680F791F7E83E1
:1016F0006D8398E0C916D10481F6AFEF2A1A3A0A31
:10170000EB81FC81E40DF51DFC83EB83F5E02F16E6
:10171000310409F0B3CF2F81388526153705B9F08C
:10172000A98DBA8DED91FC91B1E0BB1257C0AB12FF
:1017300055C069817A816B5F7F4F0088F189E02D08
:10174000830128E030E0A401898D9A8D0995A98D47
:10175000BA8DED91FC9111970688F789E02DCD01A6
:101760006A960FB6F894DEBF0FBECDBFDF91CF9162
:101770001F910F91FF90EF90DF90CF90BF90AF90AF
:101780009F908F907F906F905F904F903F902F90A1
:1017900009941E96ED91FC91EF80F88409851A85D5
:1017A00092014D815E816B817C81898D9A8D099535
:1017B00090CF2F8138852615370509F48ACF31E07F
:1017C000B31207C0A31205C01C96ED91FC919301C2
:1017D00078CF1E96ED91FC917301E0CF6B857C85EF
:1017E000641975090684F785E02D73010F85188942
:1017F0009201A401898D9A8D0995A9CFF90134969A
:101800009491329745915491D91AB7E0DB9E400DDF
:10181000511D1124F901259134913C8B2B8BFA0138
:1018200025903490FA013296749031963491398B28
:10183000329664903196449041E04C1518F04A1568
:1018400008F07FC0662D062C000C770B7C836B8321
:10185000842D042C000C990B9E838D83A98DBA8D49
:10186000ED91FC9111970284F385E02DCD0109954E
:10187000512CD12CC12CEA2DF0E0FA87E9872B2DD1
:1018800030E03C872B87A401440D511D47FC5A953D
:10189000588F4F8B69817A81660D711D67FC7A952F
:1018A0007E876D877989C71608F051CF2C2D30E0DF
:1018B0004D815E81420F531FA985BA854A9FC001A1
:1018C0004B9F900D5A9F900D1124FC01E80DF91DBE
:1018D000F88BEF87852D612C4F89588D420F531F50
:1018E0005E8B4D8B671408F050C044244394480E1F
:1018F000877041F4C1010196EB89FC89E20DF31D6B
:10190000D4901C01D7FE19C0A98DBA8DED91FC9120
:10191000662D70E0B1E0BB1219C0AB1217C02D8567
:101920003E85620F731F0484F585E02D2F81388575
:101930004D895E89898D9A8D0995DD0C6394842D7E
:10194000D1CF1E821D821C821B8288CF4B815C817D
:10195000640F751FAB85BC856A9FC0016B9F900D9E
:101960007A9F900D112469817A81680F791F06840E
:10197000F785E02DEF80F88409851A859D014F8554
:101980005889898D9A8D0995D8CF570CC3948ACFE1
:101990006A960FB6F894DEBF0FBECDBFDF91CF9130
:1019A0001F910F91FF90EF90DF90CF90BF90AF907D
:1019B0009F908F907F906F905F904F903F902F906F
:1019C00008958F929F92AF92CF92EF92FF920F93D2
:1019D0001F93CF93DF93EC01262F898D9A8D00976B
:1019E00009F051C06A30D1F41D861C868D8948E00B
:1019F000849F900111248E859F85820F931F9F875E
:101A00008E8781E090E0DF91CF911F910F91FF9041
:101A1000EF90CF90AF909F908F9008956D3089F3A5
:101A2000CC88AD888F898823C1F08C859D8536E070
:101A3000C39E800D911D112448855985481759076B
:101A400064F44E855F851D861C8638E0A39EC00128
:101A50001124840F951F9F878E87EA88FB88088949
:101A600019894E855F856C857D85CE010E94BC0AF3
:101A70002C898C859D8546E0249F800D911D112425
:101A80009D878C87BECF6A3069F41D861C86FC0159
:101A90003896E4912D898E859F85E29F800D911D5A
:101AA0001124ADCF6D3009F4ACCFFC0134963491E4
:101AB000631708F4A6CF3296E491E61708F4A1CF95
:101AC000FC01329685909490462F431B342F47E0BB
:101AD000349F800C911C1124F4013296349131967C
:101AE000E4913323A9F1EE2399F1CC88F4013596E2
:101AF000E491AD884F89442301F10E2E000CFF0BB9
:101B0000E30FF11DCE9EA001CF9E500D11246C85D8
:101B10007D85460F571F68857985641775076CF4B6
:101B20004E855F851D861C86FC013896E491AE9E2D
:101B3000400D511D11245F874E87EA88FB88088974
:101B400019894E855F856C857D85CE010E94BC0A12
:101B5000F4013496E4912C898C859D85E29F800D5B
:101B6000911D11248DCF6F927F928F929F92AF9291
:101B7000BF92CF92DF92EF92FF920F931F93CF937A
:101B8000DF93EC016B015A0139014801E881F981C9
:101B90000284F385E02D0995E881F9810288F389B3
:101BA000E02D87019301A501B601CE010995A5019C
:101BB000480D591D41505109E881F9810288F38986
:101BC000E02D9301B601CE010995E881F9810088E5
:101BD000F189E02D9401A501B601CE010995C60C4D
:101BE000D71CB60161507109E881F9810088F1893B
:101BF000E02D9401A501CE010995E881F9810688BF
:101C0000F789E02DCE01DF91CF911F910F91FF90C9
:101C1000EF90DF90CF90BF90AF909F908F907F908C
:101C20006F9009946F927F928F929F92AF92BF9222
:101C3000CF92DF92EF92FF920F931F93CF93DF9398
:101C40005C01EB016A01490138018701DC01ED917A
:101C5000FC916217730719F5641675062CF0962D22
:101C6000872D3A01C92ED82E9601261937092F5FE4
:101C70003F4F048CF58DE02DA301BE01C5010995F0
:101C8000DF91CF911F910F91FF90EF90DF90CF9058
:101C9000BF90AF909F908F907F906F900895461562
:101CA000570591F42617370724F0892D4B01C22FD1
:101CB000D82F9E01281939092F5F3F4F068CF78DC9
:101CC000E02DA601B401DACF0284F385E02D099559
:101CD000D501ED91FC910488F589E02D83019401F3
:101CE000A601BE01C5010995D501ED91FC910688BB
:101CF000F789E02DC501DF91CF911F910F91FF90E2
:101D0000EF90DF90CF90BF90AF909F908F907F909B
:101D10006F900994EF92FF920F931F93DC011A9634
:101D20000D911C911B9718962D913C911997ED914F
:101D3000FC9100A0F1A1E02D7B0150E040E070E0BB
:101D400060E009951F910F91FF90EF9008954F92D9
:101D50005F926F927F928F929F92AF92BF92CF923B
:101D6000DF92EF92FF920F931F93CF93DF936C015B
:101D70002B015A0139014801DC01ED91FC910284EB
:101D8000F385E02D0995E201640C751CD601ED91F7
:101D9000FC91C615D7055CF40088F189E02D870118
:101DA0009401A501BE01C60109952196EFCF0688D1
:101DB000F789E02DC601DF91CF911F910F91FF9020
:101DC000EF90DF90CF90BF90AF909F908F907F90DB
:101DD0006F905F904F9009948F929F92AF92BF92B5
:101DE000CF92DF92EF92FF920F931F93CF93DF93E7
:101DF000EC015B014A016901E881F9810284F38504
:101E0000E02D099595012C0D3D1D21503109E881EA
:101E1000F9810488F589E02D78018401A401B501D8
:101E2000CE010995E881F9810688F789E02DCE0178
:101E3000DF91CF911F910F91FF90EF90DF90CF90A6
:101E4000BF90AF909F908F9009948F929F92AF9286
:101E5000BF92CF92DF92EF92FF920F931F93CF9397
:101E6000DF93EC015B014A0169017801E881F981A6
:101E70000284F385E02D0995C80CD91C8601015018
:101E80001109E881F9810488F589E02D9501A40103
:101E9000B501CE010995E881F9810688F789E02D21
:101EA000CE01DF91CF911F910F91FF90EF90DF90C6
:101EB000CF90BF90AF909F908F900994EF92FF9238
:101EC0000F931F93DC01ED91FC9100A0F1A1E02D97
:101ED00009951F910F91FF90EF9008950F931F9315
:101EE000DC01ED91FC91068CF78DE02D09951F9199
:101EF0000F9108950F931F93DC01ED91FC91048CD9
:101F0000F58DE02D09951F910F910895DC01ED915C
:101F1000FC910084F185E02D09942F923F924F921D
:101F20005F926F927F928F929F92AF92BF92CF9269
:101F3000DF92EF92FF920F931F93CF93DF9300D026
:101F400000D000D0CDB7DEB73C016A013E832D83BF
:101F5000FC82EB825801A41AB50AB7FE03C0B19403
:101F6000A194B1088D809E80861A970A97FE03C0BF
:101F70009194819491088A149B045CF0902F812F96
:101F80000D811E819D838E839C2D8D2D6B01692F6C
:101F9000782F0C151D055CF09D818E817E836D83ED
:101FA000692F782F902F812F8601C92ED82E1601E8
:101FB000201A310A2B012D813E81421A530A57FE05
:101FC00003C0519441945108710137FE03C03FEFA3
:101FD000E31AF30AF594E7948D819E81861797079B
:101FE0005CF5A1E0B0E0BA83A983C016D1064CF13C
:101FF000D301ED91FC910484F585E02D2B813C818A
:10200000A8016D817E818A149B041CF04D815E8144
:10201000B801C3010995E418F508F7FE0AC02D813F
:102020003E8189819A81280F391F3E832D83E20CDE
:10203000F31C0F5F1F4FD9CF2FEF3FEF3A83298358
:10204000D4CF26960FB6F894DEBF0FBECDBFDF917A
:10205000CF911F910F91FF90EF90DF90CF90BF90A5
:10206000AF909F908F907F906F905F904F903F9038
:102070002F9008950F931F93CF93DF93EC018B0163
:10208000FE0194913196649122969F3799F470E005
:1020900090E080E00E94F10860E0E62FF0E03296E8
:1020A0000E1B1F0B101611065CF3DF91CF911F91D1
:1020B0000F9108954398429885B18C7F292F237002
:1020C000822B85B98BB183709C7F892B8BB941980A
:1020D000419A30E020E02617A8F4FE01E20FF31F3A
:1020E000E491429A85B18C7F9E2F9370892B85B99C
:1020F0008BB18370EC7FE82BEBB94198419A2F5F4D
:102100003F4FE9CFC60FD11D439AC7CF439842989E
:1021100025B12C7F392F3370232B25B92BB1237098
:102120009C7F922B9BB94198419A95B19C7F282F17
:102130002370922B95B99BB193708C7F892B8BB9AF
:102140004198419A429AFA01615078F0219195B1F3
:102150009C7F822F8370982B95B98BB183702C7FD5
:10216000822B8BB94198419AEFCF439A08954398B7
:10217000429825B12C7F392F3370232B25B92BB1F1
:1021800023709C7F922B9BB94198419A95B19C7F7B
:10219000282F2370922B95B99BB193708C7F892B3C
:1021A0008BB94198419A429A85B18C7F972F937051
:1021B000892B85B98BB183707C7F782B7BB9419853
:1021C000419A85B18C7F962F9370892B85B98BB1FD
:1021D00083706C7F682B6BB94198419A439A08953C
:1021E00081E08093940284B1836084B98AB18C6F5A
:1021F0008AB9389A399A3A9A3B9A3C9A439A409AC1
:10220000419A449A62E370E080E090E00E94F10815
:10221000449864E670E080E090E00E94F108449AFF
:1022200064E670E080E090E00E94F10870E060E019
:1022300080EB90E00C94B7101F93CF93DF93C82FDF
:10224000162F80919402811102C00E94F0104398D1
:10225000429885B18C7F85B98BB183708BB94198D9
:10226000419A95B19C7F8C2F8370982B95B98BB137
:102270008370CC7F8C2B8BB94198419A429A84B160
:102280008C7F84B98AB183708AB961E070E080E0A4
:1022900090E00E94F10861E070E080E090E00E9430
:1022A000F108409A409840984098C3B1D9B1409AFB
:1022B00061E070E080E090E00E94F108409A409870
:1022C0004098409883B199B1409A115020F7409AB4
:1022D000439A24B1236024B92AB12C6F2AB9C37060
:1022E000DC7FCD2B83709C7F892B9C2FDF91CF913E
:1022F0001F9108950F931F93CF93DF938C0160E09C
:102300000E941C11EC0161E0C8010E941C118C01AB
:10231000BE0190E080E0CB017727662730E020E027
:10232000602B712B822B932BDF91CF911F910F91FB
:102330000895FF920F931F93CF93DF938C0160E07A
:102340000E941C11EC0161E0C8010E941C11F82ED2
:1023500062E0C8010E941C11AE0170E060E0742FC1
:1023600066275527442700E030E020E0402B5F2916
:10237000622B732B292F30E0C901B0E0A0E08A0165
:102380009B01082B192B2A2B3B2BC901B801DF918C
:10239000CF911F910F91FF9008950F931F93CF93AB
:1023A000DF93EC018B01FE0185919491FE01329641
:1023B0002496659174918F3F980771F490E080E0C6
:1023C0000E94F108045011091016110664F3DF9100
:1023D000CF911F910F9108950E94B710F3CFFC0188
:1023E000262F358D868D82958170982F9627692F9F
:1023F00070E072A361A330FF0CC0821307C080E2BB
:1024000090E050E040E060E00C94861081E290E0C3
:10241000F8CF878D90A1833927E7920741F058F4D0
:10242000843521E0920791F080329445C1F46260D6
:1024300081E094E012C0863223E99207C1F389302B
:1024400025EB9207A1F38532924949F4660F771F75
:10245000660F771F636187E090E00C94B71081E608
:1024600090E0FBCF8F929F92AF92BF92CF92DF927C
:10247000EF92FF920F931F93CF93DF9300D000D082
:10248000CDB7DEB77C014B015A016901FC01878D94
:1024900090A18632954151F4F701868980FF06C0EC
:1024A000C801841B950B81F50F5F1F4FF701858DC8
:1024B00080FF31C085A599828A82DB82CC82AE0101
:1024C0004F5F5F4F64E090E00E948610F70181A9A2
:1024D000B982AA821B830C83AE014F5F5F4F64E019
:1024E00090E00E9486100F900F900F900F90DF9158
:1024F000CF911F910F91FF90EF90DF90CF90BF9001
:10250000AF909F908F9008952617370779F6C80EE1
:10251000D91E8A01CBCFB40187A190A50E94B71024
:10252000B501F70181A592A50E94B710C814D9047E
:1025300019F40A151B05B9F2F701858D85FF08C04E
:10254000868980FF1EC0102F0027A02AB12A85018E
:10255000B401F70185A596A50E94B710B501F70152
:1025600081A992A90E94B710B601F70187A590A989
:102570000E94B710B801F70183A994A90E94B7106F
:10258000B2CFDC2CCC248C289D286401E1CFAF9203
:10259000BF92CF92DF92EF92FF920F931F93CF9350
:1025A000DF93EC0180918102882349F0C701880FF5
:1025B000991F8E739927E1ECEE22E82AF92A37FF5A
:1025C00005C0620F731F319521953109260F371F02
:1025D00077FF02C070E060E0888599852817390789
:1025E0000CF4C9016C01C61AD70A17FF05C0400FC9
:1025F000511F119501951109040F151F57FF02C0B6
:1026000050E040E02A853B85021713070CF498013F
:102610005901A41AB50A8901015011099C012150E0
:102620003109CE010E943212439842983BA58CA5F5
:1026300025B12C7F982F9370292B25B99BB19370CE
:102640008C7F982B9BB94198419A95B19C7F832FA1
:102650008370982B95B98BB183703C7F832B8BB99A
:102660004198419A429ACA14DB042CF09A2D8B2D82
:102670005601C92ED82E8F2DA70193E05695479568
:102680009A95E1F74C7F5E2D550F550F550F6F2D25
:1026900063707F2D7C7FEE2DE3702E2D2C7FE22E3C
:1026A000887F1C141D040CF03FC09091820295019C
:1026B000992311F195B19C7F95B99BB19370982B9B
:1026C0009BB94198419A95B19C7F95B99BB1937004
:1026D000942B9BB94198419A95B19C7F95B99BB138
:1026E0009370952B9BB94198419A2150310911F76C
:1026F00091E0C91AD108D5CF95B19C7F962B95B999
:102700009BB19370972B9BB94198419A95B19C7F4F
:102710009E2B95B99BB193709E299BB94198419A84
:102720002150310949F7E4CF439A8D8D80FF08C0CD
:102730008F8D98A18632954191F48E8980FF0FC0CC
:102740000A851B85015011092885398521503109D9
:1027500050E040E070E060E0CE010E943212DF9174
:10276000CF911F910F91FF90EF90DF90CF90BF908E
:10277000AF900895EF92FF920F931F93CF93DF9343
:102780007C01E90177FD6DC057FD6BC0FC018085C0
:102790009185681779070CF064C082859385481786
:1027A00059070CF05EC080918102882341F0C90175
:1027B000880F991F8E739927C17CC82BD92B8A014A
:1027C0009B01C7010E94321280918202882309F482
:1027D0004FC043984298F70133A584A525B12C7FBB
:1027E000982F9370292B25B99BB193708C7F982BD0
:1027F0009BB94198419A95B19C7F832F8370982B08
:1028000095B98BB183703C7F832B8BB94198419AEA
:10281000429A85B18C7F85B99BB18D2F887F93704B
:10282000892B8BB94198419A85B18C7F85B92BB1A1
:10283000CE0133E0969587953A95E1F78C7F23702A
:10284000822B8BB94198419A85B18C7F85B98BB128
:10285000CC0FCC0FCC0F8370C82BCBB94198419AC9
:10286000439ADF91CF911F910F91FF90EF900895C0
:10287000BE01F70183A594A5DF91CF911F910F9120
:10288000FF90EF900C94B710EF92FF920F931F936D
:10289000CF93DF93CDB7DEB72A970FB6F894DEBF9C
:1028A0000FBECDBF7C01862F8370F701868B962FDC
:1028B000917060FFE3C026813781F701318720875F
:1028C000992309F4DEC024813581F70133872287FB
:1028D000823009F4DBC0833009F4DAC0813009F4B6
:1028E000D3C088E48A87F701858D968D90FF03C059
:1028F0002A8520582A8791FF04C02A8530E423279F
:102900002A8793FF04C02A8538E023272A87F70106
:10291000278D30A180FF00C12431F8E63F0709F080
:10292000B9C09A85892F88728A871F82892F8595D9
:102930008074282F2260892F90E09595879580726A
:102940009927822B88878BE38987AE01495F5F4F88
:1029500063E086EB90E00E9486102AE230E0F70107
:1029600030A727A38BE290E092A781A74CE250E02A
:1029700054A743A736A725A730AB27A792AB81ABB7
:1029800094AB83ABAE01465F5F4F61E086E390E0BE
:102990000E9486108A8590E0F70194A383A3F70133
:1029A000868980FF1CC0858D968D92FD18C087A1F9
:1029B00090A521A532A530A727A392A781A785A519
:1029C00096A521A932A936A725A792AB81AB87A5E9
:1029D00090A923A934A930AB27A794AB83ABF70107
:1029E0000285138501501109208531852150310957
:1029F00050E040E070E060E0C7010E943212F70151
:102A000066817781878D90A120E08732F3E99F0767
:102A100009F420E2F701358D30FF39C119821A829D
:102A20007B836C831D822E83AE014F5F5F4F66E018
:102A300083E390E00E94861019821A82AE014F5FF4
:102A40005F4F62E087E390E00E948610F701858D7A
:102A500080FF07C050E040E060E083E190E00E942A
:102A600086102A960FB6F894DEBF0FBECDBFDF9159
:102A7000CF911F910F91FF90EF90089524813581A0
:102A80001CCF2681378121CF88E22CCF88E92ACF3D
:102A900088EF28CF273243E9340789F41F8281E386
:102AA00088878A8585958595859585958870898798
:102AB000AE01495F5F4F63E080EC90E04CCF23367E
:102AC00089E1380749F02138E4E93E0729F021314E
:102AD000F5E13F0709F041CF8A8587FF02C0816099
:102AE0008A878A8586FF02C082608A878A858F737B
:102AF000233649E1340731F0213884E9380721F4DD
:102B00008A858F728A8729CF2131354109F025CFF7
:102B10008A858F7E806CF6CF6A85862F062E000C04
:102B2000990B2339F7E73F0751F0A8F52435E1E089
:102B30003E0709F45CC02032F4E53F07A1F540E010
:102B400052E0F70150A747A341E052E052A741A746
:102B500042E052E054A743A740E152E056A745A700
:102B600041E152E050AB47A742E152E052AB41ABEA
:102B700043E152E054AB43AB882790782632F3E927
:102B80003F0721F02032344509F071C067FD8460B1
:102B900060E071E36EC0263243E9340781F22930E8
:102BA000E5EB3E0761F220E230E0F70130A727A312
:102BB00021E230E032A721A722E230E034A723A7A8
:102BC00020E530E036A725A721E530E030AB27A788
:102BD00022E530E032AB21AB23E530E034AB23AB70
:102BE000BC0166277078776280E690E046C027E3F4
:102BF00030E0F70136A725A726E330E030AB27A762
:102C000029E330E032AB21AB28E330E034AB23AB37
:102C100020E230E030A727A321E230E032A721A74D
:102C200022E230E034A723A7F4E06F9FB001112423
:102C300066277170882792708862682B792B81E0F3
:102C400090E00E94B7108A85682F70E075956795AF
:102C5000759567956870772783FD70616063F701EC
:102C600074A363A383E090E00E94B71098CE60E065
:102C700072E6682B792B80E094E00E94B7106A8599
:102C8000F4E06F9FB001112466277170D8CF8339AB
:102C9000F7E79F07D9F1F0F4803244E59407B1F1EA
:102CA0008338E7E79E0731F184359140F1F46150B4
:102CB000710981E390E00E94B71070E060E082E368
:102CC00090E00E94B71070E060E083E390E00E9423
:102CD000B710C7CE863223E99207C1F0893045EBA1
:102CE0009407A1F08532924911F3F70161A172A115
:102CF000626003C0F70161A172A181E690E00E94C9
:102D0000B71070E060E08AE690E0E1CFF70161A1E2
:102D100072A1626081E094E00E94B71070E060E010
:102D200084E094E0D4CFEF92FF920F931F93DC01E5
:102D30001A960D911C911B9718962D913C911997FD
:102D4000ED91FC9100A0F1A1E02D7B0150E040E06D
:102D500070E060E009951F910F91FF90EF9008954A
:102D6000EF92FF920F931F93DC01ED91FC9100A075
:102D7000F1A1E02D780101E010E009951F910F917C
:102D8000FF90EF900895EF92FF920F931F93DC0155
:102D9000ED91FC9100A0F1A1E02D7801890121E0E5
:102DA00030E009951F910F91FF90EF9008950895DD
:102DB00090E080E00895FB0101900020E9F7319751
:102DC000AF01461B570BDC01ED91FC910280F381B2
:102DD000E02D0994CF93DF93BC0185E992E00E9436
:102DE0002509EC0167E471E085E992E00E94DB16B9
:102DF0008C0F9D1FDF91CF9108950F931F93CF9359
:102E0000DF938C01D0E0C0E06115710519F00E94DC
:102E1000DB16EC0167E471E0C8010E94DB168C0F41
:102E20009D1FDF91CF911F910F9108950F931F93D5
:102E3000CF93DF93EC01FB01448155816081718167
:102E4000E881F9810280F381E02D09958C0167E426
:102E500071E0CE010E94DB16800F911FDF91CF91B0
:102E60001F910F910895EF92FF920F931F93CF93AD
:102E7000DF93CDB7DEB7A1970FB6F894DEBF0FBED4
:102E8000CDBF8C01CB01B0E0A0E019A2FE01B1964C
:102E9000AC01BD014F7055276627772724E0B69512
:102EA000A795979587952A95D1F74A301CF5405DEF
:102EB00042930097A105B10559F7F12CE12C309709
:102EC00029F0BF01C8010E94DB167C0167E471E0B4
:102ED000C8010E94DB168E0D9F1DA1960FB6F894B7
:102EE000DEBF0FBECDBFDF91CF911F910F91FF903D
:102EF000EF900895495CDCCF0E94672C0F931F93DD
:102F0000CF93DF93EC0188819981009759F02A8152
:102F10003B812617370730F081E0DF91CF911F9179
:102F20000F9108958B016F5F7F4F0E94AA2B00972E
:102F300059F0998388831B830A832C813D81232B3D
:102F400059F7FC011082E8CF80E0E7CFEF92FF92C3
:102F50000F931F93CF93DF936115710541F480E0C8
:102F6000DF91CF911F910F91FF90EF900895411540
:102F70005105B1F07B01EC010C811D81040F151F7F
:102F8000B8010E947E17882351F3288139818C81F2
:102F90009D81B701820F931F0E94752C1D830C83A6
:102FA00081E0DECFCF93DF93EC0188819981009798
:102FB00011F00E94212B198218821D821C821B8213
:102FC0001A82DF91CF910895CF92DF92EF92FF9214
:102FD0000F931F93CF93DF93CDB7DEB762970FB6F2
:102FE000F894DEBF0FBECDBF8C01CB01F80111827A
:102FF000108213821282158214824AE09E012F5F92
:103000003F4F6901B9010E947827F6010190002025
:10301000E9F731977F01EC18FD08B701C8010E945C
:103020007E17811112C0C8010E94D21762960FB696
:10303000F894DEBF0FBECDBFDF91CF911F910F91EE
:10304000FF90EF90DF90CF900895F801F582E48231
:10305000B601808191810E94752CE8CFCF93DF93D8
:10306000EC01FB0101900020E9F73197AF01461B0D
:10307000570B0E94A617811103C0CE010E94D217E0
:10308000CE01DF91CF910895CF93DF93EC01FB0147
:1030900044815581608171810E94A617811103C00E
:1030A000CE010E94D217CE01DF91CF910895EF9209
:1030B000FF920F931F93CF93DF93EC017B01198253
:1030C00018821B821A821D821C82FB010190002043
:1030D000E9F731978F01061B170BB8010E947E1785
:1030E000811109C0CE01DF91CF911F910F91FF9007
:1030F000EF900C94D2171D830C83B70188819981BE
:10310000DF91CF911F910F91FF90EF900C94752C50
:10311000FC0180819181009711F00C94212B08957E
:103120001F93CF93DF9385ED8093BC0080911302B2
:1031300090911402A0911502B09116020796A11D5C
:10314000B11D23E0B695A795979587952A95D1F758
:103150002091BC0024FD03C010925B0252C040913C
:103160001302509114026091150270911602452BC2
:10317000462B472B69F30097A105B10541F02AE2E0
:103180002A95F1F700C00197A109B109E1CF80911B
:103190001202C1E0C0931102882399F1D091B800C6
:1031A0001091BA008091BC008A7B8093BC0060E0E3
:1031B00082E10E94020760E083E10E940207109210
:1031C0005B02C0935D0210925C0261E082E10E94AA
:1031D000020761E083E10E9402078091B9008E7FBF
:1031E0008093B9008091B9008D7F8093B90088E405
:1031F0008093B80085E48093BC001093BA00D0930C
:10320000B800DF91CF911F9108951F920F920FB6D2
:103210000F9211242F933F938F939F93AF93BF935C
:1032200080918C0290918D02A0918E02B0918F02BC
:1032300030918B0223E0230F2D3758F50196A11D05
:10324000B11D20938B0280938C0290938D02A093EA
:103250008E02B0938F028091900290919102A09182
:103260009202B09193020196A11DB11D809390022C
:1032700090939102A0939202B0939302BF91AF9169
:103280009F918F913F912F910F900FBE0F901F90A4
:10329000189526E8230F0296A11DB11DD2CF1F92CB
:1032A0000F920FB60F9211242F933F934F935F937A
:1032B0006F937F938F939F93AF93BF93EF93FF93FE
:1032C00085E992E00E94C709FF91EF91BF91AF910C
:1032D0009F918F917F916F915F914F913F912F912E
:1032E0000F900FBE0F901F9018951F920F920FB660
:1032F0000F9211242F938F939F93EF93FF93E0915D
:10330000A502F091A6028081E091AB02F091AC029F
:1033100082FD1BC090818091AE028F5F8F732091E0
:10332000AF02821741F0E091AE02F0E0EB56FD4FA4
:10333000958F8093AE02FF91EF919F918F912F9186
:103340000F900FBE0F901F9018958081F4CF1F92A1
:103350000F920FB60F9211242F933F934F935F93C9
:103360006F937F938F939F93AF93BF93EF93FF934D
:103370008091B900887F803609F44AC0F0F5883220
:1033800009F4A5C018F5803109F499C0B8F4882370
:1033900009F4F5C0883009F492C0FF91EF91BF9114
:1033A000AF919F918F917F916F915F914F913F91DD
:1033B0002F910F900FBE0F901F901895883109F430
:1033C00086C0803251F780935A0214C0803409F4C9
:1033D0009BC040F48033B9F38833F9F680935A02E6
:1033E00085ECAEC0803509F483C0883509F494C0FB
:1033F000883499F60E949018D0CF883909F48AC091
:1034000038F5883729F050F4883611F0803729F6DE
:1034100083E080935B021092590255C0883809F40A
:1034200079C0803919F0803809F0B7CF80915902FE
:10343000803208F06FC0E091590281E08E0F8093D6
:1034400059028091BB00F0E0E75CFD4F80833BC0F8
:10345000803B39F0D0F4803A09F477C0883A09F01B
:103460009CCF84E080935B02109238021092370266
:10347000F0E0E0E009958091370281110FC081E012
:10348000809337021092170209C0803C09F4A8CF3C
:10349000883C09F4A5CF883B09F07FCFE091380242
:1034A00081E08E0F80933802F0E0E95EFD4F80816D
:1034B0008093BB00909138028091370229C080919F
:1034C00080028093BB0085EC8093BC0066CF909116
:1034D0007F0280917E02981758F5E0917F0281E08B
:1034E0008E0F80937F02F0E0E25AFD4F8081E9CF9A
:1034F000E0917F0281E08E0F80937F028091BB007C
:10350000F0E0E25AFD4F808390917F0280917E022D
:103510009817C8F285E8D8CFE0917F0281E08E0F3E
:1035200080937F028091BB00F0E0E25AFD4F8083E0
:1035300080915D0281115ECF81E080935C0284EA1C
:103540008093BC0010925B0228CF85EC8093BC0076
:1035500010925B0280915902803230F4E09159025E
:10356000F0E0E75CFD4F10826091590270E089E362
:1035700092E0F0E0E0E00995109259020ECF10922F
:103580005A0238CFE5E9F2E01382128288EE93E026
:10359000A0E0B0E084839583A683B7838DE091E0BB
:1035A0009183808385EC90E09587848784EC90E01C
:1035B0009787868780EC90E0918B808B81EC90E000
:1035C000938B828B82EC90E0958B848B86EC90E0E1
:1035D000978B868B118E128E138E148EECE4F3E093
:1035E0001382128220EF30E03583248380E491E05F
:1035F000978386833187208793878287168A1586EB
:1036000014861786168681E0858B848B2FEF3FEF1B
:10361000338B228B318B208B878B108E128E118EE9
:103620008FE191E091838083A8E3B3E080E112967B
:103630008C9312978FE014968C93149786E01396D0
:103640008C93139787E015968C9315978CE291E0F5
:1036500017969C938E931697E0EAFDE0E491F0E0D4
:10366000EE0FFF1FE157F24F8591949119969C93AD
:103670008E931897E9EAFDE0E491F0E0EE0FFF1F6A
:10368000E157F24F859194911B969C938E931A97D4
:10369000E8EAFDE0E491F0E0EE0FFF1FE157F24FA2
:1036A000859194911D969C938E931C97EFE9FDE074
:1036B000E491F0E0EE0FFF1FE157F24F85919491F6
:1036C0001F969C938E931E97E2E8FDE0E49150963E
:1036D000EC935097EBE8FDE0E4915296EC9352970F
:1036E000EAE8FDE0E4915196EC935197E1E8FDE0C2
:1036F000E4915396EC9353978AE090E08D939C93DA
:10370000E2E3F3E0158214821382128211821082A6
:103710000895CF93DF93CDB7DEB762970FB6F894D5
:10372000DEBF0FBECDBF789484B5826084BD84B502
:10373000816084BD85B5826085BD85B5816085BDAC
:1037400080916E00816080936E0010928100809164
:1037500081008260809381008091810081608093EC
:103760008100809180008160809380008091B10011
:1037700084608093B1008091B00081608093B0003C
:1037800080917A00846080937A0080917A008260D0
:1037900080937A0080917A00816080937A00809192
:1037A0007A00806880937A001092C1000E94F01025
:1037B00060E090E080E00E941C116C01883024E5FC
:1037C000920771F1803244E5940751F189389948A4
:1037D00009F441C160E087E690E00E941C11873443
:1037E000974409F43DC18FEE90E00E9499116B015E
:1037F00087E2C81683E9D80699F081EA90E00E9432
:103800007A1183E6C82E89E1D82E613091E67907D6
:1038100039F06F3F7607F1F5A6E2CA2EA5E1DA2E60
:10382000D0928402C09283020E94F010109268032A
:1038300010926703D0926C03C0926B0381E3C816A9
:1038400080E8D80611F40C944B2408F0E5C1E3E5B8
:10385000CE16E0E2DE0611F40C94B02408F06BC141
:1038600021E1C21625E1D20609F4CAC208F01BC143
:1038700059E9C516D10411F40C945B2408F004C175
:10388000CA94CD2811F40C94742410925103109210
:103890005003B3C26115FFEF7F0729F4F0E2CF2E8A
:1038A000F5E1DF2EBDCFB1EACB2EB5E0DB2E611501
:1038B000704F09F4B5CF8FEB90E00E9499116B0126
:1038C000673543E8740709F4ABCF6138744909F4EC
:1038D000A7CF61E1C61665E1D60609F4A1CF80E263
:1038E000C81685E1D806D1F296E2C91695E1D90647
:1038F00009F492CFE1E8CE16E5E1DE0609F490CFB7
:10390000C114F4E1DF0609F4B0C084ED90E00E9438
:103910007A116B016031734509F482CF87ED90E035
:103920000E947A116B016133704809F479CF8EEFF0
:1039300090E00E947A11C72ED82EE92EFF2453E57D
:10394000C51650E2D50609F46BCF84E090E00E94E2
:103950007A116B01833E31F4672B61F5C12CF3EED4
:10396000DF2E5ECF811126C0C11460E8D60611F5A6
:103970008091060190910701A091080189839A83A3
:10398000AB83AE014F5F5F4F63E089EB90E00E9435
:10399000861060E080ED90E00E941C1159E9C52E70
:1039A000D12C893909F43CCF8039E1F440E9C42EA7
:1039B000DC2C36CF86E2C81685E1D80609F42CCF78
:1039C00090EFC91699E8D90609F454C0E2E5CE167D
:1039D000E5E8DE0609F453C0F1E1CF16FCEADF06A4
:1039E00009F41ECF83ED90E00E947A11C72ED82EE5
:1039F000E92EFF2423E6C21621E9D20609F410CFEE
:103A000083ED90E00E947A11872FC62ED72E49E2CF
:103A1000C41642E3D40609F403CF8359823008F474
:103A2000FFCE783909F4FCCE773709F4F9CE763138
:103A300009F4F6CE53EDC516D10409F4F1CE63EDC9
:103A4000C616D60609F4ECCE60E090E080E00E9455
:103A50001C116C01E5CE29E8C22E22E1D22EE0CE67
:103A600097E4C92E93E8D92EDBCEA4E1CA2EA8E6AE
:103A7000DA2ED6CEE5E3CE2EE7E7DE2ED1CE79E8FC
:103A8000C72E77E7D72ECCCE94E5C91691E0D9069C
:103A900009F4A7C1E5E0CE16E5E1DE0609F0F5CEB2
:103AA00084E090E123C7F1E8CF16F5E1DF0609F4E1
:103AB00060C7C8F440E2C41645E1D40609F494C6D0
:103AC00056E2C51655E1D50609F0DFCE83E194E054
:103AD00090936A03809369030CE010E045ECC42ED8
:103AE00047E0D42EA5C162E0C61666E1D60609F409
:103AF0002AC783E6C81689E1D80609F0C6CE81E058
:103B00008093820283E59AE090936A03809369032D
:103B100080EE91E0909353038093520380E293E010
:103B2000909351038093500303E510E032E7C32ED6
:103B300037E0D32E7DC199E0C91698E6D90609F47D
:103B4000DEC638F5F5E3CF16F5E4DF0609F459C60D
:103B500098F449E2C41642E3D40609F096CE83E015
:103B600096E090936A038093690300E410E022E3F7
:103B7000C22E27E0D22E5CC150E1C51653E5D50612
:103B800009F44AC668E0C61664E5D60609F488CF8B
:103B90007CCE89E8C81687E7D80609F46FC6B8F462
:103BA000E4E1CE16E8E6DE0609F44FC6F3E8CF16E8
:103BB000F7E7DF0609F069CE82E091E190936A03AE
:103BC0008093690368E870E08EEE9AE014C123E9FF
:103BD000C21627E7D20609F401C746E9C41647E72B
:103BE000D40609F052CE83E094E090936A03809368
:103BF000690380EE91E0909353038093520380E435
:103C000091E090935103809350030DE010E092EA0D
:103C1000C92E95E0D92E0CC158E3C51653E9D50637
:103C200009F4A1C608F05FC085E2C81683E9D8068A
:103C300009F448C0A0F5E0E9CE16DE0609F438C65E
:103C4000F8F483E094E127E5C21623E8D20609F0F0
:103C50001CCE90936A038093690380EE91E0909369
:103C600053038093520380E491E090935103809337
:103C7000500302E010E0F8EDCF2EF6E0DF2ED8C0C2
:103C800083E094E042E0C41643E9D40609F49EC000
:103C900050E2C51653E9D50609F402CFF6CD69E224
:103CA000C61663E9D60609F461C678F497E2C91628
:103CB00093E9D90609F42EC6E8E2CE16E3E9DE065A
:103CC00009F0E3CD80E091E11CC6F1E3CF16F3E902
:103CD000DF0631F025E3C21623E9D20609F0D5CD7F
:103CE00080E090E10EC649E8C41644E9D40608F025
:103CF00042C057E8C51654E9D50608F056C661E833
:103D0000C61664E9D60609F44DC6B0F490E4C91AA3
:103D100093E9D90AE2E0CE16D10408F0B6CD83E1EA
:103D200094E090936A038093690305E610E04FE204
:103D3000C42E46E0D42E7CC0F6E8CF16F4E9DF06A8
:103D400009F0A3CD83E094E090936A038093690324
:103D500080EE91E0909353038093520380E491E0CE
:103D600090935103809350030BE310E02FEAC22E8F
:103D700025E0D22E5DC029E0C21625EBD20609F45B
:103D80002DC6C0F483E194E151E1C5165CEAD50685
:103D9000E9F065E0C61665EBD60609F076CD88E059
:103DA00090E190936A038093690360EB70E08AE985
:103DB00098E021C085E0C81685ECD80681F3C114CF
:103DC00093EED90609F061CD83E19EE090936A03FA
:103DD0008093690303E010E054E9C52E56E0D52E28
:103DE00027C082E090E190936A03809369036CE9B5
:103DF00070E082E19CE00E94CD11D12CC12C18C052
:103E000083E090E090936A038093690380EE91E0F1
:103E1000909353038093520380E491E09093510375
:103E20008093500303E010E067EDC62E67E0D62EC6
:103E300020916A03822F82958F7090E0817099277C
:103E400090936E0380936D03C114D10481F069E0F7
:103E500070E08EE695E00E943A10B801C6010E941B
:103E60003A1066E070E088E695E00E943A1060E063
:103E70008CE493E00E94441460E08CE493E00E94A0
:103E8000EF1180916B0390916C038838944909F08D
:103E900016C11092810220EE3FEF50E040E070E04A
:103EA00060E08CE493E00E94BA13D0907703C09056
:103EB00078038091690380FF03C00EE2D02EC12CED
:103EC00080916B0390916C038230964119F41EE24D
:103ED000D12EC12C10E000E030E020E050E040E0C6
:103EE00070E060E08CE493E00E94321280916903FC
:103EF00080FD10C070E060E08091730390917403C6
:103F00000E94B71070E060E0809175039091760395
:103F10000E94B7104398429885B18C7F9C2D937076
:103F2000892B85B99BB193702C2D2C7FC22EC92A69
:103F3000CBB84198419A85B18C7F9D2D9370892B88
:103F400085B99BB193704D2D4C7FD42ED92ADBB807
:103F50004198419A429A84B18C7F84B98AB1837026
:103F60008AB92091690330916A0380916B03909123
:103F70006C0326FD0EC0409A40984098409843B18B
:103F800049B1409A20FD05C0893852E1950709F0F2
:103F900038C58131954139F4409A4098409840980D
:103FA00083B189B1409AB90164707727409A4098EB
:103FB0004098409824FF42C593B189B193708C7F9B
:103FC000982B409A409A40984098409843B189B1C4
:103FD00043708C7F482B409A409A40984098409874
:103FE00083B1C9B08370EC2DEC7F8E2B409A50E0EA
:103FF000672B09F40EC5C82ED12CDC2CCC24CC2484
:10400000F8EFDF22B3E0440F551FBA95E1F7407E89
:104010005770C42AD52A969596959695C92A809167
:104020008102882399F0C60105E0969587950A9547
:10403000E1F780729927A601569547954F7155274C
:10404000842B952BF0ECCF22C82AD92A409A439A88
:1040500084B1836084B98AB18C6F8AB920FD14C0A1
:1040600000915603109157030150110920915403F8
:10407000309155032150310950E040E070E060E09C
:104080008CE493E00E9432122FE1C2162FEFD20689
:10409000B1F486E08983AE014F5F5F4F61E08AE350
:1040A00090E00E9486108091690390916A038F7E50
:1040B00090936A038093690381E080938102E09189
:1040C000A502F091A60212E01083E091A102F09106
:1040D000A2021082E091A302F091A4028FEC8083EF
:1040E0001092AD02E091A902F091AA0286E08083CD
:1040F000E091A702F091A802808180618083E09125
:10410000A702F091A802808188608083E091A702D5
:10411000F091A802808180688083E091A702F091ED
:10412000A80280818F7D80838EE29DE00E94EA1646
:1041300081E19DE00E94EA168DEE9CE00E94EA1665
:104140008AED9CE00E94EA1684EB9CE00E94EA164D
:104150006AE471E085E992E00E94FD166EEA7CE077
:1041600085E992E00E9425096091830270918402A2
:1041700085E992E00E9433176091560370915703CE
:10418000CE0101960E94E41760915403709155038B
:10419000CE0107960E94E4176CE571E0CE010D9602
:1041A0000E945718BE01695F7F4FCE010D960E9495
:1041B000441867E671E00E942E18BE016F5F7F4FC2
:1041C0000E944418BC0185E992E00E941617CE01B6
:1041D0000D960E948818CE0107960E948818CE017D
:1041E00001960E94881869E671E085E992E00E94D4
:1041F000FD1668E870E0CE0101960E94E4176BE8B6
:1042000073E0CE0107960E94E4176AE771E0CE01E1
:104210000D960E945718BE01695F7F4FCE010D9623
:104220000E94441862E871E00E942E18BE016F5F80
:104230007F4F0E944418BC0185E992E00E94161746
:10424000CE010D960E948818CE0107960E9488180C
:10425000CE0101960E9488186BE870E0CE010196AD
:104260000E94E4176EEA73E0CE0107960E94E417FD
:104270006AE871E0CE010D960E945718BE01695F91
:104280007F4FCE010D960E94441862E971E00E94B2
:104290002E18BE016F5F7F4F0E944418BC0185E954
:1042A00092E00E941617CE010D960E948818CE014A
:1042B00007960E948818CE0101960E9488186AE924
:1042C00071E085E992E00E94FD166FE070E0CE019A
:1042D00001960E94E41760E170E0CE0107960E940B
:1042E000E41764EB71E0CE010D960E945718BE01F1
:1042F000695F7F4FCE010D960E94441868EB71E014
:104300000E942E18BE016F5F7F4F0E944418BC01AF
:1043100085E992E00E941617CE010D960E9488183A
:10432000CE0107960E948818CE0101960E94881837
:1043300067E070E0CE0101960E94E41766E070E04D
:10434000CE0107960E94E4176DEB71E0CE010D9649
:104350000E945718BE01695F7F4FCE010D960E94E3
:10436000441861EC71E00E942E18BE016F5F7F4F10
:104370000E944418BC0185E992E00E941617CE0104
:104380000D960E948818CE0107960E948818CE01CB
:1043900001960E94881860E08CE493E00E94441427
:1043A00070E060E08CE493E00E9493161092590351
:1043B0001092580310925B0310925A0301E000938D
:1043C00060030093610367E57DE08CE493E00E9465
:1043D000250960918302709184028CE493E00E942D
:1043E00033176091560370915703CE0101960E94D6
:1043F000E4176091540370915503CE0107960E9413
:10440000E4176CE571E0CE010D960E945718BE01CD
:10441000695F7F4FCE010D960E94441867E671E0F8
:104420000E942E18BE016F5F7F4F0E944418BC018E
:104430008CE493E00E941617CE010D960E94881816
:10444000CE0107960E948818CE0101960E94881816
:1044500069E471E08CE493E00E94FD161093600320
:10446000109361036AE471E08CE493E00E94FD160E
:10447000009360030093610366EC71E08CE493E0C9
:104480000E94FD1668E870E0CE0101960E94E417D4
:104490006BE873E0CE0107960E94E4176AE771E0CB
:1044A000CE010D960E945718BE01695F7F4FCE0165
:1044B0000D960E94441862E871E00E942E18BE0119
:1044C0006F5F7F4F0E944418BC018CE493E00E9410
:1044D0001617CE010D960E948818CE0107960E94ED
:1044E0008818CE0101960E9488186BE870E0CE0112
:1044F00001960E94E4176EEA73E0CE0107960E94CF
:10450000E4176AE871E0CE010D960E945718BE01CB
:10451000695F7F4FCE010D960E94441862E971E0F9
:104520000E942E18BE016F5F7F4F0E944418BC018D
:104530008CE493E00E941617CE010D960E94881815
:10454000CE0107960E948818CE0101960E94881815
:1045500067ED71E08CE493E00E94FD166FE070E07F
:10456000CE0101960E94E41760E170E0CE0107964B
:104570000E94E41764EB71E0CE010D960E9457187B
:10458000BE01695F7F4FCE010D960E94441868EB13
:1045900071E00E942E18BE016F5F7F4F0E94441889
:1045A000BC018CE493E00E941617CE010D960E9488
:1045B0008818CE0107960E948818CE0101960E94A5
:1045C000881867E070E0CE0101960E94E41766E06B
:1045D00070E0CE0107960E94E4176DEB71E0CE010A
:1045E0000D960E945718BE01695F7F4FCE010D9650
:1045F0000E94441861EC71E00E942E18BE016F5FAA
:104600007F4F0E944418BC018CE493E00E9416176F
:10461000CE010D960E948818CE0107960E94881838
:10462000CE0101960E9488181093600310936103D5
:1046300080E098EF90935F0380935E0390935D0317
:1046400080935C03809156039091570397FD0196E8
:104650009595879540915403509155039A012053A5
:10466000310937FF02C02F5F3F4F359527953093B3
:1046700059032093580390935B0380935A0364EE8D
:1046800071E08CE493E00E94DB1680EE9FEF909344
:104690005D0380935C0310925F0310925E03209190
:1046A00056033091570346E0429FC001439F900D4F
:1046B000112497FD0796A3E095958795AA95E1F7B4
:1046C000109259031092580390935B0380935A03FE
:1046D00069EE71E08CE493E00E94DB160E9494077F
:1046E00020933203309333034093340350933503C4
:1046F000609336037093370361E08FE00E944E07AA
:1047000061E080E10E944E0780913603909137036B
:10471000885C91098132934008F76091340370916D
:1047200035038091320390913303835C9140873746
:10473000910538F4CB01835C91408737910508F4EB
:10474000ACC12091560330915703C901880F991FBE
:10475000820F931F97FD039695958795959587955D
:10476000109259031092580390935B0380935A035D
:10477000CE0101960E94E4176091320370913303D9
:10478000CE0107960E94E4176EEF71E0CE010D9600
:104790000E945718BE01695F7F4FCE010D960E949F
:1047A000441864E072E00E942E18BE016F5F7F4FD4
:1047B0000E9444186BE072E00E942E18FC014481B4
:1047C0005581608171818CE493E00E944909CE019A
:1047D0000D960E948818CE0107960E948818CE0177
:1047E00001960E9488187ACF83E194E090936A033F
:1047F0008093690306E010E051EDC52E57E0D52EF9
:1048000017CB80E090E190936A03809369036CE991
:1048100070E086E79BE0EFCA83E19EE090936A0335
:104820008093690380EE91E0909353038093520349
:1048300080E491E0909351038093500302E010E0F4
:1048400090E3C92E97E0D92EF3CA83E094E09093C9
:104850006A038093690380EE91E090935303809301
:10486000520380E491E0909351038093500303E05E
:1048700010E08DE2C82E87E0D82EDACA83E194E0FA
:1048800090936A038093690301E410E0BCEECB2EA1
:10489000B6E0DB2ECDCA83E194E190936A03809366
:1048A000690302E110E0AAEDCA2EA6E0DA2EC0CA22
:1048B00083E194E1CEC983E194E190936A0380930C
:1048C000690380EE91E0909353038093520380E458
:1048D00091E090935103809350030DE110E0EBEBD6
:1048E000CE2EE6E0DE2EA4CA80E091E190936A032A
:1048F0008093690368ED70E086E19AE07CCA82E00B
:1049000091E190936A03809369036CEC70E08AE410
:1049100099E071CA83E094E090936A0380936903FD
:1049200080E991E0909353038093520380EF90E0ED
:1049300090935103809350030EE110E07DE9C72E60
:1049400076E0D72E75CA83E094E090936A03809353
:10495000690306E010E067E9C62E66E0D62E68CA55
:1049600087E194E133CA83E194E030CA83E096E1C1
:104970002DCA83E194E090936A038093690380EEEB
:1049800091E0909353038093520380E491E09093DD
:1049900051038093500305E410E03AEEC32E35E056
:1049A000D32E46CA87E094E0E6CF83E194E090936B
:1049B0006A038093690380EE91E0909353038093A0
:1049C000520380E491E090935103809350030BE2F3
:1049D00010E087E7C82E85E0D82E2ACA80E090E153
:1049E00090936A038093690360EC70E08AED97E02E
:1049F0000E94CD1180E991E090935303809352037C
:104A0000FCC9409A40984098409843B149B1409AB7
:104A1000C0CAC92ED12CDC2CCC24CC2468EFD622E1
:104A2000F3E0440F551FFA95E1F7407E5770C42A12
:104A3000D52A869586958695C82AF1CAC3B099B1BC
:104A4000409A409A40984098409883B149B1837009
:104A50004C7F842B409AEC2DE370CE2E9C7FC92A8C
:104A6000DC2CC82E23FF03C0D826CD24DC24672BE2
:104A700009F4D5CAC601807E9770A601452F552737
:104A8000469546954695842B952BDC2CCC24DD0C45
:104A9000DD0CDD0CC82AD92AC2CA8091540390913A
:104AA000550366E070E00E94572A70938A02609373
:104AB000890270E060E08CE493E00E949316C0905D
:104AC0008902D0908A02E12CA8EFFA2E8601960185
:104AD00050E040E070E060E08CE493E00E94C71298
:104AE000B0EEEB2EFF24FA94960150E040E0B601C0
:104AF0008CE493E00E94C7125601AA0CBB1C90EEF6
:104B0000E92E97E0F92E960150E040E0B5018CE4E3
:104B100093E00E94C712B5016C0D7D1DEE24EA944E
:104B200027E0F22E960150E040E08CE493E00E94F2
:104B3000C712B601660F771F660F771F4FE1E42E8D
:104B4000F12C960150E040E08CE493E00E94C71203
:104B500085E08C9DB0018D9D700D11245FE1E52EE7
:104B600058EFF52E960150E040E08CE493E00E946F
:104B7000C712EE24EA94FE2C960150E040E070E06B
:104B800060E08CE493E00E94B30D80E098EF909396
:104B900088028093870268EE73E080E090E00E94D4
:104BA000F1080E949407209332033093330340931B
:104BB000340350933503609336037093370361E0F9
:104BC0008FE00E944E0761E080E10E944E078091D5
:104BD000360390913703895C91098F31934008F037
:104BE0005DC12091320330913303032E000C440B3E
:104BF000550B2B58334041095109A0915403B091F2
:104C000055030E94D2282DEF3CEF4FEF5FEF0E943B
:104C1000A82829012091340330913503032E000C7C
:104C2000440B550B2E5A334041095109A0915603AC
:104C3000B09157030E94D2282DED3CEF4FEF5FEF6C
:104C40000E94A828490119018091890290918A0245
:104C50002817390708F0D4C0409187025091880284
:104C600050938602409385024816590608F04BC0BF
:104C700020E038EF3093880220938702EE24EA94F4
:104C8000FE2C8C019C0150E040E070E060E08CE480
:104C900093E00E94B30DC0908502D090860280916F
:104CA000870290918802C816D90609F4A9C080919C
:104CB000890290918A02C114E8EFDE0609F07CC0F7
:104CC000E12CB8EFFB2E8C019C0150E040E070E03D
:104CD00060E08CE493E00E94C7126FE1C61668EFB3
:104CE000D60609F08DC02091890230918A0285E0B4
:104CF000829FB001839F700D11248FE1E82E88EF11
:104D0000F82E890177C0BC01660F771F461657063B
:104D100078F420EE3FEF3093880220938702EE2450
:104D2000EA94FE2C8C019C0150E040E0BC01AFCF26
:104D3000FB01E80FF91F4E165F0670F420EE37E016
:104D40003093880220938702EE24EA94FE2C8C0193
:104D50009C0150E040E09BCFBC01660F771F660FBF
:104D6000771F4616570678F42FEF37E03093880206
:104D700020938702EE24EA94FE2C8C019C0150E0E3
:104D800040E0BF0184CF45E0489FF001499FF00D0E
:104D900011244E165F0618F42FE130E0D1CF66E003
:104DA000689FA001699F500D11244416550608F014
:104DB00072CF2FE138EFDACFF0EECF16FFEFDF063C
:104DC00051F4A0EEEA2EFF24FA948C019C0150E0ED
:104DD00040E0BC017ECF20EEC21627E0D20609F0EB
:104DE0006AC0BC01660F771FF0EEEF2EF7E0FF2ED2
:104DF0008C019C0150E040E08CE493E00E94C712DB
:104E0000A401415051098091890290918A0284172E
:104E1000950748F52091560330915703C401019638
:104E20008217930700F5C0908702D0908802860110
:104E300023E030E0B2018CE493E00E947A0FB201EB
:104E40006F5F7F4F21E030E0A4018CE493E00E948B
:104E50007A0FB2016150710921E030E0A4018CE4C5
:104E600093E00E947A0F0091560310915703C801F6
:104E70000A978215930590F44091890250918A0215
:104E8000041B150B2091540330915503F12CE12C98
:104E900070E060E08CE493E00E94C712E0E0F0E094
:104EA000EF2B09F47ECE0E94B309882309F479CE52
:104EB0000E94000076CE4FEFC41647E0D40651F4AE
:104EC000BC01660F771F680F791FEE24EA9457E044
:104ED000F52E8ECF5FE1C516D10409F0FECEBC01E0
:104EE000660F771F660F771F3FE1E32EF12C80CF0F
:104EF000BB274A3031F4992322F4BDE29095819585
:104F00009F4F0C948427BB27FB015527AA27880FA6
:104F1000991FAA1FA41710F0A41B83955051B9F72D
:104F2000A05DAA3308F0A95DA193009779F7B111AC
:104F3000B1931192CB010C949D27DC01FC01672FEA
:104F400071917723E1F7329704C07C916D93708360
:104F50006291AE17BF07C8F30895E89409C097FBA4
:104F60003EF490958095709561957F4F8F4F9F4F40
:104F70009923A9F0F92F96E9BB279395F695879584
:104F800077956795B795F111F8CFFAF4BB0F11F447
:104F900060FF1BC06F5F7F4F8F4F9F4F16C08823EE
:104FA00011F096E911C0772321F09EE8872F762F24
:104FB00005C0662371F096E8862F70E060E02AF065
:104FC0009A95660F771F881FDAF7880F9695879551
:104FD00097F908950E94FD270C946E280E9460287E
:104FE00038F00E94672820F0952311F00C94572880
:104FF0000C945D2811240C94A2280E947F2870F341
:10500000959FC1F3950F50E0551F629FF001729F6D
:10501000BB27F00DB11D639FAA27F00DB11DAA1F7C
:10502000649F6627B00DA11D661F829F2227B00DC9
:10503000A11D621F739FB00DA11D621F839FA00D54
:10504000611D221F749F3327A00D611D231F849FA4
:10505000600D211D822F762F6A2F11249F575040FB
:105060009AF0F1F088234AF0EE0FFF1FBB1F661F76
:10507000771F881F91505040A9F79E3F510580F03F
:105080000C9457280C94A2285F3FE4F3983ED4F385
:10509000869577956795B795F795E7959F5FC1F7E3
:1050A000FE2B880F911D9695879597F9089597F98E
:1050B0009F6780E870E060E008959FEF80EC0895BE
:1050C00000240A94161617061806090608950024E7
:1050D0000A9412161306140605060895092E039461
:1050E000000C11F4882352F0BB0F40F4BF2B11F4D5
:1050F00060FF04C06F5F7F4F8F4F9F4F089557FD34
:105100009058440F551F59F05F3F71F04795880F35
:1051100097FB991F61F09F3F79F0879508951216CC
:1051200013061406551FF2CF4695F1DF08C0161678
:1051300017061806991FF1CF869571056105089429
:105140000895E894BB2766277727CB0197F9089540
:10515000052E97FB1EF400940E94BF2857FD07D030
:105160000E94112907FC03D04EF40C94BF285095DF
:105170004095309521953F4F4F4F5F4F0895909543
:105180008095709561957F4F8F4F9F4F08950E9436
:105190003329A59F900DB49F900DA49F800D911D64
:1051A00011240895B7FF0C94C7280E94C728821BBA
:1051B000930B08952F923F924F925F926F927F923E
:1051C0008F929F92AF92BF92CF92DF92EF92FF9217
:1051D0000F931F93CF93DF93CDB7DEB7CA1BDB0BC3
:1051E0000FB6F894DEBF0FBECDBF09942A88398868
:1051F00048885F846E847D848C849B84AA84B9846F
:10520000C884DF80EE80FD800C811B81AA81B9817A
:10521000CE0FD11D0FB6F894DEBF0FBECDBFED018E
:105220000895A1E21A2EAA1BBB1BFD010DC0AA1FE7
:10523000BB1FEE1FFF1FA217B307E407F50720F0FF
:10524000A21BB30BE40BF50B661F771F881F991F7A
:105250001A9469F760957095809590959B01AC01C3
:10526000BD01CF010895A29FB001B39FC001A39FCC
:10527000700D811D1124911DB29F700D811D11248F
:10528000911D08955058BB27AA270E945A290C94B3
:105290006E280E94602838F00E94672820F039F4B8
:1052A0009F3F19F426F40C945D280EF4E095E7FB7B
:1052B0000C945728E92F0E947F2858F3BA176207E9
:1052C00073078407950720F079F4A6F50C94A128BC
:1052D0000EF4E0950B2EBA2FA02D0B01B901900111
:1052E0000C01CA01A0011124FF27591B99F0593F55
:1052F00050F4503E68F11A16F040A22F232F342F9D
:105300004427585FF3CF469537952795A795F040EA
:105310005395C9F77EF41F16BA0B620B730B840BFF
:10532000BAF09150A1F0FF0FBB1F661F771F881FB7
:10533000C2F70EC0BA0F621F731F841F48F487950F
:1053400077956795B795F7959E3F08F0B0CF939501
:10535000880F08F09927EE0F9795879508950E947A
:10536000C3290C946E280E94672858F00E94602878
:1053700040F029F45F3F29F00C94572851110C9408
:10538000A2280C945D280E947F2868F39923B1F32A
:10539000552391F3951B550BBB27AA27621773075B
:1053A000840738F09F5F5F4F220F331F441FAA1FEF
:1053B000A9F335D00E2E3AF0E0E832D091505040AB
:1053C000E695001CCAF72BD0FE2F29D0660F771F59
:1053D000881FBB1F261737074807AB07B0E809F03F
:1053E000BB0B802DBF01FF2793585F4F3AF09E3FC4
:1053F000510578F00C9457280C94A2285F3FE4F3F1
:10540000983ED4F3869577956795B795F7959F5F06
:10541000C9F7880F911D9695879597F90895E1E052
:10542000660F771F881FBB1F621773078407BA07B1
:1054300020F0621B730B840BBA0BEE1F88F7E0950C
:1054400008950E94282A6894B1110C94A228089506
:105450000E94872888F09F5798F0B92F9927B75155
:10546000B0F0E1F0660F771F881F991F1AF0BA9508
:10547000C9F714C0B13091F00E94A128B1E008959D
:105480000C94A128672F782F8827B85F39F0B93F8F
:10549000CCF3869577956795B395D9F73EF49095BB
:1054A0008095709561957F4F8F4F9F4F089597FB23
:1054B000072E16F4009407D077FD09D00E946B2ABE
:1054C00007FC05D03EF4909581959F4F0895709507
:1054D00061957F4F0895AA1BBB1B51E107C0AA1F0E
:1054E000BB1FA617B70710F0A61BB70B881F991F85
:1054F0005A95A9F780959095BC01CD010895EE0FBE
:10550000FF1F0590F491E02D09940F931F93CF9303
:10551000DF938230910510F482E090E0E091830304
:10552000F091840330E020E0B0E0A0E0309799F4FF
:105530002115310509F44AC0281B390B24303105E7
:10554000D8F58A819B816115710589F1FB019383EF
:105550008283FE0111C0408151810281138148176D
:105560005907E0F04817590799F4109761F012961F
:105570000C93129713961C933296CF01DF91CF9123
:105580001F910F9108950093830310938403F4CF28
:105590002115310551F04217530738F0A901DB01FD
:1055A0009A01BD01DF01F801C1CFEF01F9CF90935E
:1055B000840380938303CDCFFE01E20FF31F819319
:1055C00091932250310939832883D7CF20918103C9
:1055D00030918203232B41F4209102013091030189
:1055E00030938203209381032091000130910101C7
:1055F0002115310541F42DB73EB74091040150917A
:105600000501241B350BE0918103F0918203E21721
:10561000F307A0F42E1B3F0B2817390778F0AC01D5
:105620004E5F5F4F2417350748F04E0F5F1F5093B2
:10563000820340938103819391939FCFF0E0E0E058
:105640009CCFCF93DF930097E9F0FC013297138250
:105650001282A0918303B0918403ED0130E020E039
:105660001097A1F420813181820F931F2091810333
:10567000309182032817390709F061C0F093820343
:10568000E0938103DF91CF910895EA01CE17DF0700
:10569000E8F54A815B819E0141155105B1F7E901A9
:1056A000FB83EA8349915991C40FD51FEC17FD077D
:1056B00061F4808191810296840F951FE90199839D
:1056C0008883828193819B838A83F0E0E0E0129655
:1056D0008D919C9113970097B9F52D913C9111975D
:1056E000CD010296820F931F209181033091820396
:1056F0002817390739F6309751F510928403109224
:105700008303B0938203A0938103BCCFD383C2836E
:1057100040815181840F951FC817D90761F44E5FEE
:105720005F4F88819981480F591F518340838A8137
:105730009B81938382832115310509F0B0CFF093CB
:105740008403E09383039ECFFD01DC01C0CF13826D
:105750001282D7CFB0E0A0E0E0EBFBE20C94DC28B3
:105760008C01009751F4CB010E94852A8C01C8015D
:10577000CDB7DEB7E0E10C94F828FC01E60FF71F87
:105780009C0122503109E217F30708F49DC0D901AA
:10579000CD91DC911197C617D70798F0C530D10588
:1057A00030F3CE0104978617970708F3C61BD70B73
:1057B0002297C193D1936D937C93CF010E94212BAB
:1057C000D6CF5B01AC1ABD0A4C018C0E9D1EA09178
:1057D0008303B0918403512C412CF12CE12C1097C0
:1057E00031F580918103909182038815990509F024
:1057F0005CC04616570608F058C080910001909191
:105800000101009741F48DB79EB74091040150917A
:105810000501841B950BE817F90708F055C0F093B4
:105820008203E0938103F90171836083A0CF8D919E
:105830009C91119712966C90129713967C901397E7
:10584000A815B90559F56C0142E0C40ED11CCA1463
:10585000DB0420F1AC014A195B09DA0112961597B5
:1058600080F06282738251834083D9016D937C936F
:10587000E114F10471F0D7011396FC93EE931297A3
:1058800076CF22968C0F9D1FF90191838083F301BF
:10589000EFCFF0938403E093830369CF4816590652
:1058A00008F42C017D01D3019ACFCB010E94852AF7
:1058B0007C01009749F0AE01B8010E946C2CC80130
:1058C0000E94212B870153CF10E000E050CF81E0F0
:1058D00090E0F8940C947C2CFB01DC0102C0019058
:1058E0000D9241505040D8F70895FB01DC01019022
:1058F0000D920020E1F70895F894FFCF0000850392
:105900008000FF835700000000E909490976093645
:105910000AA7098509990900000000E10C4909D886
:1059200016D716BA132409860F5E0F7A0F6E0F8DE5
:105930000F24094414EF11C316B016C712931612A0
:105940000EB30D0D0A00506C656173652043616CE8
:105950006962726174652E0053637265656E2069B9
:10596000732000780043616C6962726174696F6EC4
:105970002069733A20004C454654203D20002052B7
:105980005420203D2000544F5020203D2000204234
:105990004F54203D2000576972696E67206973205B
:1059A000616C7761797320504F52545241495400D1
:1059B00059503D0020584D3D00594D3D0020585054
:1059C0003D00504F5254524149542056616C756508
:1059D000733A000A576972696E672069733A20004A
:1059E0004558495400546F75636820736372656548
:1059F0006E20666F72206C6F630074702E783D00AD
:0C5A00002074702E793D00202020000052
:107E0000112484B714BE81FFF0D085E080938100F7
:107E100082E08093C00088E18093C10086E0809377
:107E2000C20080E18093C4008EE0C9D0259A86E02C
:107E300020E33CEF91E0309385002093840096BBD3
:107E4000B09BFECF1D9AA8958150A9F7CC24DD24C4
:107E500088248394B5E0AB2EA1E19A2EF3E0BF2EE7
:107E6000A2D0813461F49FD0082FAFD0023811F036
:107E7000013811F484E001C083E08DD089C08234E0
:107E800011F484E103C0853419F485E0A6D080C0E4
:107E9000853579F488D0E82EFF2485D0082F10E0AE
:107EA000102F00270E291F29000F111F8ED06801E7
:107EB0006FC0863521F484E090D080E0DECF843638
:107EC00009F040C070D06FD0082F6DD080E0C81688
